{
  "_format": "hh-sol-artifact-1",
  "contractName": "GenerativeERC721Upgradeable",
  "sourceName": "contracts/GenerativeERC721Upgradeable.sol",
  "abi": [
    {
      "inputs": [],
      "stateMutability": "nonpayable",
      "type": "constructor"
    },
    {
      "inputs": [
        {
          "internalType": "address",
          "name": "target",
          "type": "address"
        }
      ],
      "name": "AddressEmptyCode",
      "type": "error"
    },
    {
      "inputs": [],
      "name": "ContractMetadataCemented",
      "type": "error"
    },
    {
      "inputs": [],
      "name": "ContractMetadataUnauthorized",
      "type": "error"
    },
    {
      "inputs": [
        {
          "internalType": "address",
          "name": "implementation",
          "type": "address"
        }
      ],
      "name": "ERC1967InvalidImplementation",
      "type": "error"
    },
    {
      "inputs": [],
      "name": "ERC1967NonPayable",
      "type": "error"
    },
    {
      "inputs": [
        {
          "internalType": "uint256",
          "name": "numerator",
          "type": "uint256"
        },
        {
          "internalType": "uint256",
          "name": "denominator",
          "type": "uint256"
        }
      ],
      "name": "ERC2981InvalidDefaultRoyalty",
      "type": "error"
    },
    {
      "inputs": [
        {
          "internalType": "address",
          "name": "receiver",
          "type": "address"
        }
      ],
      "name": "ERC2981InvalidDefaultRoyaltyReceiver",
      "type": "error"
    },
    {
      "inputs": [
        {
          "internalType": "uint256",
          "name": "tokenId",
          "type": "uint256"
        },
        {
          "internalType": "uint256",
          "name": "numerator",
          "type": "uint256"
        },
        {
          "internalType": "uint256",
          "name": "denominator",
          "type": "uint256"
        }
      ],
      "name": "ERC2981InvalidTokenRoyalty",
      "type": "error"
    },
    {
      "inputs": [
        {
          "internalType": "uint256",
          "name": "tokenId",
          "type": "uint256"
        },
        {
          "internalType": "address",
          "name": "receiver",
          "type": "address"
        }
      ],
      "name": "ERC2981InvalidTokenRoyaltyReceiver",
      "type": "error"
    },
    {
      "inputs": [
        {
          "internalType": "address",
          "name": "sender",
          "type": "address"
        },
        {
          "internalType": "uint256",
          "name": "tokenId",
          "type": "uint256"
        },
        {
          "internalType": "address",
          "name": "owner",
          "type": "address"
        }
      ],
      "name": "ERC721IncorrectOwner",
      "type": "error"
    },
    {
      "inputs": [
        {
          "internalType": "address",
          "name": "operator",
          "type": "address"
        },
        {
          "internalType": "uint256",
          "name": "tokenId",
          "type": "uint256"
        }
      ],
      "name": "ERC721InsufficientApproval",
      "type": "error"
    },
    {
      "inputs": [
        {
          "internalType": "address",
          "name": "approver",
          "type": "address"
        }
      ],
      "name": "ERC721InvalidApprover",
      "type": "error"
    },
    {
      "inputs": [
        {
          "internalType": "address",
          "name": "operator",
          "type": "address"
        }
      ],
      "name": "ERC721InvalidOperator",
      "type": "error"
    },
    {
      "inputs": [
        {
          "internalType": "address",
          "name": "owner",
          "type": "address"
        }
      ],
      "name": "ERC721InvalidOwner",
      "type": "error"
    },
    {
      "inputs": [
        {
          "internalType": "address",
          "name": "receiver",
          "type": "address"
        }
      ],
      "name": "ERC721InvalidReceiver",
      "type": "error"
    },
    {
      "inputs": [
        {
          "internalType": "address",
          "name": "sender",
          "type": "address"
        }
      ],
      "name": "ERC721InvalidSender",
      "type": "error"
    },
    {
      "inputs": [
        {
          "internalType": "uint256",
          "name": "tokenId",
          "type": "uint256"
        }
      ],
      "name": "ERC721NonexistentToken",
      "type": "error"
    },
    {
      "inputs": [],
      "name": "FailedInnerCall",
      "type": "error"
    },
    {
      "inputs": [],
      "name": "InvalidInitialization",
      "type": "error"
    },
    {
      "inputs": [],
      "name": "NotInitializing",
      "type": "error"
    },
    {
      "inputs": [
        {
          "internalType": "address",
          "name": "owner",
          "type": "address"
        }
      ],
      "name": "OwnableInvalidOwner",
      "type": "error"
    },
    {
      "inputs": [
        {
          "internalType": "address",
          "name": "account",
          "type": "address"
        }
      ],
      "name": "OwnableUnauthorizedAccount",
      "type": "error"
    },
    {
      "inputs": [
        {
          "internalType": "uint256",
          "name": "_tokenId",
          "type": "uint256"
        }
      ],
      "name": "TokenMetadataCemented",
      "type": "error"
    },
    {
      "inputs": [
        {
          "internalType": "uint256",
          "name": "_tokenId",
          "type": "uint256"
        }
      ],
      "name": "TokenMetadataImmutable",
      "type": "error"
    },
    {
      "inputs": [
        {
          "internalType": "uint256",
          "name": "_tokenId",
          "type": "uint256"
        }
      ],
      "name": "TokenMetadataUnauthorized",
      "type": "error"
    },
    {
      "inputs": [],
      "name": "UUPSUnauthorizedCallContext",
      "type": "error"
    },
    {
      "inputs": [
        {
          "internalType": "bytes32",
          "name": "slot",
          "type": "bytes32"
        }
      ],
      "name": "UUPSUnsupportedProxiableUUID",
      "type": "error"
    },
    {
      "anonymous": false,
      "inputs": [
        {
          "indexed": true,
          "internalType": "address",
          "name": "owner",
          "type": "address"
        },
        {
          "indexed": true,
          "internalType": "address",
          "name": "approved",
          "type": "address"
        },
        {
          "indexed": true,
          "internalType": "uint256",
          "name": "tokenId",
          "type": "uint256"
        }
      ],
      "name": "Approval",
      "type": "event"
    },
    {
      "anonymous": false,
      "inputs": [
        {
          "indexed": true,
          "internalType": "address",
          "name": "owner",
          "type": "address"
        },
        {
          "indexed": true,
          "internalType": "address",
          "name": "operator",
          "type": "address"
        },
        {
          "indexed": false,
          "internalType": "bool",
          "name": "approved",
          "type": "bool"
        }
      ],
      "name": "ApprovalForAll",
      "type": "event"
    },
    {
      "anonymous": false,
      "inputs": [],
      "name": "ContractURICemented",
      "type": "event"
    },
    {
      "anonymous": false,
      "inputs": [],
      "name": "ContractURIUpdated",
      "type": "event"
    },
    {
      "anonymous": false,
      "inputs": [
        {
          "indexed": false,
          "internalType": "uint64",
          "name": "version",
          "type": "uint64"
        }
      ],
      "name": "Initialized",
      "type": "event"
    },
    {
      "anonymous": false,
      "inputs": [
        {
          "indexed": false,
          "internalType": "uint256",
          "name": "_tokenId",
          "type": "uint256"
        }
      ],
      "name": "MetadataCemented",
      "type": "event"
    },
    {
      "anonymous": false,
      "inputs": [
        {
          "indexed": false,
          "internalType": "uint256",
          "name": "_tokenId",
          "type": "uint256"
        }
      ],
      "name": "MetadataUpdate",
      "type": "event"
    },
    {
      "anonymous": false,
      "inputs": [
        {
          "indexed": true,
          "internalType": "address",
          "name": "previousOwner",
          "type": "address"
        },
        {
          "indexed": true,
          "internalType": "address",
          "name": "newOwner",
          "type": "address"
        }
      ],
      "name": "OwnershipTransferStarted",
      "type": "event"
    },
    {
      "anonymous": false,
      "inputs": [
        {
          "indexed": true,
          "internalType": "address",
          "name": "previousOwner",
          "type": "address"
        },
        {
          "indexed": true,
          "internalType": "address",
          "name": "newOwner",
          "type": "address"
        }
      ],
      "name": "OwnershipTransferred",
      "type": "event"
    },
    {
      "anonymous": false,
      "inputs": [
        {
          "indexed": true,
          "internalType": "address",
          "name": "from",
          "type": "address"
        },
        {
          "indexed": true,
          "internalType": "address",
          "name": "to",
          "type": "address"
        },
        {
          "indexed": true,
          "internalType": "uint256",
          "name": "tokenId",
          "type": "uint256"
        }
      ],
      "name": "Transfer",
      "type": "event"
    },
    {
      "anonymous": false,
      "inputs": [
        {
          "indexed": true,
          "internalType": "address",
          "name": "implementation",
          "type": "address"
        }
      ],
      "name": "Upgraded",
      "type": "event"
    },
    {
      "inputs": [],
      "name": "PROVENANCE_HASH",
      "outputs": [
        {
          "internalType": "bytes32",
          "name": "",
          "type": "bytes32"
        }
      ],
      "stateMutability": "view",
      "type": "function"
    },
    {
      "inputs": [],
      "name": "UPGRADE_INTERFACE_VERSION",
      "outputs": [
        {
          "internalType": "string",
          "name": "",
          "type": "string"
        }
      ],
      "stateMutability": "view",
      "type": "function"
    },
    {
      "inputs": [],
      "name": "acceptOwnership",
      "outputs": [],
      "stateMutability": "nonpayable",
      "type": "function"
    },
    {
      "inputs": [
        {
          "internalType": "address",
          "name": "to",
          "type": "address"
        },
        {
          "internalType": "uint256",
          "name": "tokenId",
          "type": "uint256"
        }
      ],
      "name": "approve",
      "outputs": [],
      "stateMutability": "nonpayable",
      "type": "function"
    },
    {
      "inputs": [
        {
          "internalType": "address",
          "name": "owner",
          "type": "address"
        }
      ],
      "name": "balanceOf",
      "outputs": [
        {
          "internalType": "uint256",
          "name": "",
          "type": "uint256"
        }
      ],
      "stateMutability": "view",
      "type": "function"
    },
    {
      "inputs": [],
      "name": "cementContractMetadata",
      "outputs": [],
      "stateMutability": "nonpayable",
      "type": "function"
    },
    {
      "inputs": [
        {
          "internalType": "uint256",
          "name": "_tokenId",
          "type": "uint256"
        }
      ],
      "name": "cementTokenMetadata",
      "outputs": [],
      "stateMutability": "nonpayable",
      "type": "function"
    },
    {
      "inputs": [],
      "name": "contractURI",
      "outputs": [
        {
          "internalType": "string",
          "name": "",
          "type": "string"
        }
      ],
      "stateMutability": "view",
      "type": "function"
    },
    {
      "inputs": [],
      "name": "contractURICemented",
      "outputs": [
        {
          "internalType": "bool",
          "name": "",
          "type": "bool"
        }
      ],
      "stateMutability": "view",
      "type": "function"
    },
    {
      "inputs": [
        {
          "internalType": "uint256",
          "name": "_tokenId",
          "type": "uint256"
        }
      ],
      "name": "exists",
      "outputs": [
        {
          "internalType": "bool",
          "name": "",
          "type": "bool"
        }
      ],
      "stateMutability": "view",
      "type": "function"
    },
    {
      "inputs": [
        {
          "internalType": "uint256",
          "name": "tokenId",
          "type": "uint256"
        }
      ],
      "name": "getApproved",
      "outputs": [
        {
          "internalType": "address",
          "name": "",
          "type": "address"
        }
      ],
      "stateMutability": "view",
      "type": "function"
    },
    {
      "inputs": [
        {
          "internalType": "uint256",
          "name": "_tokenId",
          "type": "uint256"
        }
      ],
      "name": "getTokenMetadata",
      "outputs": [
        {
          "internalType": "string",
          "name": "",
          "type": "string"
        }
      ],
      "stateMutability": "view",
      "type": "function"
    },
    {
      "inputs": [
        {
          "internalType": "address",
          "name": "_minter",
          "type": "address"
        }
      ],
      "name": "grantMinter",
      "outputs": [],
      "stateMutability": "nonpayable",
      "type": "function"
    },
    {
      "inputs": [
        {
          "internalType": "string",
          "name": "_name",
          "type": "string"
        },
        {
          "internalType": "string",
          "name": "_symbol",
          "type": "string"
        },
        {
          "internalType": "uint256",
          "name": "_collectionSize",
          "type": "uint256"
        },
        {
          "internalType": "address",
          "name": "_initialOwner",
          "type": "address"
        },
        {
          "internalType": "address",
          "name": "_defaultRoyaltyReceiver",
          "type": "address"
        },
        {
          "internalType": "uint96",
          "name": "_defaultRoyaltyFeeNumerator",
          "type": "uint96"
        }
      ],
      "name": "initialize",
      "outputs": [],
      "stateMutability": "nonpayable",
      "type": "function"
    },
    {
      "inputs": [
        {
          "internalType": "address",
          "name": "owner",
          "type": "address"
        },
        {
          "internalType": "address",
          "name": "operator",
          "type": "address"
        }
      ],
      "name": "isApprovedForAll",
      "outputs": [
        {
          "internalType": "bool",
          "name": "",
          "type": "bool"
        }
      ],
      "stateMutability": "view",
      "type": "function"
    },
    {
      "inputs": [
        {
          "internalType": "address",
          "name": "_to",
          "type": "address"
        },
        {
          "internalType": "uint256",
          "name": "_amount",
          "type": "uint256"
        }
      ],
      "name": "mint",
      "outputs": [],
      "stateMutability": "nonpayable",
      "type": "function"
    },
    {
      "inputs": [],
      "name": "name",
      "outputs": [
        {
          "internalType": "string",
          "name": "",
          "type": "string"
        }
      ],
      "stateMutability": "view",
      "type": "function"
    },
    {
      "inputs": [],
      "name": "owner",
      "outputs": [
        {
          "internalType": "address",
          "name": "",
          "type": "address"
        }
      ],
      "stateMutability": "view",
      "type": "function"
    },
    {
      "inputs": [
        {
          "internalType": "uint256",
          "name": "tokenId",
          "type": "uint256"
        }
      ],
      "name": "ownerOf",
      "outputs": [
        {
          "internalType": "address",
          "name": "",
          "type": "address"
        }
      ],
      "stateMutability": "view",
      "type": "function"
    },
    {
      "inputs": [],
      "name": "pendingOwner",
      "outputs": [
        {
          "internalType": "address",
          "name": "",
          "type": "address"
        }
      ],
      "stateMutability": "view",
      "type": "function"
    },
    {
      "inputs": [],
      "name": "proxiableUUID",
      "outputs": [
        {
          "internalType": "bytes32",
          "name": "",
          "type": "bytes32"
        }
      ],
      "stateMutability": "view",
      "type": "function"
    },
    {
      "inputs": [],
      "name": "renounceMinter",
      "outputs": [],
      "stateMutability": "nonpayable",
      "type": "function"
    },
    {
      "inputs": [],
      "name": "renounceOwnership",
      "outputs": [],
      "stateMutability": "nonpayable",
      "type": "function"
    },
    {
      "inputs": [
        {
          "internalType": "uint256[]",
          "name": "_tokenIds",
          "type": "uint256[]"
        },
        {
          "internalType": "string[]",
          "name": "_metadata",
          "type": "string[]"
        }
      ],
      "name": "reveal",
      "outputs": [],
      "stateMutability": "nonpayable",
      "type": "function"
    },
    {
      "inputs": [
        {
          "internalType": "address",
          "name": "_minter",
          "type": "address"
        }
      ],
      "name": "revokeMinter",
      "outputs": [],
      "stateMutability": "nonpayable",
      "type": "function"
    },
    {
      "inputs": [
        {
          "internalType": "uint256",
          "name": "tokenId",
          "type": "uint256"
        },
        {
          "internalType": "uint256",
          "name": "salePrice",
          "type": "uint256"
        }
      ],
      "name": "royaltyInfo",
      "outputs": [
        {
          "internalType": "address",
          "name": "",
          "type": "address"
        },
        {
          "internalType": "uint256",
          "name": "",
          "type": "uint256"
        }
      ],
      "stateMutability": "view",
      "type": "function"
    },
    {
      "inputs": [
        {
          "internalType": "address",
          "name": "from",
          "type": "address"
        },
        {
          "internalType": "address",
          "name": "to",
          "type": "address"
        },
        {
          "internalType": "uint256",
          "name": "tokenId",
          "type": "uint256"
        }
      ],
      "name": "safeTransferFrom",
      "outputs": [],
      "stateMutability": "nonpayable",
      "type": "function"
    },
    {
      "inputs": [
        {
          "internalType": "address",
          "name": "from",
          "type": "address"
        },
        {
          "internalType": "address",
          "name": "to",
          "type": "address"
        },
        {
          "internalType": "uint256",
          "name": "tokenId",
          "type": "uint256"
        },
        {
          "internalType": "bytes",
          "name": "data",
          "type": "bytes"
        }
      ],
      "name": "safeTransferFrom",
      "outputs": [],
      "stateMutability": "nonpayable",
      "type": "function"
    },
    {
      "inputs": [
        {
          "internalType": "address",
          "name": "operator",
          "type": "address"
        },
        {
          "internalType": "bool",
          "name": "approved",
          "type": "bool"
        }
      ],
      "name": "setApprovalForAll",
      "outputs": [],
      "stateMutability": "nonpayable",
      "type": "function"
    },
    {
      "inputs": [
        {
          "components": [
            {
              "internalType": "string",
              "name": "name",
              "type": "string"
            },
            {
              "internalType": "string",
              "name": "description",
              "type": "string"
            },
            {
              "internalType": "string",
              "name": "image",
              "type": "string"
            },
            {
              "internalType": "string",
              "name": "externalLink",
              "type": "string"
            },
            {
              "internalType": "string[]",
              "name": "collaborators",
              "type": "string[]"
            }
          ],
          "internalType": "struct StdContractMetadata",
          "name": "_data",
          "type": "tuple"
        }
      ],
      "name": "setContractMetadata",
      "outputs": [],
      "stateMutability": "nonpayable",
      "type": "function"
    },
    {
      "inputs": [
        {
          "components": [
            {
              "internalType": "string",
              "name": "name",
              "type": "string"
            }
          ],
          "internalType": "struct RequiredContractMetadata",
          "name": "_data",
          "type": "tuple"
        }
      ],
      "name": "setContractMetadata",
      "outputs": [],
      "stateMutability": "nonpayable",
      "type": "function"
    },
    {
      "inputs": [
        {
          "components": [
            {
              "internalType": "string",
              "name": "name",
              "type": "string"
            },
            {
              "internalType": "string",
              "name": "description",
              "type": "string"
            },
            {
              "internalType": "string",
              "name": "image",
              "type": "string"
            },
            {
              "internalType": "string",
              "name": "bannerImage",
              "type": "string"
            },
            {
              "internalType": "string",
              "name": "featuredImage",
              "type": "string"
            },
            {
              "internalType": "string",
              "name": "externalLink",
              "type": "string"
            },
            {
              "internalType": "string[]",
              "name": "collaborators",
              "type": "string[]"
            }
          ],
          "internalType": "struct FullContractMetadata",
          "name": "_data",
          "type": "tuple"
        }
      ],
      "name": "setContractMetadata",
      "outputs": [],
      "stateMutability": "nonpayable",
      "type": "function"
    },
    {
      "inputs": [
        {
          "internalType": "string",
          "name": "_jsonBlob",
          "type": "string"
        }
      ],
      "name": "setContractMetadataRaw",
      "outputs": [],
      "stateMutability": "nonpayable",
      "type": "function"
    },
    {
      "inputs": [
        {
          "internalType": "address",
          "name": "_receiver",
          "type": "address"
        },
        {
          "internalType": "uint96",
          "name": "_feeNumerator",
          "type": "uint96"
        }
      ],
      "name": "setDefaultRoyalty",
      "outputs": [],
      "stateMutability": "nonpayable",
      "type": "function"
    },
    {
      "inputs": [
        {
          "internalType": "address[]",
          "name": "_tokenAddresses",
          "type": "address[]"
        },
        {
          "internalType": "uint256[]",
          "name": "_tokenIds",
          "type": "uint256[]"
        }
      ],
      "name": "setInfluencingNFTs",
      "outputs": [],
      "stateMutability": "nonpayable",
      "type": "function"
    },
    {
      "inputs": [
        {
          "internalType": "string",
          "name": "_metadata",
          "type": "string"
        }
      ],
      "name": "setPlaceholderMetadata",
      "outputs": [],
      "stateMutability": "nonpayable",
      "type": "function"
    },
    {
      "inputs": [
        {
          "internalType": "string",
          "name": "_metadata",
          "type": "string"
        }
      ],
      "name": "setRevealPlaceholderMetadata",
      "outputs": [],
      "stateMutability": "nonpayable",
      "type": "function"
    },
    {
      "inputs": [
        {
          "internalType": "uint256",
          "name": "_tokenId",
          "type": "uint256"
        },
        {
          "internalType": "string",
          "name": "_traitType",
          "type": "string"
        },
        {
          "internalType": "string",
          "name": "_value",
          "type": "string"
        }
      ],
      "name": "setTokenAttribute",
      "outputs": [],
      "stateMutability": "nonpayable",
      "type": "function"
    },
    {
      "inputs": [
        {
          "internalType": "uint256",
          "name": "_tokenId",
          "type": "uint256"
        },
        {
          "internalType": "string",
          "name": "_traitType",
          "type": "string"
        },
        {
          "internalType": "bool",
          "name": "_value",
          "type": "bool"
        }
      ],
      "name": "setTokenAttribute",
      "outputs": [],
      "stateMutability": "nonpayable",
      "type": "function"
    },
    {
      "inputs": [
        {
          "internalType": "uint256",
          "name": "_tokenId",
          "type": "uint256"
        },
        {
          "internalType": "string",
          "name": "_traitType",
          "type": "string"
        },
        {
          "internalType": "uint256",
          "name": "_value",
          "type": "uint256"
        }
      ],
      "name": "setTokenAttribute",
      "outputs": [],
      "stateMutability": "nonpayable",
      "type": "function"
    },
    {
      "inputs": [
        {
          "internalType": "uint256",
          "name": "_tokenId",
          "type": "uint256"
        },
        {
          "internalType": "string",
          "name": "_traitType",
          "type": "string"
        },
        {
          "internalType": "int256",
          "name": "_value",
          "type": "int256"
        }
      ],
      "name": "setTokenAttribute",
      "outputs": [],
      "stateMutability": "nonpayable",
      "type": "function"
    },
    {
      "inputs": [
        {
          "internalType": "uint256",
          "name": "_tokenId",
          "type": "uint256"
        },
        {
          "components": [
            {
              "internalType": "string",
              "name": "traitType",
              "type": "string"
            },
            {
              "internalType": "string",
              "name": "value",
              "type": "string"
            },
            {
              "internalType": "string",
              "name": "displayType",
              "type": "string"
            }
          ],
          "internalType": "struct Attribute",
          "name": "_attribute",
          "type": "tuple"
        }
      ],
      "name": "setTokenAttribute",
      "outputs": [],
      "stateMutability": "nonpayable",
      "type": "function"
    },
    {
      "inputs": [
        {
          "internalType": "uint256",
          "name": "_tokenId",
          "type": "uint256"
        },
        {
          "internalType": "string",
          "name": "_path",
          "type": "string"
        },
        {
          "internalType": "string",
          "name": "_value",
          "type": "string"
        }
      ],
      "name": "setTokenMetadata",
      "outputs": [],
      "stateMutability": "nonpayable",
      "type": "function"
    },
    {
      "inputs": [
        {
          "internalType": "uint256",
          "name": "_tokenId",
          "type": "uint256"
        },
        {
          "components": [
            {
              "internalType": "string",
              "name": "name",
              "type": "string"
            },
            {
              "internalType": "string",
              "name": "description",
              "type": "string"
            },
            {
              "internalType": "string",
              "name": "image",
              "type": "string"
            },
            {
              "internalType": "string",
              "name": "externalURL",
              "type": "string"
            },
            {
              "internalType": "string",
              "name": "animationURL",
              "type": "string"
            },
            {
              "components": [
                {
                  "internalType": "string",
                  "name": "traitType",
                  "type": "string"
                },
                {
                  "internalType": "string",
                  "name": "value",
                  "type": "string"
                },
                {
                  "internalType": "string",
                  "name": "displayType",
                  "type": "string"
                }
              ],
              "internalType": "struct Attribute[]",
              "name": "attributes",
              "type": "tuple[]"
            }
          ],
          "internalType": "struct StdTokenMetadata",
          "name": "_data",
          "type": "tuple"
        }
      ],
      "name": "setTokenMetadata",
      "outputs": [],
      "stateMutability": "nonpayable",
      "type": "function"
    },
    {
      "inputs": [
        {
          "internalType": "uint256",
          "name": "_tokenId",
          "type": "uint256"
        },
        {
          "internalType": "string",
          "name": "_jsonBlob",
          "type": "string"
        }
      ],
      "name": "setTokenMetadataRaw",
      "outputs": [],
      "stateMutability": "nonpayable",
      "type": "function"
    },
    {
      "inputs": [
        {
          "internalType": "uint256",
          "name": "_tokenId",
          "type": "uint256"
        },
        {
          "internalType": "address",
          "name": "_receiver",
          "type": "address"
        },
        {
          "internalType": "uint96",
          "name": "_feeNumerator",
          "type": "uint96"
        }
      ],
      "name": "setTokenRoyalty",
      "outputs": [],
      "stateMutability": "nonpayable",
      "type": "function"
    },
    {
      "inputs": [
        {
          "internalType": "bytes4",
          "name": "interfaceId",
          "type": "bytes4"
        }
      ],
      "name": "supportsInterface",
      "outputs": [
        {
          "internalType": "bool",
          "name": "",
          "type": "bool"
        }
      ],
      "stateMutability": "view",
      "type": "function"
    },
    {
      "inputs": [],
      "name": "symbol",
      "outputs": [
        {
          "internalType": "string",
          "name": "",
          "type": "string"
        }
      ],
      "stateMutability": "view",
      "type": "function"
    },
    {
      "inputs": [
        {
          "internalType": "uint256",
          "name": "_tokenId",
          "type": "uint256"
        }
      ],
      "name": "tokenURI",
      "outputs": [
        {
          "internalType": "string",
          "name": "",
          "type": "string"
        }
      ],
      "stateMutability": "view",
      "type": "function"
    },
    {
      "inputs": [
        {
          "internalType": "uint256",
          "name": "_tokenId",
          "type": "uint256"
        }
      ],
      "name": "tokenURICemented",
      "outputs": [
        {
          "internalType": "bool",
          "name": "",
          "type": "bool"
        }
      ],
      "stateMutability": "view",
      "type": "function"
    },
    {
      "inputs": [
        {
          "internalType": "address",
          "name": "from",
          "type": "address"
        },
        {
          "internalType": "address",
          "name": "to",
          "type": "address"
        },
        {
          "internalType": "uint256",
          "name": "tokenId",
          "type": "uint256"
        }
      ],
      "name": "transferFrom",
      "outputs": [],
      "stateMutability": "nonpayable",
      "type": "function"
    },
    {
      "inputs": [
        {
          "internalType": "address",
          "name": "newOwner",
          "type": "address"
        }
      ],
      "name": "transferOwnership",
      "outputs": [],
      "stateMutability": "nonpayable",
      "type": "function"
    },
    {
      "inputs": [
        {
          "internalType": "address",
          "name": "newImplementation",
          "type": "address"
        },
        {
          "internalType": "bytes",
          "name": "data",
          "type": "bytes"
        }
      ],
      "name": "upgradeToAndCall",
      "outputs": [],
      "stateMutability": "payable",
      "type": "function"
    },
    {
      "inputs": [
        {
          "internalType": "uint256",
          "name": "_tokenId",
          "type": "uint256"
        }
      ],
      "name": "uri",
      "outputs": [
        {
          "internalType": "string",
          "name": "",
          "type": "string"
        }
      ],
      "stateMutability": "view",
      "type": "function"
    }
  ],
  "bytecode": "0x60a0604052306080523480156200001557600080fd5b506200002062000026565b620000da565b7ff0c57e16840df040f15088dc2f81fe391c3923bec73e23a9662efc9c229c6a00805468010000000000000000900460ff1615620000775760405163f92ee8a960e01b815260040160405180910390fd5b80546001600160401b0390811614620000d75780546001600160401b0319166001600160401b0390811782556040519081527fc7f505b2f371ae2175ee4913f4499e1f2633a7b5936321eed1cdaeb6115181d29060200160405180910390a15b50565b60805161571c6200010460003960008181612194015281816121bd0152612300015261571c6000f3fe6080604052600436106102d55760003560e01c806369e6d78e1161017b578063c3311f69116100d7578063e8a3d48511610085578063e8a3d485146108b0578063e985e9c5146108c5578063eab5fdf6146108e5578063ef15c0e714610905578063efcf575414610925578063f2fde38b14610945578063ff1b65561461096557600080fd5b8063c3311f69146107fb578063c87b56dd146103d7578063cfbd48851461081b578063cfe903b21461083b578063d38b856d1461085b578063e30c39781461087b578063e88d86561461089057600080fd5b806392df3e8b1161013457806392df3e8b1461072057806395d89b41146107405780639865027514610755578063a22cb4651461076a578063ad3cb1cc1461078a578063b88d4fde146107bb578063b94e14d2146107db57600080fd5b806369e6d78e1461068c57806370a08231146106ac578063715018a6146106cc57806379ba5097146106e157806383ab79f1146106f65780638da5cb5b1461070b57600080fd5b80633ee2e8221161023557806353fb3024116101e357806353fb3024146105ac5780635944c753146105cc5780635a644be0146105ec578063603168011461060c578063605ab9481461062c5780636352211e1461064c57806366c2d6d61461066c57600080fd5b80633ee2e822146104d657806340c10f19146104f657806342842e0e146105165780634bcdb12f146105365780634f1ef286146105565780634f558e791461056957806352d1902d1461058957600080fd5b80630e89341c116102925780630e89341c146103d7578063149b6ac4146103f757806323b872dd14610417578063261707fa146104375780632a55205a1461045757806332ab19fa146104965780633c05d589146104b657600080fd5b806301ffc9a7146102da57806304634d8d1461030f57806306fdde03146103315780630766c1a614610353578063081812fc1461038a578063095ea7b3146103b7575b600080fd5b3480156102e657600080fd5b506102fa6102f536600461418e565b610999565b60405190151581526020015b60405180910390f35b34801561031b57600080fd5b5061032f61032a3660046141dc565b6109aa565b005b34801561033d57600080fd5b506103466109c0565b6040516103069190614261565b34801561035f57600080fd5b507f985371f50cecfcb1a6dfdccb4c871d7a5d94b17a9d368860b42eaca20a68bf005460ff166102fa565b34801561039657600080fd5b506103aa6103a5366004614274565b6109cf565b604051610306919061428d565b3480156103c357600080fd5b5061032f6103d23660046142a1565b6109e4565b3480156103e357600080fd5b506103466103f2366004614274565b6109ef565b34801561040357600080fd5b5061032f61041236600461430e565b6109fa565b34801561042357600080fd5b5061032f6104323660046143bb565b610c21565b34801561044357600080fd5b5061032f6104523660046143fc565b610cb5565b34801561046357600080fd5b50610477610472366004614419565b610cf1565b604080516001600160a01b039093168352602083019190915201610306565b3480156104a257600080fd5b5061032f6104b136600461456a565b610de1565b3480156104c257600080fd5b5061032f6104d1366004614274565b610e1a565b3480156104e257600080fd5b5061032f6104f13660046145f4565b610e4d565b34801561050257600080fd5b5061032f6105113660046142a1565b610fed565b34801561052257600080fd5b5061032f6105313660046143bb565b611141565b34801561054257600080fd5b5061032f61055136600461465f565b61115c565b61032f6105643660046146cb565b611191565b34801561057557600080fd5b506102fa610584366004614274565b6111ac565b34801561059557600080fd5b5061059e6111b7565b604051908152602001610306565b3480156105b857600080fd5b5061032f6105c73660046145f4565b6111d4565b3480156105d857600080fd5b5061032f6105e7366004614704565b611301565b3480156105f857600080fd5b5061032f61060736600461465f565b611314565b34801561061857600080fd5b50610346610627366004614274565b611349565b34801561063857600080fd5b506102fa610647366004614274565b611354565b34801561065857600080fd5b506103aa610667366004614274565b61138a565b34801561067857600080fd5b5061032f610687366004614742565b611395565b34801561069857600080fd5b5061032f6106a7366004614830565b6113b8565b3480156106b857600080fd5b5061059e6106c73660046143fc565b6113cc565b3480156106d857600080fd5b5061032f611424565b3480156106ed57600080fd5b5061032f611438565b34801561070257600080fd5b5061032f611474565b34801561071757600080fd5b506103aa6114f1565b34801561072c57600080fd5b5061032f61073b36600461493a565b611526565b34801561074c57600080fd5b5061034661155b565b34801561076157600080fd5b5061032f6115fc565b34801561077657600080fd5b5061032f610785366004614994565b611623565b34801561079657600080fd5b50610346604051806040016040528060058152602001640352e302e360dc1b81525081565b3480156107c757600080fd5b5061032f6107d63660046149cd565b61162e565b3480156107e757600080fd5b5061032f6107f6366004614a38565b611645565b34801561080757600080fd5b5061032f610816366004614a87565b61167a565b34801561082757600080fd5b5061032f6108363660046143fc565b6116c2565b34801561084757600080fd5b5061032f610856366004614c36565b6116fb565b34801561086757600080fd5b5061032f610876366004614a38565b611737565b34801561088757600080fd5b506103aa61176c565b34801561089c57600080fd5b5061032f6108ab366004614742565b611795565b3480156108bc57600080fd5b506103466117f7565b3480156108d157600080fd5b506102fa6108e0366004614d62565b611822565b3480156108f157600080fd5b5061032f610900366004614d90565b611861565b34801561091157600080fd5b5061032f610920366004614ed4565b61186d565b34801561093157600080fd5b5061032f610940366004614f10565b6118a1565b34801561095157600080fd5b5061032f6109603660046143fc565b6118aa565b34801561097157600080fd5b5061059e7f74c1bdcd2b042df90fe026cc708b5db12bddb23792bf4ce9fdf1b7efe60949b581565b60006109a48261192f565b92915050565b6109b261196f565b6109bc82826119a1565b5050565b60606109ca611a64565b905090565b60006109da82611ab4565b506109a482611aec565b6109bc828233611b15565b60606109a482611b22565b7ff0c57e16840df040f15088dc2f81fe391c3923bec73e23a9662efc9c229c6a008054600160401b810460ff1615906001600160401b0316600081158015610a3f5750825b90506000826001600160401b03166001148015610a5b5750303b155b905081158015610a69575080155b15610a875760405163f92ee8a960e01b815260040160405180910390fd5b845467ffffffffffffffff191660011785558315610ab157845460ff60401b1916600160401b1785555b610b358d8d8080601f016020809104026020016040519081016040528093929190818152602001838380828437600081840152601f19601f820116905080830192505050505050508c8c8080601f016020809104026020016040519081016040528093929190818152602001838380828437600092019190915250611b2d92505050565b610b3e88611b3f565b610b46611b50565b610b858d8d8080601f016020809104026020016040519081016040528093929190818152602001838380828437600092019190915250611b5892505050565b610b8d611b50565b610b95611b50565b610b9d611b50565b6000610ba7611b69565b600180825581018b90559050610bc1600582016000614132565b610bcb88886119a1565b508315610c1257845460ff60401b19168555604051600181527fc7f505b2f371ae2175ee4913f4499e1f2633a7b5936321eed1cdaeb6115181d29060200160405180910390a15b50505050505050505050505050565b6001600160a01b038216610c54576000604051633250574960e11b8152600401610c4b919061428d565b60405180910390fd5b6000610c61838333611b8d565b9050836001600160a01b0316816001600160a01b031614610caf576040516364283d7b60e01b81526001600160a01b0380861660048301526024820184905282166044820152606401610c4b565b50505050565b610cbd61196f565b6000610cc7611b69565b6001600160a01b03909216600090815260029092016020525060409020805460ff19166001179055565b60008281527fdaedc9ab023613a7caf35e703657e986ccfad7e3eb0af93a2853f8d65dd86b01602090815260408083208151808301909252546001600160a01b038116808352600160a01b9091046001600160601b03169282019290925282917fdaedc9ab023613a7caf35e703657e986ccfad7e3eb0af93a2853f8d65dd86b009190610da757506040805180820190915281546001600160a01b0381168252600160a01b90046001600160601b031660208201525b602081015160009061271090610dc6906001600160601b031688614f5a565b610dd09190614f87565b9151945090925050505b9250929050565b81610deb81611c96565b610e0b5760405163442278a760e11b815260048101829052602401610c4b565b610e158383611cb1565b505050565b80610e2481611c96565b610e445760405163442278a760e11b815260048101829052602401610c4b565b6109bc82611cf3565b610e5561196f565b6000610e5f611b69565b90506000816004018054610e7290614f9b565b905011610eb65760405162461bcd60e51b815260206004820152601260248201527114995d99585b08155493081b9bdd081cd95d60721b6044820152606401610c4b565b838214610efe5760405162461bcd60e51b8152602060048201526016602482015275082e4e4c2f2e640d8cadccee8d040dad2e6dac2e8c6d60531b6044820152606401610c4b565b60005b84811015610fe5576000868683818110610f1d57610f1d614fd5565b9050602002013590506000858584818110610f3a57610f3a614fd5565b9050602002810190610f4c9190614feb565b8080601f01602080910402602001604051908101604052809392919081815260200183838082843760009201829052508681526006890160209081526040808320548151808301909252600782526672616e6b696e6760c81b9282019290925295965094909350610fc99250859150610fc485611d5e565b611dcc565b9050610fd58482611e49565b505060019092019150610f019050565b505050505050565b6000610ff7611b69565b33600090815260028201602052604090205490915060ff1661104c5760405162461bcd60e51b815260206004820152600e60248201526d24b73b30b634b21036b4b73a32b960911b6044820152606401610c4b565b6001600160a01b0383166110ba5760405162461bcd60e51b815260206004820152602f60248201527f496e76616c696420616464726573733a2073686f756c64206e6f74206265207460448201526e6865207a65726f206164647265737360881b6064820152608401610c4b565b60006110c4611b69565b905060005b8381101561113a576001820154825411156111115760405162461bcd60e51b81526020600482015260086024820152671cdbdb19081bdd5d60c21b6044820152606401610c4b565b61111f858360000154611e53565b815482600061112d83615031565b90915550506001016110c9565b5050505050565b610e158383836040518060200160405280600081525061162e565b8261116681611c96565b6111865760405163442278a760e11b815260048101829052602401610c4b565b610caf848484611fae565b611199612189565b6111a28261222e565b6109bc8282612236565b60006109a4826122ea565b60006111c16122f5565b5060008051602061569f83398151915290565b6111dc61196f565b8281146112245760405162461bcd60e51b8152602060048201526016602482015275082e4e4c2f2e640d8cadccee8d040dad2e6dac2e8c6d60531b6044820152606401610c4b565b600061122e611b69565b905061123e600582016000614132565b60005b84811015610fe557604080518082019091526000808252602082015286868381811061126f5761126f614fd5565b905060200201602081019061128491906143fc565b6001600160a01b031681528484838181106112a1576112a1614fd5565b60209081029290920135838301908152600586018054600180820183556000928352949091209451600290910290940180546001600160a01b0319166001600160a01b039095169490941784555192820192909255919091019050611241565b61130961196f565b610e1583838361233e565b8261131e81611c96565b61133e5760405163442278a760e11b815260048101829052602401610c4b565b610caf848484612423565b60606109a482612447565b60008181527f935e9bcbc0809e5814f39d3828d0a7f7b9174743a7e081e81a47c083b0f4a400602052604081205460ff166109a4565b60006109a482611ab4565b61139d61196f565b60006113a7611b69565b905060048101610caf838583615092565b6113c96113c482612452565b6126f6565b50565b6000806113d76127b7565b90506001600160a01b0383166114035760006040516322718ad960e21b8152600401610c4b919061428d565b6001600160a01b039092166000908152600390920160205250604090205490565b61142c61196f565b61143660006127db565b565b338061144261176c565b6001600160a01b03161461146b578060405163118cdaa760e01b8152600401610c4b919061428d565b6113c9816127db565b61147c612813565b61149957604051639f7f092560e01b815260040160405180910390fd5b7f985371f50cecfcb1a6dfdccb4c871d7a5d94b17a9d368860b42eaca20a68bf00805460ff191660011781556040517f975c2fc9ddf45852b3fc20d6e75b3b08b461c20ce297d2fd4313300c92f27bb790600090a150565b6000807f9016d09d72d40fdae2fd8ceac6b6234c7706214fd39c1cd1e609a0528c1993005b546001600160a01b031692915050565b8261153081611c96565b6115505760405163442278a760e11b815260048101829052602401610c4b565b610caf84848461282d565b606060006115676127b7565b905080600101805461157890614f9b565b80601f01602080910402602001604051908101604052809291908181526020018280546115a490614f9b565b80156115f15780601f106115c6576101008083540402835291602001916115f1565b820191906000526020600020905b8154815290600101906020018083116115d457829003601f168201915b505050505091505090565b6000611606611b69565b336000908152600290910160205260409020805460ff1916905550565b6109bc338383612936565b611639848484610c21565b610caf848484846129db565b8261164f81611c96565b61166f5760405163442278a760e11b815260048101829052602401610c4b565b610caf848484612aeb565b6113c96113c4604051806040016040528060028152602001617b7d60f01b815250604051806040016040528060048152602001636e616d6560e01b8152508460000151611dcc565b6116ca61196f565b60006116d4611b69565b6001600160a01b03909216600090815260029092016020525060409020805460ff19169055565b8161170581611c96565b6117255760405163442278a760e11b815260048101829052602401610c4b565b610e158361173284612bb5565b611cb1565b8261174181611c96565b6117615760405163442278a760e11b815260048101829052602401610c4b565b610caf848484612eb7565b6000807f237e158222e3e6968b72b9db0d8043aacf074ad9f650f0d1606b4d82ee432c00611516565b61179d61196f565b60006117a7611b69565b90506117e883838080601f016020809104026020016040519081016040528093929190818152602001838380828437600092019190915250612f8192505050565b6003820190610caf9082615151565b60606109ca7f841f636c3ae717f882adaf710a5db29ca95821d91f8d637d2b614cbcb320c700612fdd565b60008061182d6127b7565b6001600160a01b03948516600090815260059190910160209081526040808320959096168252939093525050205460ff1690565b6113c96113c48261300a565b8161187781611c96565b6118975760405163442278a760e11b815260048101829052602401610c4b565b610e158383613195565b6113c9816126f6565b6118b261196f565b7f237e158222e3e6968b72b9db0d8043aacf074ad9f650f0d1606b4d82ee432c0080546001600160a01b0319166001600160a01b03831690811782556118f66114f1565b6001600160a01b03167f38d16b8cac22d99fc7c124b9cd0de2d3fa1faef420bfe791d8c362d765e2270060405160405180910390a35050565b60006001600160e01b031982166380ac58cd60e01b148061196057506001600160e01b03198216635b5e139f60e01b145b806109a457506109a48261323b565b336119786114f1565b6001600160a01b031614611436573360405163118cdaa760e01b8152600401610c4b919061428d565b7fdaedc9ab023613a7caf35e703657e986ccfad7e3eb0af93a2853f8d65dd86b006127106001600160601b038316811015611a0157604051636f483d0960e01b81526001600160601b038416600482015260248101829052604401610c4b565b6001600160a01b038416611a2b576000604051635b6cc80560e11b8152600401610c4b919061428d565b50604080518082019091526001600160a01b039093168084526001600160601b039092166020909301839052600160a01b909202179055565b60606109ca611a927f841f636c3ae717f882adaf710a5db29ca95821d91f8d637d2b614cbcb320c700613270565b604051806040016040528060048152602001636e616d6560e01b81525061329d565b600080611ac083613310565b90506001600160a01b0381166109a457604051637e27328960e01b815260048101849052602401610c4b565b600080611af76127b7565b6000938452600401602052505060409020546001600160a01b031690565b610e158383836001613339565b60606109a482612fdd565b611b35613443565b6109bc828261348c565b611b47613443565b6113c9816134ba565b611436613443565b611b60613443565b6113c9816134ec565b7f31050a5cbe139738580cd5e882a7ccc0bc7ea0ba2dbe2141bade58b3ac3c650090565b600080611b986127b7565b90506000611ba585613310565b90506001600160a01b03841615611bc157611bc1818587613538565b6001600160a01b03811615611c0157611bde600086600080613339565b6001600160a01b0381166000908152600383016020526040902080546000190190555b6001600160a01b03861615611c32576001600160a01b03861660009081526003830160205260409020805460010190555b600085815260028301602052604080822080546001600160a01b0319166001600160a01b038a811691821790925591518893918516917fddf252ad1be2c89b69c2b068fc378daa952ba7f163c4a11628f55a4df523b3ef91a49150505b9392505050565b600033611ca16114f1565b6001600160a01b03161492915050565b611cbb8282611e49565b6040518281527ff8e1a15aba9398e019f0b49df1a4fde98ee17ae345cb5f6b5e2c27f5033e8ce7906020015b60405180910390a15050565b60008181527f935e9bcbc0809e5814f39d3828d0a7f7b9174743a7e081e81a47c083b0f4a4006020818152604092839020805460ff19166001179055915183815290917fac945975bbb513fba0438da6803b4f7df072942e1de756857eadd223afe92b9d9101611ce7565b60405163348051d760e11b815260048101829052606090650f043a00000690636900a3ae906024015b600060405180830381865afa158015611da4573d6000803e3d6000fd5b505050506040513d6000823e601f3d908101601f191682016040526109a49190810190615240565b604051633691975d60e21b8152606090650f043a0000039063da465d7490611dfc90879087908790600401615288565b600060405180830381865afa158015611e19573d6000803e3d6000fd5b505050506040513d6000823e601f3d908101601f19168201604052611e419190810190615240565b949350505050565b6109bc828261359c565b6000611e5d611b69565b90506000611ef6826003018054611e7390614f9b565b80601f0160208091040260200160405190810160405280929190818152602001828054611e9f90614f9b565b8015611eec5780601f10611ec157610100808354040283529160200191611eec565b820191906000526020600020905b815481529060010190602001808311611ecf57829003601f168201915b50505050506135fa565b90506000611f0885846001015461362c565b905080836006016000868152602001908152602001600020819055506000611f4c83604051806040016040528060048152602001636e616d6560e01b81525061329d565b611f5586611d5e565b604051602001611f669291906152cb565b60408051601f1981840301815282820190915260048252636e616d6560e01b60208301529150611f9890849083611dcc565b9250611fa48584611cb1565b610fe58686613826565b6000611fb984612447565b90506000611fc684613840565b90506000611fd4838361388b565b9050801561200c5761200583836040518060400160405280600581526020016476616c756560d81b815250876138fa565b925061217f565b6040805180820182526002808252617b7d60f01b60208301528251818152606081019093529091600091816020015b606081526020019060019003908161203b5790505090506040518060400160405280600a81526020016974726169745f7479706560b01b8152508160008151811061208857612088614fd5565b60200260200101819052506040518060400160405280600581526020016476616c756560d81b815250816001815181106120c4576120c4614fd5565b602090810291909101015260408051600280825260608201909252600091816020015b60608152602001906001900390816120e7579050509050878160008151811061211257612112614fd5565b6020026020010181905250868160018151811061213157612131614fd5565b6020026020010181905250612147838383613971565b9250612179866040518060400160405280600d81526020016c617474726962757465732e2d3160981b815250856139a1565b95505050505b610fe58684611cb1565b306001600160a01b037f000000000000000000000000000000000000000000000000000000000000000016148061221057507f00000000000000000000000000000000000000000000000000000000000000006001600160a01b031661220460008051602061569f833981519152546001600160a01b031690565b6001600160a01b031614155b156114365760405163703e46dd60e11b815260040160405180910390fd5b6113c961196f565b816001600160a01b03166352d1902d6040518163ffffffff1660e01b8152600401602060405180830381865afa925050508015612290575060408051601f3d908101601f1916820190925261228d91810190615308565b60015b6122af5781604051634c9c8ce360e01b8152600401610c4b919061428d565b60008051602061569f83398151915281146122e057604051632a87526960e21b815260048101829052602401610c4b565b610e1583836139d1565b60006109a482613a27565b306001600160a01b037f000000000000000000000000000000000000000000000000000000000000000016146114365760405163703e46dd60e11b815260040160405180910390fd5b7fdaedc9ab023613a7caf35e703657e986ccfad7e3eb0af93a2853f8d65dd86b006127106001600160601b0383168110156123a55760405163dfd1fc1b60e01b8152600481018690526001600160601b038416602482015260448101829052606401610c4b565b6001600160a01b0384166123d657604051634b4f842960e11b81526004810186905260006024820152604401610c4b565b506040805180820182526001600160a01b0394851681526001600160601b03938416602080830191825260009788526001909401909352942093519051909116600160a01b029116179055565b600061242e84612447565b905061243b818484611dcc565b9050610caf8482611cb1565b60606109a482613270565b60408051808201825260148152737b22636f6c6c61626f7261746f7273223a5b5d7d60601b60208201528151600480825260a0820190935260609260009190816020015b6060815260200190600190039081612496579050509050604051806040016040528060048152602001636e616d6560e01b815250816000815181106124dd576124dd614fd5565b60200260200101819052506040518060400160405280600b81526020016a3232b9b1b934b83a34b7b760a91b8152508160018151811061251f5761251f614fd5565b602002602001018190525060405180604001604052806005815260200164696d61676560d81b8152508160028151811061255b5761255b614fd5565b60200260200101819052506040518060400160405280600d81526020016c65787465726e616c5f6c696e6b60981b8152508160038151811061259f5761259f614fd5565b602090810291909101015260408051600480825260a08201909252600091816020015b60608152602001906001900390816125c25790505090508460000151816000815181106125f1576125f1614fd5565b602002602001018190525084602001518160018151811061261457612614614fd5565b602002602001018190525084604001518160028151811061263757612637614fd5565b602002602001018190525084606001518160038151811061265a5761265a614fd5565b6020026020010181905250612670838383613971565b925060005b8560800151518160ff1610156126ec576126d8846040518060400160405280601081526020016f636f6c6c61626f7261746f72732e2d3160801b81525088608001518460ff16815181106126cb576126cb614fd5565b6020026020010151611dcc565b9350806126e481615321565b915050612675565b5091949350505050565b6126fe612813565b61271b57604051639f7f092560e01b815260040160405180910390fd5b7f985371f50cecfcb1a6dfdccb4c871d7a5d94b17a9d368860b42eaca20a68bf00805460ff161561275f576040516350a3adc960e01b815260040160405180910390fd5b6127897f841f636c3ae717f882adaf710a5db29ca95821d91f8d637d2b614cbcb320c70083613a91565b506040517fa5d4097edda6d87cb9329af83fb3712ef77eeb13738ffe43cc35a4ce305ad96290600090a15050565b7f80bb2b638cc20bc4d0a60d66940f3ab4a00c1d7b313497ca82fb0b4ab007930090565b7f237e158222e3e6968b72b9db0d8043aacf074ad9f650f0d1606b4d82ee432c0080546001600160a01b03191681556109bc82613ade565b60003361281e6114f1565b6001600160a01b031614905090565b600061283884612447565b9050600061284584613840565b90506000612853838361388b565b905080156128845761200583836040518060400160405280600581526020016476616c756560d81b81525087613b4f565b60006128cd604051806040016040528060028152602001617b7d60f01b8152506040518060400160405280600a81526020016974726169745f7479706560b01b81525088611dcc565b90506128f7816040518060400160405280600581526020016476616c756560d81b81525087613b81565b9050612929846040518060400160405280600d81526020016c617474726962757465732e2d3160981b815250836139a1565b935050610fe58684611cb1565b60006129406127b7565b90506001600160a01b03831661296b5782604051630b61174360e31b8152600401610c4b919061428d565b6001600160a01b038481166000818152600584016020908152604080832094881680845294825291829020805460ff191687151590811790915591519182527f17307eab39ab6107e8899845ad3d59bd9653f200f220920489ca2b5937696c31910160405180910390a350505050565b6001600160a01b0383163b15610caf57604051630a85bd0160e11b81526001600160a01b0384169063150b7a0290612a1d903390889087908790600401615340565b6020604051808303816000875af1925050508015612a58575060408051601f3d908101601f19168201909252612a5591810190615373565b60015b612ab8573d808015612a86576040519150601f19603f3d011682016040523d82523d6000602084013e612a8b565b606091505b508051600003612ab05783604051633250574960e11b8152600401610c4b919061428d565b805181602001fd5b6001600160e01b03198116630a85bd0160e11b1461113a5783604051633250574960e11b8152600401610c4b919061428d565b6000612af684612447565b90506000612b0384613840565b90506000612b11838361388b565b90508015612b425761200583836040518060400160405280600581526020016476616c756560d81b81525087613bb1565b6000612b8b604051806040016040528060028152602001617b7d60f01b8152506040518060400160405280600a81526020016974726169745f7479706560b01b81525088611dcc565b90506128f7816040518060400160405280600581526020016476616c756560d81b81525087613be3565b60408051808201825260118152707b2261747472696275746573223a5b5d7d60781b60208201528151600580825260c0820190935260609260009190816020015b6060815260200190600190039081612bf6579050509050604051806040016040528060048152602001636e616d6560e01b81525081600081518110612c3d57612c3d614fd5565b60200260200101819052506040518060400160405280600b81526020016a3232b9b1b934b83a34b7b760a91b81525081600181518110612c7f57612c7f614fd5565b602002602001018190525060405180604001604052806005815260200164696d61676560d81b81525081600281518110612cbb57612cbb614fd5565b60200260200101819052506040518060400160405280600c81526020016b195e1d195c9b985b17dd5c9b60a21b81525081600381518110612cfe57612cfe614fd5565b60200260200101819052506040518060400160405280600d81526020016c185b9a5b585d1a5bdb97dd5c9b609a1b81525081600481518110612d4257612d42614fd5565b602090810291909101015260408051600580825260c08201909252600091816020015b6060815260200190600190039081612d65579050509050846000015181600081518110612d9457612d94614fd5565b6020026020010181905250846020015181600181518110612db757612db7614fd5565b6020026020010181905250846040015181600281518110612dda57612dda614fd5565b6020026020010181905250846060015181600381518110612dfd57612dfd614fd5565b6020026020010181905250846080015181600481518110612e2057612e20614fd5565b6020026020010181905250612e36838383613971565b925060005b8560a00151518160ff1610156126ec57612ea3846040518060400160405280600d81526020016c617474726962757465732e2d3160981b815250612e9e8960a001518560ff1681518110612e9157612e91614fd5565b6020026020010151613c13565b6139a1565b935080612eaf81615321565b915050612e3b565b6000612ec284612447565b90506000612ecf84613840565b90506000612edd838361388b565b90508015612f0e5761200583836040518060400160405280600581526020016476616c756560d81b81525087613d9f565b6000612f57604051806040016040528060028152602001617b7d60f01b8152506040518060400160405280600a81526020016974726169745f7479706560b01b81525088611dcc565b90506128f7816040518060400160405280600581526020016476616c756560d81b81525087613dd1565b6060612f8c82613e01565b612fc75760405162461bcd60e51b815260206004820152600c60248201526b24b73b30b634b2102529a7a760a11b6044820152606401610c4b565b6000612fd283613e2d565b9050611c8f81613e59565b604051639ed19ddb60e01b815260048101829052606090650f043a00000790639ed19ddb90602401611d87565b606060006130516040518060a001604052808560000151815260200185602001518152602001856040015181526020018560a0015181526020018560c00151815250612452565b6040805160028082526060820190925291925060009190816020015b606081526020019060019003908161306d5790505090506040518060400160405280600c81526020016b62616e6e65725f696d61676560a01b815250816000815181106130bc576130bc614fd5565b60200260200101819052506040518060400160405280600e81526020016d66656174757265645f696d61676560901b8152508160018151811061310157613101614fd5565b602090810291909101015260408051600280825260608201909252600091816020015b606081526020019060019003908161312457905050905084606001518160008151811061315357613153614fd5565b602002602001018190525084608001518160018151811061317657613176614fd5565b602002602001018190525061318c838383613971565b95945050505050565b60006131a083612447565b905060006131b18360000151613840565b905060006131bf838361388b565b905080156131fb576131f483836040518060400160405280600581526020016476616c756560d81b81525087602001516138fa565b9250613231565b61322e836040518060400160405280600d81526020016c617474726962757465732e2d3160981b815250612e9e87613c13565b92505b61113a8584611cb1565b60006001600160e01b0319821663152a902d60e11b14806109a457506301ffc9a760e01b6001600160e01b03198316146109a4565b60405163023aa9ab60e61b815260048101829052606090650f043a00000790638eaa6ac090602401611d87565b604051633e10510b60e01b8152606090650f043a00000390633e10510b906132cb9086908690600401615390565b600060405180830381865afa1580156132e8573d6000803e3d6000fd5b505050506040513d6000823e601f3d908101601f19168201604052611c8f9190810190615240565b60008061331b6127b7565b6000938452600201602052505060409020546001600160a01b031690565b60006133436127b7565b9050818061335957506001600160a01b03831615155b1561341257600061336985611ab4565b90506001600160a01b038416158015906133955750836001600160a01b0316816001600160a01b031614155b80156133a857506133a68185611822565b155b156133c8578360405163a9fbf51f60e01b8152600401610c4b919061428d565b82156134105784866001600160a01b0316826001600160a01b03167f8c5be1e5ebec7d5bd14f71427d1e84f3dd0314c0f7b2291e5b200ac8c7c3b92560405160405180910390a45b505b600093845260040160205250506040902080546001600160a01b0319166001600160a01b0392909216919091179055565b7ff0c57e16840df040f15088dc2f81fe391c3923bec73e23a9662efc9c229c6a0054600160401b900460ff1661143657604051631afcd79f60e31b815260040160405180910390fd5b613494613443565b600061349e6127b7565b9050806134ab8482615151565b5060018101610caf8382615151565b6134c2613443565b6001600160a01b03811661146b576000604051631e4fbdf760e01b8152600401610c4b919061428d565b6134f4613443565b6113c96113c4604051806040016040528060028152602001617b7d60f01b815250604051806040016040528060048152602001636e616d6560e01b81525084611dcc565b613543838383613e85565b610e15576001600160a01b03831661357157604051637e27328960e01b815260048101829052602401610c4b565b60405163177e802f60e01b81526001600160a01b038316600482015260248101829052604401610c4b565b60008281527f935e9bcbc0809e5814f39d3828d0a7f7b9174743a7e081e81a47c083b0f4a4006020526040902054829060ff16156135f05760405163deb7c63d60e01b815260048101829052602401610c4b565b610e158383613eea565b606081516000036136235750506040805180820190915260028152617b7d60f01b602082015290565b6109a482613ef4565b600080613637611b69565b6005810154909150600090815b8181101561373857600084600501828154811061366357613663614fd5565b6000918252602091829020604080518082018252600290930290910180546001600160a01b031680845260019091015493830184905290516331a9108f60e11b8152919350918291636352211e916136c19160040190815260200190565b602060405180830381865afa9250505080156136fa575060408051601f3d908101601f191682019092526136f7918101906153b5565b60015b613705575050613730565b896001600160a01b0316816001600160a01b03160361372c578561372881615031565b9650505b5050505b600101613644565b5060506000821561375b578261374e8386614f5a565b6137589190614f87565b90505b8454604051600091899161379f91429144918e91602001938452602084019290925260601b6bffffffffffffffffffffffff19166040830152605482015260740190565b6040516020818303038152906040528051906020012060001c6137c291906153d2565b6137cd9060016153e6565b9050600181111561381a5760006137e56001836153f9565b9050600060646137f58584614f5a565b6137ff9190614f87565b905061380b81846153f9565b985050505050505050506109a4565b98975050505050505050565b6109bc828260405180602001604052806000815250613f20565b60606109a46040518060600160405280602881526020016156bf602891396040518060400160405280600c81526020016b1d3a3930b4ba2fba3cb8329d60a11b815250846001613f37565b604051630995955360e21b8152600090650f043a00000390632656554c906138b99086908690600401615390565b602060405180830381865afa1580156138d6573d6000803e3d6000fd5b505050506040513d601f19601f82011682018060405250810190611c8f919061540c565b604051636d9401ad60e11b8152606090650f043a0000039063db28035a9061392c908890889088908890600401615429565b600060405180830381865afa158015613949573d6000803e3d6000fd5b505050506040513d6000823e601f3d908101601f1916820160405261318c9190810190615240565b6040516328d694bb60e21b8152606090650f043a0000039063a35a52ec90611dfc908790879087906004016154db565b6040516309793f3560e41b8152606090650f043a00000390639793f35090611dfc90879087908790600401615288565b6139da82613f69565b6040516001600160a01b038316907fbc7cd75a20ee27fd9adebab32041f755214dbc6bffa90cc0225b39da2e5c2d3b90600090a2805115613a1f57610e158282613fc5565b6109bc614032565b604051630e29a66960e21b815260048101829052600090650f043a000007906338a699a4906024015b602060405180830381865afa158015613a6d573d6000803e3d6000fd5b505050506040513d601f19601f820116820180604052508101906109a4919061540c565b60405163b480003360e01b8152600090650f043a0000079063b480003390613abf9086908690600401615514565b6020604051808303816000875af11580156138d6573d6000803e3d6000fd5b7f9016d09d72d40fdae2fd8ceac6b6234c7706214fd39c1cd1e609a0528c19930080546001600160a01b031981166001600160a01b03848116918217845560405192169182907f8be0079c531659141344cd1fd0a4f28419497f9722a3daafe3b4186f6b6457e090600090a3505050565b60405163dc782e3760e01b8152606090650f043a0000039063dc782e379061392c90889088908890889060040161552d565b60405163f057bd1760e01b8152606090650f043a0000039063f057bd1790611dfc9087908790879060040161557a565b60405163d37ee64160e01b8152606090650f043a0000039063d37ee6419061392c9088908890889088906004016155b2565b6040516315ad12cb60e21b8152606090650f043a000003906356b44b2c90611dfc908790879087906004016155fd565b6040805180820182526002808252617b7d60f01b602083015282518181526060818101909452600091816020015b6060815260200190600190039081613c415790505090506040518060400160405280600a81526020016974726169745f7479706560b01b81525081600081518110613c8e57613c8e614fd5565b60200260200101819052506040518060400160405280600581526020016476616c756560d81b81525081600181518110613cca57613cca614fd5565b602090810291909101015260408051600280825260608201909252600091816020015b6060815260200190600190039081613ced579050509050846000015181600081518110613d1c57613d1c614fd5565b6020026020010181905250846020015181600181518110613d3f57613d3f614fd5565b6020026020010181905250613d55838383613971565b60408601515190935015613d965761318c836040518060400160405280600c81526020016b646973706c61795f7479706560a01b8152508760400151611dcc565b50909392505050565b60405163111dac0d60e01b8152606090650f043a0000039063111dac0d9061392c9088908890889088906004016155b2565b6040516379c243d360e11b8152606090650f043a0000039063f38487a690611dfc908790879087906004016155fd565b60405163d182b83b60e01b8152600090650f043a0000039063d182b83b90613a50908590600401614261565b60405163c4659a8d60e01b8152606090650f043a0000039063c4659a8d90611d87908590600401614261565b604051637e2224bd60e01b8152606090650f043a00000290637e2224bd90611d87908590600401614261565b60006001600160a01b03831615801590611e415750826001600160a01b0316846001600160a01b03161480613ebf5750613ebf8484611822565b80611e415750826001600160a01b0316613ed883611aec565b6001600160a01b031614949350505050565b610e158282613a91565b604051635cd3f3a160e01b8152606090650f043a00000290635cd3f3a190611d87908590600401614261565b613f2a8383614051565b610e1560008484846129db565b60405163caeac0a960e01b8152606090650f043a0000059063caeac0a99061392c908890889088908890600401615633565b806001600160a01b03163b600003613f965780604051634c9c8ce360e01b8152600401610c4b919061428d565b60008051602061569f83398151915280546001600160a01b0319166001600160a01b0392909216919091179055565b6060600080846001600160a01b031684604051613fe29190615682565b600060405180830381855af49150503d806000811461401d576040519150601f19603f3d011682016040523d82523d6000602084013e614022565b606091505b509150915061318c8583836140b6565b34156114365760405163b398979f60e01b815260040160405180910390fd5b6001600160a01b03821661407b576000604051633250574960e11b8152600401610c4b919061428d565b600061408983836000611b8d565b90506001600160a01b03811615610e155760006040516339e3563760e11b8152600401610c4b919061428d565b6060826140cb576140c682614109565b611c8f565b81511580156140e257506001600160a01b0384163b155b156141025783604051639996b31560e01b8152600401610c4b919061428d565b5080611c8f565b8051156141195780518082602001fd5b604051630a12f52160e11b815260040160405180910390fd5b50805460008255600202906000526020600020908101906113c991905b808211156141745780546001600160a01b03191681556000600182015560020161414f565b5090565b6001600160e01b0319811681146113c957600080fd5b6000602082840312156141a057600080fd5b8135611c8f81614178565b6001600160a01b03811681146113c957600080fd5b80356001600160601b03811681146141d757600080fd5b919050565b600080604083850312156141ef57600080fd5b82356141fa816141ab565b9150614208602084016141c0565b90509250929050565b60005b8381101561422c578181015183820152602001614214565b50506000910152565b6000815180845261424d816020860160208601614211565b601f01601f19169290920160200192915050565b602081526000611c8f6020830184614235565b60006020828403121561428657600080fd5b5035919050565b6001600160a01b0391909116815260200190565b600080604083850312156142b457600080fd5b82356142bf816141ab565b946020939093013593505050565b60008083601f8401126142df57600080fd5b5081356001600160401b038111156142f657600080fd5b602083019150836020828501011115610dda57600080fd5b60008060008060008060008060c0898b03121561432a57600080fd5b88356001600160401b038082111561434157600080fd5b61434d8c838d016142cd565b909a50985060208b013591508082111561436657600080fd5b506143738b828c016142cd565b90975095505060408901359350606089013561438e816141ab565b9250608089013561439e816141ab565b91506143ac60a08a016141c0565b90509295985092959890939650565b6000806000606084860312156143d057600080fd5b83356143db816141ab565b925060208401356143eb816141ab565b929592945050506040919091013590565b60006020828403121561440e57600080fd5b8135611c8f816141ab565b6000806040838503121561442c57600080fd5b50508035926020909101359150565b634e487b7160e01b600052604160045260246000fd5b60405160a081016001600160401b03811182821017156144735761447361443b565b60405290565b60405160c081016001600160401b03811182821017156144735761447361443b565b60405160e081016001600160401b03811182821017156144735761447361443b565b604051601f8201601f191681016001600160401b03811182821017156144e5576144e561443b565b604052919050565b60006001600160401b038211156145065761450661443b565b50601f01601f191660200190565b600082601f83011261452557600080fd5b8135614538614533826144ed565b6144bd565b81815284602083860101111561454d57600080fd5b816020850160208301376000918101602001919091529392505050565b6000806040838503121561457d57600080fd5b8235915060208301356001600160401b0381111561459a57600080fd5b6145a685828601614514565b9150509250929050565b60008083601f8401126145c257600080fd5b5081356001600160401b038111156145d957600080fd5b6020830191508360208260051b8501011115610dda57600080fd5b6000806000806040858703121561460a57600080fd5b84356001600160401b038082111561462157600080fd5b61462d888389016145b0565b9096509450602087013591508082111561464657600080fd5b50614653878288016145b0565b95989497509550505050565b60008060006060848603121561467457600080fd5b8335925060208401356001600160401b038082111561469257600080fd5b61469e87838801614514565b935060408601359150808211156146b457600080fd5b506146c186828701614514565b9150509250925092565b600080604083850312156146de57600080fd5b82356146e9816141ab565b915060208301356001600160401b0381111561459a57600080fd5b60008060006060848603121561471957600080fd5b83359250602084013561472b816141ab565b9150614739604085016141c0565b90509250925092565b6000806020838503121561475557600080fd5b82356001600160401b0381111561476b57600080fd5b614777858286016142cd565b90969095509350505050565b60006001600160401b0382111561479c5761479c61443b565b5060051b60200190565b600082601f8301126147b757600080fd5b813560206147c761453383614783565b82815260059290921b840181019181810190868411156147e657600080fd5b8286015b848110156148255780356001600160401b038111156148095760008081fd5b6148178986838b0101614514565b8452509183019183016147ea565b509695505050505050565b60006020828403121561484257600080fd5b81356001600160401b038082111561485957600080fd5b9083019060a0828603121561486d57600080fd5b614875614451565b82358281111561488457600080fd5b61489087828601614514565b8252506020830135828111156148a557600080fd5b6148b187828601614514565b6020830152506040830135828111156148c957600080fd5b6148d587828601614514565b6040830152506060830135828111156148ed57600080fd5b6148f987828601614514565b60608301525060808301358281111561491157600080fd5b61491d878286016147a6565b60808301525095945050505050565b80151581146113c957600080fd5b60008060006060848603121561494f57600080fd5b8335925060208401356001600160401b0381111561496c57600080fd5b61497886828701614514565b92505060408401356149898161492c565b809150509250925092565b600080604083850312156149a757600080fd5b82356149b2816141ab565b915060208301356149c28161492c565b809150509250929050565b600080600080608085870312156149e357600080fd5b84356149ee816141ab565b935060208501356149fe816141ab565b92506040850135915060608501356001600160401b03811115614a2057600080fd5b614a2c87828801614514565b91505092959194509250565b600080600060608486031215614a4d57600080fd5b8335925060208401356001600160401b03811115614a6a57600080fd5b614a7686828701614514565b925050604084013590509250925092565b600060208284031215614a9957600080fd5b81356001600160401b0380821115614ab057600080fd5b9083019060208286031215614ac457600080fd5b604051602081018181108382111715614adf57614adf61443b565b604052823582811115614af157600080fd5b614afd87828601614514565b82525095945050505050565b600060608284031215614b1b57600080fd5b604051606081016001600160401b038282108183111715614b3e57614b3e61443b565b816040528293508435915080821115614b5657600080fd5b614b6286838701614514565b83526020850135915080821115614b7857600080fd5b614b8486838701614514565b60208401526040850135915080821115614b9d57600080fd5b50614baa85828601614514565b6040830152505092915050565b600082601f830112614bc857600080fd5b81356020614bd861453383614783565b82815260059290921b84018101918181019086841115614bf757600080fd5b8286015b848110156148255780356001600160401b03811115614c1a5760008081fd5b614c288986838b0101614b09565b845250918301918301614bfb565b60008060408385031215614c4957600080fd5b8235915060208301356001600160401b0380821115614c6757600080fd5b9084019060c08287031215614c7b57600080fd5b614c83614479565b823582811115614c9257600080fd5b614c9e88828601614514565b825250602083013582811115614cb357600080fd5b614cbf88828601614514565b602083015250604083013582811115614cd757600080fd5b614ce388828601614514565b604083015250606083013582811115614cfb57600080fd5b614d0788828601614514565b606083015250608083013582811115614d1f57600080fd5b614d2b88828601614514565b60808301525060a083013582811115614d4357600080fd5b614d4f88828601614bb7565b60a0830152508093505050509250929050565b60008060408385031215614d7557600080fd5b8235614d80816141ab565b915060208301356149c2816141ab565b600060208284031215614da257600080fd5b81356001600160401b0380821115614db957600080fd5b9083019060e08286031215614dcd57600080fd5b614dd561449b565b823582811115614de457600080fd5b614df087828601614514565b825250602083013582811115614e0557600080fd5b614e1187828601614514565b602083015250604083013582811115614e2957600080fd5b614e3587828601614514565b604083015250606083013582811115614e4d57600080fd5b614e5987828601614514565b606083015250608083013582811115614e7157600080fd5b614e7d87828601614514565b60808301525060a083013582811115614e9557600080fd5b614ea187828601614514565b60a08301525060c083013582811115614eb957600080fd5b614ec5878286016147a6565b60c08301525095945050505050565b60008060408385031215614ee757600080fd5b8235915060208301356001600160401b03811115614f0457600080fd5b6145a685828601614b09565b600060208284031215614f2257600080fd5b81356001600160401b03811115614f3857600080fd5b611e4184828501614514565b634e487b7160e01b600052601160045260246000fd5b80820281158282048414176109a4576109a4614f44565b634e487b7160e01b600052601260045260246000fd5b600082614f9657614f96614f71565b500490565b600181811c90821680614faf57607f821691505b602082108103614fcf57634e487b7160e01b600052602260045260246000fd5b50919050565b634e487b7160e01b600052603260045260246000fd5b6000808335601e1984360301811261500257600080fd5b8301803591506001600160401b0382111561501c57600080fd5b602001915036819003821315610dda57600080fd5b60006001820161504357615043614f44565b5060010190565b601f821115610e15576000816000526020600020601f850160051c810160208610156150735750805b601f850160051c820191505b81811015610fe55782815560010161507f565b6001600160401b038311156150a9576150a961443b565b6150bd836150b78354614f9b565b8361504a565b6000601f8411600181146150f157600085156150d95750838201355b600019600387901b1c1916600186901b17835561113a565b600083815260209020601f19861690835b828110156151225786850135825560209485019460019092019101615102565b508682101561513f5760001960f88860031b161c19848701351681555b505060018560011b0183555050505050565b81516001600160401b0381111561516a5761516a61443b565b61517e816151788454614f9b565b8461504a565b602080601f8311600181146151b3576000841561519b5750858301515b600019600386901b1c1916600185901b178555610fe5565b600085815260208120601f198616915b828110156151e2578886015182559484019460019091019084016151c3565b50858210156152005787850151600019600388901b60f8161c191681555b5050505050600190811b01905550565b600061521e614533846144ed565b905082815283838301111561523257600080fd5b611c8f836020830184614211565b60006020828403121561525257600080fd5b81516001600160401b0381111561526857600080fd5b8201601f8101841361527957600080fd5b611e4184825160208401615210565b60608152600061529b6060830186614235565b82810360208401526152ad8186614235565b905082810360408401526152c18185614235565b9695505050505050565b600083516152dd818460208801614211565b61202360f01b90830190815283516152fc816002840160208801614211565b01600201949350505050565b60006020828403121561531a57600080fd5b5051919050565b600060ff821660ff810361533757615337614f44565b60010192915050565b6001600160a01b03858116825284166020820152604081018390526080606082018190526000906152c190830184614235565b60006020828403121561538557600080fd5b8151611c8f81614178565b6040815260006153a36040830185614235565b828103602084015261318c8185614235565b6000602082840312156153c757600080fd5b8151611c8f816141ab565b6000826153e1576153e1614f71565b500690565b808201808211156109a4576109a4614f44565b818103818111156109a4576109a4614f44565b60006020828403121561541e57600080fd5b8151611c8f8161492c565b60808152600061543c6080830187614235565b828103602084015261544e8187614235565b905082810360408401526154628186614235565b905082810360608401526154768185614235565b979650505050505050565b60008282518085526020808601955060208260051b8401016020860160005b848110156154ce57601f198684030189526154bc838351614235565b988401989250908301906001016154a0565b5090979650505050505050565b6060815260006154ee6060830186614235565b82810360208401526155008186615481565b905082810360408401526152c18185615481565b828152604060208201526000611e416040830184614235565b6080815260006155406080830187614235565b82810360208401526155528187614235565b905082810360408401526155668186614235565b915050821515606083015295945050505050565b60608152600061558d6060830186614235565b828103602084015261559f8186614235565b9150508215156040830152949350505050565b6080815260006155c56080830187614235565b82810360208401526155d78187614235565b905082810360408401526155eb8186614235565b91505082606083015295945050505050565b6060815260006156106060830186614235565b82810360208401526156228186614235565b915050826040830152949350505050565b6080815260006156466080830187614235565b82810360208401526156588187614235565b9050828103604084015261566c8186614235565b91505061ffff8316606083015295945050505050565b60008251615694818460208701614211565b919091019291505056fe360894a13ba1a3210667c828492db98dca3e2076cc3735a920a3ca505d382bbc617474726962757465732e232874726169745f747970653d3d223a74726169745f747970653a2229a264697066735822122017f32e07f22bb757bde17bc79e7831ddc3794f29de810df581fd39482dfb9d5e64736f6c63430008180033",
  "linkReferences": {},
  "deployedLinkReferences": {}
}