{
  "_format": "hh-sol-artifact-1",
  "contractName": "GenerativeERC721Upgradeable",
  "sourceName": "contracts/GenerativeERC721Upgradeable.sol",
  "abi": [
    {
      "inputs": [],
      "stateMutability": "nonpayable",
      "type": "constructor"
    },
    {
      "inputs": [
        {
          "internalType": "address",
          "name": "target",
          "type": "address"
        }
      ],
      "name": "AddressEmptyCode",
      "type": "error"
    },
    {
      "inputs": [],
      "name": "ContractMetadataCemented",
      "type": "error"
    },
    {
      "inputs": [],
      "name": "ContractMetadataUnauthorized",
      "type": "error"
    },
    {
      "inputs": [
        {
          "internalType": "address",
          "name": "implementation",
          "type": "address"
        }
      ],
      "name": "ERC1967InvalidImplementation",
      "type": "error"
    },
    {
      "inputs": [],
      "name": "ERC1967NonPayable",
      "type": "error"
    },
    {
      "inputs": [
        {
          "internalType": "uint256",
          "name": "numerator",
          "type": "uint256"
        },
        {
          "internalType": "uint256",
          "name": "denominator",
          "type": "uint256"
        }
      ],
      "name": "ERC2981InvalidDefaultRoyalty",
      "type": "error"
    },
    {
      "inputs": [
        {
          "internalType": "address",
          "name": "receiver",
          "type": "address"
        }
      ],
      "name": "ERC2981InvalidDefaultRoyaltyReceiver",
      "type": "error"
    },
    {
      "inputs": [
        {
          "internalType": "uint256",
          "name": "tokenId",
          "type": "uint256"
        },
        {
          "internalType": "uint256",
          "name": "numerator",
          "type": "uint256"
        },
        {
          "internalType": "uint256",
          "name": "denominator",
          "type": "uint256"
        }
      ],
      "name": "ERC2981InvalidTokenRoyalty",
      "type": "error"
    },
    {
      "inputs": [
        {
          "internalType": "uint256",
          "name": "tokenId",
          "type": "uint256"
        },
        {
          "internalType": "address",
          "name": "receiver",
          "type": "address"
        }
      ],
      "name": "ERC2981InvalidTokenRoyaltyReceiver",
      "type": "error"
    },
    {
      "inputs": [
        {
          "internalType": "address",
          "name": "sender",
          "type": "address"
        },
        {
          "internalType": "uint256",
          "name": "tokenId",
          "type": "uint256"
        },
        {
          "internalType": "address",
          "name": "owner",
          "type": "address"
        }
      ],
      "name": "ERC721IncorrectOwner",
      "type": "error"
    },
    {
      "inputs": [
        {
          "internalType": "address",
          "name": "operator",
          "type": "address"
        },
        {
          "internalType": "uint256",
          "name": "tokenId",
          "type": "uint256"
        }
      ],
      "name": "ERC721InsufficientApproval",
      "type": "error"
    },
    {
      "inputs": [
        {
          "internalType": "address",
          "name": "approver",
          "type": "address"
        }
      ],
      "name": "ERC721InvalidApprover",
      "type": "error"
    },
    {
      "inputs": [
        {
          "internalType": "address",
          "name": "operator",
          "type": "address"
        }
      ],
      "name": "ERC721InvalidOperator",
      "type": "error"
    },
    {
      "inputs": [
        {
          "internalType": "address",
          "name": "owner",
          "type": "address"
        }
      ],
      "name": "ERC721InvalidOwner",
      "type": "error"
    },
    {
      "inputs": [
        {
          "internalType": "address",
          "name": "receiver",
          "type": "address"
        }
      ],
      "name": "ERC721InvalidReceiver",
      "type": "error"
    },
    {
      "inputs": [
        {
          "internalType": "address",
          "name": "sender",
          "type": "address"
        }
      ],
      "name": "ERC721InvalidSender",
      "type": "error"
    },
    {
      "inputs": [
        {
          "internalType": "uint256",
          "name": "tokenId",
          "type": "uint256"
        }
      ],
      "name": "ERC721NonexistentToken",
      "type": "error"
    },
    {
      "inputs": [],
      "name": "FailedInnerCall",
      "type": "error"
    },
    {
      "inputs": [],
      "name": "InvalidInitialization",
      "type": "error"
    },
    {
      "inputs": [],
      "name": "NotInitializing",
      "type": "error"
    },
    {
      "inputs": [
        {
          "internalType": "address",
          "name": "owner",
          "type": "address"
        }
      ],
      "name": "OwnableInvalidOwner",
      "type": "error"
    },
    {
      "inputs": [
        {
          "internalType": "address",
          "name": "account",
          "type": "address"
        }
      ],
      "name": "OwnableUnauthorizedAccount",
      "type": "error"
    },
    {
      "inputs": [
        {
          "internalType": "uint256",
          "name": "_tokenId",
          "type": "uint256"
        }
      ],
      "name": "TokenMetadataCemented",
      "type": "error"
    },
    {
      "inputs": [
        {
          "internalType": "uint256",
          "name": "_tokenId",
          "type": "uint256"
        }
      ],
      "name": "TokenMetadataImmutable",
      "type": "error"
    },
    {
      "inputs": [
        {
          "internalType": "uint256",
          "name": "_tokenId",
          "type": "uint256"
        }
      ],
      "name": "TokenMetadataUnauthorized",
      "type": "error"
    },
    {
      "inputs": [],
      "name": "UUPSUnauthorizedCallContext",
      "type": "error"
    },
    {
      "inputs": [
        {
          "internalType": "bytes32",
          "name": "slot",
          "type": "bytes32"
        }
      ],
      "name": "UUPSUnsupportedProxiableUUID",
      "type": "error"
    },
    {
      "anonymous": false,
      "inputs": [
        {
          "indexed": true,
          "internalType": "address",
          "name": "owner",
          "type": "address"
        },
        {
          "indexed": true,
          "internalType": "address",
          "name": "approved",
          "type": "address"
        },
        {
          "indexed": true,
          "internalType": "uint256",
          "name": "tokenId",
          "type": "uint256"
        }
      ],
      "name": "Approval",
      "type": "event"
    },
    {
      "anonymous": false,
      "inputs": [
        {
          "indexed": true,
          "internalType": "address",
          "name": "owner",
          "type": "address"
        },
        {
          "indexed": true,
          "internalType": "address",
          "name": "operator",
          "type": "address"
        },
        {
          "indexed": false,
          "internalType": "bool",
          "name": "approved",
          "type": "bool"
        }
      ],
      "name": "ApprovalForAll",
      "type": "event"
    },
    {
      "anonymous": false,
      "inputs": [],
      "name": "ContractURICemented",
      "type": "event"
    },
    {
      "anonymous": false,
      "inputs": [],
      "name": "ContractURIUpdated",
      "type": "event"
    },
    {
      "anonymous": false,
      "inputs": [
        {
          "indexed": false,
          "internalType": "uint64",
          "name": "version",
          "type": "uint64"
        }
      ],
      "name": "Initialized",
      "type": "event"
    },
    {
      "anonymous": false,
      "inputs": [
        {
          "indexed": false,
          "internalType": "uint256",
          "name": "_tokenId",
          "type": "uint256"
        }
      ],
      "name": "MetadataCemented",
      "type": "event"
    },
    {
      "anonymous": false,
      "inputs": [
        {
          "indexed": false,
          "internalType": "uint256",
          "name": "_tokenId",
          "type": "uint256"
        }
      ],
      "name": "MetadataUpdate",
      "type": "event"
    },
    {
      "anonymous": false,
      "inputs": [
        {
          "indexed": true,
          "internalType": "address",
          "name": "previousOwner",
          "type": "address"
        },
        {
          "indexed": true,
          "internalType": "address",
          "name": "newOwner",
          "type": "address"
        }
      ],
      "name": "OwnershipTransferStarted",
      "type": "event"
    },
    {
      "anonymous": false,
      "inputs": [
        {
          "indexed": true,
          "internalType": "address",
          "name": "previousOwner",
          "type": "address"
        },
        {
          "indexed": true,
          "internalType": "address",
          "name": "newOwner",
          "type": "address"
        }
      ],
      "name": "OwnershipTransferred",
      "type": "event"
    },
    {
      "anonymous": false,
      "inputs": [
        {
          "indexed": true,
          "internalType": "address",
          "name": "from",
          "type": "address"
        },
        {
          "indexed": true,
          "internalType": "address",
          "name": "to",
          "type": "address"
        },
        {
          "indexed": true,
          "internalType": "uint256",
          "name": "tokenId",
          "type": "uint256"
        }
      ],
      "name": "Transfer",
      "type": "event"
    },
    {
      "anonymous": false,
      "inputs": [
        {
          "indexed": true,
          "internalType": "address",
          "name": "implementation",
          "type": "address"
        }
      ],
      "name": "Upgraded",
      "type": "event"
    },
    {
      "inputs": [],
      "name": "PROVENANCE_HASH",
      "outputs": [
        {
          "internalType": "bytes32",
          "name": "",
          "type": "bytes32"
        }
      ],
      "stateMutability": "view",
      "type": "function"
    },
    {
      "inputs": [],
      "name": "UPGRADE_INTERFACE_VERSION",
      "outputs": [
        {
          "internalType": "string",
          "name": "",
          "type": "string"
        }
      ],
      "stateMutability": "view",
      "type": "function"
    },
    {
      "inputs": [],
      "name": "acceptOwnership",
      "outputs": [],
      "stateMutability": "nonpayable",
      "type": "function"
    },
    {
      "inputs": [
        {
          "internalType": "address",
          "name": "to",
          "type": "address"
        },
        {
          "internalType": "uint256",
          "name": "tokenId",
          "type": "uint256"
        }
      ],
      "name": "approve",
      "outputs": [],
      "stateMutability": "nonpayable",
      "type": "function"
    },
    {
      "inputs": [
        {
          "internalType": "address",
          "name": "owner",
          "type": "address"
        }
      ],
      "name": "balanceOf",
      "outputs": [
        {
          "internalType": "uint256",
          "name": "",
          "type": "uint256"
        }
      ],
      "stateMutability": "view",
      "type": "function"
    },
    {
      "inputs": [],
      "name": "cementContractMetadata",
      "outputs": [],
      "stateMutability": "nonpayable",
      "type": "function"
    },
    {
      "inputs": [
        {
          "internalType": "uint256",
          "name": "_tokenId",
          "type": "uint256"
        }
      ],
      "name": "cementTokenMetadata",
      "outputs": [],
      "stateMutability": "nonpayable",
      "type": "function"
    },
    {
      "inputs": [],
      "name": "contractURI",
      "outputs": [
        {
          "internalType": "string",
          "name": "",
          "type": "string"
        }
      ],
      "stateMutability": "view",
      "type": "function"
    },
    {
      "inputs": [],
      "name": "contractURICemented",
      "outputs": [
        {
          "internalType": "bool",
          "name": "",
          "type": "bool"
        }
      ],
      "stateMutability": "view",
      "type": "function"
    },
    {
      "inputs": [
        {
          "internalType": "uint256",
          "name": "_tokenId",
          "type": "uint256"
        }
      ],
      "name": "exists",
      "outputs": [
        {
          "internalType": "bool",
          "name": "",
          "type": "bool"
        }
      ],
      "stateMutability": "view",
      "type": "function"
    },
    {
      "inputs": [
        {
          "internalType": "uint256",
          "name": "tokenId",
          "type": "uint256"
        }
      ],
      "name": "getApproved",
      "outputs": [
        {
          "internalType": "address",
          "name": "",
          "type": "address"
        }
      ],
      "stateMutability": "view",
      "type": "function"
    },
    {
      "inputs": [
        {
          "internalType": "uint256",
          "name": "_tokenId",
          "type": "uint256"
        }
      ],
      "name": "getTokenMetadata",
      "outputs": [
        {
          "internalType": "string",
          "name": "",
          "type": "string"
        }
      ],
      "stateMutability": "view",
      "type": "function"
    },
    {
      "inputs": [
        {
          "internalType": "address",
          "name": "_minter",
          "type": "address"
        }
      ],
      "name": "grantMinter",
      "outputs": [],
      "stateMutability": "nonpayable",
      "type": "function"
    },
    {
      "inputs": [
        {
          "internalType": "string",
          "name": "_name",
          "type": "string"
        },
        {
          "internalType": "string",
          "name": "_symbol",
          "type": "string"
        },
        {
          "internalType": "uint256",
          "name": "_collectionSize",
          "type": "uint256"
        },
        {
          "internalType": "address",
          "name": "_initialOwner",
          "type": "address"
        },
        {
          "internalType": "address",
          "name": "_defaultRoyaltyReceiver",
          "type": "address"
        },
        {
          "internalType": "uint96",
          "name": "_defaultRoyaltyFeeNumerator",
          "type": "uint96"
        }
      ],
      "name": "initialize",
      "outputs": [],
      "stateMutability": "nonpayable",
      "type": "function"
    },
    {
      "inputs": [
        {
          "internalType": "address",
          "name": "owner",
          "type": "address"
        },
        {
          "internalType": "address",
          "name": "operator",
          "type": "address"
        }
      ],
      "name": "isApprovedForAll",
      "outputs": [
        {
          "internalType": "bool",
          "name": "",
          "type": "bool"
        }
      ],
      "stateMutability": "view",
      "type": "function"
    },
    {
      "inputs": [
        {
          "internalType": "address",
          "name": "_to",
          "type": "address"
        },
        {
          "internalType": "uint256",
          "name": "_amount",
          "type": "uint256"
        }
      ],
      "name": "mint",
      "outputs": [],
      "stateMutability": "nonpayable",
      "type": "function"
    },
    {
      "inputs": [],
      "name": "name",
      "outputs": [
        {
          "internalType": "string",
          "name": "",
          "type": "string"
        }
      ],
      "stateMutability": "view",
      "type": "function"
    },
    {
      "inputs": [],
      "name": "owner",
      "outputs": [
        {
          "internalType": "address",
          "name": "",
          "type": "address"
        }
      ],
      "stateMutability": "view",
      "type": "function"
    },
    {
      "inputs": [
        {
          "internalType": "uint256",
          "name": "tokenId",
          "type": "uint256"
        }
      ],
      "name": "ownerOf",
      "outputs": [
        {
          "internalType": "address",
          "name": "",
          "type": "address"
        }
      ],
      "stateMutability": "view",
      "type": "function"
    },
    {
      "inputs": [],
      "name": "pendingOwner",
      "outputs": [
        {
          "internalType": "address",
          "name": "",
          "type": "address"
        }
      ],
      "stateMutability": "view",
      "type": "function"
    },
    {
      "inputs": [],
      "name": "proxiableUUID",
      "outputs": [
        {
          "internalType": "bytes32",
          "name": "",
          "type": "bytes32"
        }
      ],
      "stateMutability": "view",
      "type": "function"
    },
    {
      "inputs": [],
      "name": "renounceMinter",
      "outputs": [],
      "stateMutability": "nonpayable",
      "type": "function"
    },
    {
      "inputs": [],
      "name": "renounceOwnership",
      "outputs": [],
      "stateMutability": "nonpayable",
      "type": "function"
    },
    {
      "inputs": [
        {
          "internalType": "uint256[]",
          "name": "_tokenIds",
          "type": "uint256[]"
        },
        {
          "internalType": "string[]",
          "name": "_metadata",
          "type": "string[]"
        }
      ],
      "name": "reveal",
      "outputs": [],
      "stateMutability": "nonpayable",
      "type": "function"
    },
    {
      "inputs": [],
      "name": "revealMetadata",
      "outputs": [
        {
          "internalType": "string",
          "name": "",
          "type": "string"
        }
      ],
      "stateMutability": "view",
      "type": "function"
    },
    {
      "inputs": [
        {
          "internalType": "address",
          "name": "_minter",
          "type": "address"
        }
      ],
      "name": "revokeMinter",
      "outputs": [],
      "stateMutability": "nonpayable",
      "type": "function"
    },
    {
      "inputs": [
        {
          "internalType": "uint256",
          "name": "tokenId",
          "type": "uint256"
        },
        {
          "internalType": "uint256",
          "name": "salePrice",
          "type": "uint256"
        }
      ],
      "name": "royaltyInfo",
      "outputs": [
        {
          "internalType": "address",
          "name": "",
          "type": "address"
        },
        {
          "internalType": "uint256",
          "name": "",
          "type": "uint256"
        }
      ],
      "stateMutability": "view",
      "type": "function"
    },
    {
      "inputs": [
        {
          "internalType": "address",
          "name": "from",
          "type": "address"
        },
        {
          "internalType": "address",
          "name": "to",
          "type": "address"
        },
        {
          "internalType": "uint256",
          "name": "tokenId",
          "type": "uint256"
        }
      ],
      "name": "safeTransferFrom",
      "outputs": [],
      "stateMutability": "nonpayable",
      "type": "function"
    },
    {
      "inputs": [
        {
          "internalType": "address",
          "name": "from",
          "type": "address"
        },
        {
          "internalType": "address",
          "name": "to",
          "type": "address"
        },
        {
          "internalType": "uint256",
          "name": "tokenId",
          "type": "uint256"
        },
        {
          "internalType": "bytes",
          "name": "data",
          "type": "bytes"
        }
      ],
      "name": "safeTransferFrom",
      "outputs": [],
      "stateMutability": "nonpayable",
      "type": "function"
    },
    {
      "inputs": [
        {
          "internalType": "address",
          "name": "operator",
          "type": "address"
        },
        {
          "internalType": "bool",
          "name": "approved",
          "type": "bool"
        }
      ],
      "name": "setApprovalForAll",
      "outputs": [],
      "stateMutability": "nonpayable",
      "type": "function"
    },
    {
      "inputs": [
        {
          "components": [
            {
              "internalType": "string",
              "name": "name",
              "type": "string"
            },
            {
              "internalType": "string",
              "name": "description",
              "type": "string"
            },
            {
              "internalType": "string",
              "name": "image",
              "type": "string"
            },
            {
              "internalType": "string",
              "name": "externalLink",
              "type": "string"
            },
            {
              "internalType": "string[]",
              "name": "collaborators",
              "type": "string[]"
            }
          ],
          "internalType": "struct StdContractMetadata",
          "name": "_data",
          "type": "tuple"
        }
      ],
      "name": "setContractMetadata",
      "outputs": [],
      "stateMutability": "nonpayable",
      "type": "function"
    },
    {
      "inputs": [
        {
          "components": [
            {
              "internalType": "string",
              "name": "name",
              "type": "string"
            }
          ],
          "internalType": "struct RequiredContractMetadata",
          "name": "_data",
          "type": "tuple"
        }
      ],
      "name": "setContractMetadata",
      "outputs": [],
      "stateMutability": "nonpayable",
      "type": "function"
    },
    {
      "inputs": [
        {
          "components": [
            {
              "internalType": "string",
              "name": "name",
              "type": "string"
            },
            {
              "internalType": "string",
              "name": "description",
              "type": "string"
            },
            {
              "internalType": "string",
              "name": "image",
              "type": "string"
            },
            {
              "internalType": "string",
              "name": "bannerImage",
              "type": "string"
            },
            {
              "internalType": "string",
              "name": "featuredImage",
              "type": "string"
            },
            {
              "internalType": "string",
              "name": "externalLink",
              "type": "string"
            },
            {
              "internalType": "string[]",
              "name": "collaborators",
              "type": "string[]"
            }
          ],
          "internalType": "struct FullContractMetadata",
          "name": "_data",
          "type": "tuple"
        }
      ],
      "name": "setContractMetadata",
      "outputs": [],
      "stateMutability": "nonpayable",
      "type": "function"
    },
    {
      "inputs": [
        {
          "internalType": "string",
          "name": "_jsonBlob",
          "type": "string"
        }
      ],
      "name": "setContractMetadataRaw",
      "outputs": [],
      "stateMutability": "nonpayable",
      "type": "function"
    },
    {
      "inputs": [
        {
          "internalType": "address",
          "name": "_receiver",
          "type": "address"
        },
        {
          "internalType": "uint96",
          "name": "_feeNumerator",
          "type": "uint96"
        }
      ],
      "name": "setDefaultRoyalty",
      "outputs": [],
      "stateMutability": "nonpayable",
      "type": "function"
    },
    {
      "inputs": [
        {
          "internalType": "address[]",
          "name": "_tokenAddresses",
          "type": "address[]"
        },
        {
          "internalType": "uint256[][]",
          "name": "_tokenIds",
          "type": "uint256[][]"
        }
      ],
      "name": "setInfluencingNFTs",
      "outputs": [],
      "stateMutability": "nonpayable",
      "type": "function"
    },
    {
      "inputs": [
        {
          "internalType": "string",
          "name": "_metadata",
          "type": "string"
        }
      ],
      "name": "setPlaceholderMetadata",
      "outputs": [],
      "stateMutability": "nonpayable",
      "type": "function"
    },
    {
      "inputs": [
        {
          "internalType": "string",
          "name": "_metadata",
          "type": "string"
        }
      ],
      "name": "setRevealPlaceholderMetadata",
      "outputs": [],
      "stateMutability": "nonpayable",
      "type": "function"
    },
    {
      "inputs": [
        {
          "internalType": "uint256",
          "name": "_tokenId",
          "type": "uint256"
        },
        {
          "internalType": "string",
          "name": "_traitType",
          "type": "string"
        },
        {
          "internalType": "string",
          "name": "_value",
          "type": "string"
        }
      ],
      "name": "setTokenAttribute",
      "outputs": [],
      "stateMutability": "nonpayable",
      "type": "function"
    },
    {
      "inputs": [
        {
          "internalType": "uint256",
          "name": "_tokenId",
          "type": "uint256"
        },
        {
          "internalType": "string",
          "name": "_traitType",
          "type": "string"
        },
        {
          "internalType": "bool",
          "name": "_value",
          "type": "bool"
        }
      ],
      "name": "setTokenAttribute",
      "outputs": [],
      "stateMutability": "nonpayable",
      "type": "function"
    },
    {
      "inputs": [
        {
          "internalType": "uint256",
          "name": "_tokenId",
          "type": "uint256"
        },
        {
          "internalType": "string",
          "name": "_traitType",
          "type": "string"
        },
        {
          "internalType": "uint256",
          "name": "_value",
          "type": "uint256"
        }
      ],
      "name": "setTokenAttribute",
      "outputs": [],
      "stateMutability": "nonpayable",
      "type": "function"
    },
    {
      "inputs": [
        {
          "internalType": "uint256",
          "name": "_tokenId",
          "type": "uint256"
        },
        {
          "internalType": "string",
          "name": "_traitType",
          "type": "string"
        },
        {
          "internalType": "int256",
          "name": "_value",
          "type": "int256"
        }
      ],
      "name": "setTokenAttribute",
      "outputs": [],
      "stateMutability": "nonpayable",
      "type": "function"
    },
    {
      "inputs": [
        {
          "internalType": "uint256",
          "name": "_tokenId",
          "type": "uint256"
        },
        {
          "components": [
            {
              "internalType": "string",
              "name": "traitType",
              "type": "string"
            },
            {
              "internalType": "string",
              "name": "value",
              "type": "string"
            },
            {
              "internalType": "string",
              "name": "displayType",
              "type": "string"
            }
          ],
          "internalType": "struct Attribute",
          "name": "_attribute",
          "type": "tuple"
        }
      ],
      "name": "setTokenAttribute",
      "outputs": [],
      "stateMutability": "nonpayable",
      "type": "function"
    },
    {
      "inputs": [
        {
          "internalType": "uint256",
          "name": "_tokenId",
          "type": "uint256"
        },
        {
          "internalType": "string",
          "name": "_path",
          "type": "string"
        },
        {
          "internalType": "string",
          "name": "_value",
          "type": "string"
        }
      ],
      "name": "setTokenMetadata",
      "outputs": [],
      "stateMutability": "nonpayable",
      "type": "function"
    },
    {
      "inputs": [
        {
          "internalType": "uint256",
          "name": "_tokenId",
          "type": "uint256"
        },
        {
          "components": [
            {
              "internalType": "string",
              "name": "name",
              "type": "string"
            },
            {
              "internalType": "string",
              "name": "description",
              "type": "string"
            },
            {
              "internalType": "string",
              "name": "image",
              "type": "string"
            },
            {
              "internalType": "string",
              "name": "externalURL",
              "type": "string"
            },
            {
              "internalType": "string",
              "name": "animationURL",
              "type": "string"
            },
            {
              "components": [
                {
                  "internalType": "string",
                  "name": "traitType",
                  "type": "string"
                },
                {
                  "internalType": "string",
                  "name": "value",
                  "type": "string"
                },
                {
                  "internalType": "string",
                  "name": "displayType",
                  "type": "string"
                }
              ],
              "internalType": "struct Attribute[]",
              "name": "attributes",
              "type": "tuple[]"
            }
          ],
          "internalType": "struct StdTokenMetadata",
          "name": "_data",
          "type": "tuple"
        }
      ],
      "name": "setTokenMetadata",
      "outputs": [],
      "stateMutability": "nonpayable",
      "type": "function"
    },
    {
      "inputs": [
        {
          "internalType": "uint256",
          "name": "_tokenId",
          "type": "uint256"
        },
        {
          "internalType": "string",
          "name": "_jsonBlob",
          "type": "string"
        }
      ],
      "name": "setTokenMetadataRaw",
      "outputs": [],
      "stateMutability": "nonpayable",
      "type": "function"
    },
    {
      "inputs": [
        {
          "internalType": "uint256",
          "name": "_tokenId",
          "type": "uint256"
        },
        {
          "internalType": "address",
          "name": "_receiver",
          "type": "address"
        },
        {
          "internalType": "uint96",
          "name": "_feeNumerator",
          "type": "uint96"
        }
      ],
      "name": "setTokenRoyalty",
      "outputs": [],
      "stateMutability": "nonpayable",
      "type": "function"
    },
    {
      "inputs": [
        {
          "internalType": "bytes4",
          "name": "interfaceId",
          "type": "bytes4"
        }
      ],
      "name": "supportsInterface",
      "outputs": [
        {
          "internalType": "bool",
          "name": "",
          "type": "bool"
        }
      ],
      "stateMutability": "view",
      "type": "function"
    },
    {
      "inputs": [],
      "name": "symbol",
      "outputs": [
        {
          "internalType": "string",
          "name": "",
          "type": "string"
        }
      ],
      "stateMutability": "view",
      "type": "function"
    },
    {
      "inputs": [
        {
          "internalType": "uint256",
          "name": "_tokenId",
          "type": "uint256"
        }
      ],
      "name": "tokenURI",
      "outputs": [
        {
          "internalType": "string",
          "name": "",
          "type": "string"
        }
      ],
      "stateMutability": "view",
      "type": "function"
    },
    {
      "inputs": [
        {
          "internalType": "uint256",
          "name": "_tokenId",
          "type": "uint256"
        }
      ],
      "name": "tokenURICemented",
      "outputs": [
        {
          "internalType": "bool",
          "name": "",
          "type": "bool"
        }
      ],
      "stateMutability": "view",
      "type": "function"
    },
    {
      "inputs": [
        {
          "internalType": "address",
          "name": "from",
          "type": "address"
        },
        {
          "internalType": "address",
          "name": "to",
          "type": "address"
        },
        {
          "internalType": "uint256",
          "name": "tokenId",
          "type": "uint256"
        }
      ],
      "name": "transferFrom",
      "outputs": [],
      "stateMutability": "nonpayable",
      "type": "function"
    },
    {
      "inputs": [
        {
          "internalType": "address",
          "name": "newOwner",
          "type": "address"
        }
      ],
      "name": "transferOwnership",
      "outputs": [],
      "stateMutability": "nonpayable",
      "type": "function"
    },
    {
      "inputs": [
        {
          "internalType": "address",
          "name": "newImplementation",
          "type": "address"
        },
        {
          "internalType": "bytes",
          "name": "data",
          "type": "bytes"
        }
      ],
      "name": "upgradeToAndCall",
      "outputs": [],
      "stateMutability": "payable",
      "type": "function"
    },
    {
      "inputs": [
        {
          "internalType": "uint256",
          "name": "_tokenId",
          "type": "uint256"
        }
      ],
      "name": "uri",
      "outputs": [
        {
          "internalType": "string",
          "name": "",
          "type": "string"
        }
      ],
      "stateMutability": "view",
      "type": "function"
    }
  ],
  "bytecode": "0x60a08060405234620000d157306080527ff0c57e16840df040f15088dc2f81fe391c3923bec73e23a9662efc9c229c6a009081549060ff8260401c16620000c257506001600160401b036002600160401b0319828216016200007c575b604051614ca09081620000d78239608051818181611c370152611d4d0152f35b6001600160401b031990911681179091556040519081527fc7f505b2f371ae2175ee4913f4499e1f2633a7b5936321eed1cdaeb6115181d290602090a13880806200005c565b63f92ee8a960e01b8152600490fd5b600080fdfe608080604052600436101561001357600080fd5b60003560e01c90816301ffc9a7146132a95750806304634d8d1461326c57806306fdde03146131d85780630766c1a6146131a8578063081812fc1461315d578063095ea7b3146130765780630e89341c146110ce578063149b6ac414612abd57806318ec4d31146128e957806323b872dd146128d2578063261707fa146128a95780632a55205a146127be57806332ab19fa146127635780633c05d589146126dd5780633ee2e8221461252d57806340c10f191461201057806342842e0e14611fe25780634bcdb12f14611f055780634f1ef28614611d0f5780634f558e7914611ca157806352d1902d14611c245780635944c75314611b305780635a644be014611ad05780636031680114611a9d578063605ab94814611a5f5780636352211e14611a2f57806366c2d6d6146118e757806369e6d78e146117fe57806370a08231146117a9578063715018a61461172857806379ba5097146116d557806383ab79f1146116645780638da5cb5b1461162e5780639182a9df1461157d57806392df3e8b1461147957806395d89b41146113a35780639865027514611389578063a22cb465146112e9578063ad3cb1cc146112a3578063b88d4fde1461124a578063b94e14d21461114d578063c3311f69146110d3578063c87b56dd146110ce578063cfbd48851461109b578063cfe903b214610cdf578063d38b856d14610afb578063e30c397814610ac5578063e88d865614610805578063e8a3d48514610758578063e985e9c51461070a578063eab5fdf6146104ce578063ef15c0e7146103fe578063efcf575414610343578063f2fde38b146102bc5763ff1b65561461027c57600080fd5b346102b75760003660031901126102b75760206040517f74c1bdcd2b042df90fe026cc708b5db12bddb23792bf4ce9fdf1b7efe60949b58152f35b600080fd5b346102b75760203660031901126102b7576102d561332e565b6102dd613b7c565b600080516020614c2b83398151915280546001600160a01b0319166001600160a01b03928316908117909155600080516020614bab833981519152549091167f38d16b8cac22d99fc7c124b9cd0de2d3fa1faef420bfe791d8c362d765e22700600080a3005b346102b75760203660031901126102b7576004356001600160401b0381116102b7576103739036906004016135d3565b600080516020614bab833981519152546001600160a01b031633036103ec5760ff600080516020614bcb83398151915254166103da576103b2906147d2565b507fa5d4097edda6d87cb9329af83fb3712ef77eeb13738ffe43cc35a4ce305ad962600080a1005b6040516350a3adc960e01b8152600490fd5b604051639f7f092560e01b8152600490fd5b346102b75760403660031901126102b7576004356024356001600160401b0381116102b7576104319036906004016136cd565b600080516020614bab833981519152549091906001600160a01b031633036104b6576104979161046082614319565b61046a825161495e565b906104758282614a41565b156104995760206104919301519161048b6146e9565b91614a81565b90613c9a565b005b90506104a761049192614887565b906104b06142f0565b9061493c565b6024906040519063442278a760e11b82526004820152fd5b346102b7576003196020368201126102b7576004356001600160401b03918282116102b75760e09082360301126102b7576040519060e08201828110848211176106f45760405280600401358381116102b75761053190600436918401016135d3565b825260248101358381116102b75761054f90600436918401016135d3565b906020830191825260448101358481116102b75761057390600436918401016135d3565b916040840192835260648201358581116102b75761059790600436918501016135d3565b936060810194855260848301358681116102b7576105bb90600436918601016135d3565b936080820194855260a48401358781116102b7576105df90600436918701016135d3565b60a0830190815260c48501359788116102b75761060861063f9560046103739a3692010161364e565b928360c08201525193519151905191604051946106248661350f565b85526020850152604084015260608301526080820152613f8f565b610647613e2c565b91604051610654816134f4565b600c81526b62616e6e65725f696d61676560a01b602082015261067684613ed5565b5261068083613ed5565b5060405161068d816134f4565b600e81526d66656174757265645f696d61676560901b60208201526106b184613ee2565b526106bb83613ee2565b506106c4613e2c565b93516106cf85613ed5565b526106d984613ed5565b50516106e484613ee2565b526106ee83613ee2565b5061477f565b634e487b7160e01b600052604160045260246000fd5b346102b75760403660031901126102b75761072361332e565b61073461072e613344565b91613abc565b9060018060a01b0316600052602052602060ff604060002054166040519015158152f35b346102b75760003660031901126102b757604051639ed19ddb60e01b81527f841f636c3ae717f882adaf710a5db29ca95821d91f8d637d2b614cbcb320c7006004820152600081602481650f043a0000075afa80156107f9576107d2916000916107d6575b5060405191829160208352602083019061337d565b0390f35b6107f391503d806000833e6107eb8183613560565b810190613d0f565b826107bd565b6040513d6000823e3d90fd5b346102b7576020806003193601126102b7576001600160401b03906004358281116102b75761083b61084a913690600401613418565b610843613b7c565b369161359c565b9160405163d182b83b60e01b81528260048201528061086c602482018661337d565b03908381650f043a0000039381855afa9081156107f957600091610a98575b5015610a64576108ba93600091604051808097819463c4659a8d60e01b8352886004840152602483019061337d565b03915afa9283156107f9576108f5936000918291610a4a575b5060405180958192637e2224bd60e01b8352866004840152602483019061337d565b0381650f043a0000025afa9283156107f957600093610a2d575b5082519081116106f4577f31050a5cbe139738580cd5e882a7ccc0bc7ea0ba2dbe2141bade58b3ac3c6503916109458354613af5565b601f81116109f2575b5080601f831160011461098f575081906109809394600092610984575b50508160011b916000199060031b1c19161790565b9055005b01519050848061096b565b90601f198316948460005282600020926000905b8782106109da5750508360019596106109c1575b505050811b019055005b015160001960f88460031b161c191690558380806109b7565b806001859682949686015181550195019301906109a3565b610a1d908460005282600020601f850160051c810191848610610a23575b601f0160051c0190613776565b8461094e565b9091508190610a10565b610a439193503d806000833e6107eb8183613560565b918361090f565b610a5e91503d8084833e6107eb8183613560565b856108d3565b60405162461bcd60e51b815260048101849052600c60248201526b24b73b30b634b2102529a7a760a11b6044820152606490fd5b610ab89150843d8611610abe575b610ab08183613560565b81019061470a565b8561088b565b503d610aa6565b346102b75760003660031901126102b757600080516020614c2b833981519152546040516001600160a01b039091168152602090f35b346102b7576003196060368201126102b7576004356024356001600160401b0381116102b757610b2f9036906004016135d3565b600080516020614bab83398151915254909290604435906001600160a01b03163303610cc657610b5e83614319565b91610b688561495e565b94610b738685614a41565b15610c16575091610bb291610bd1600094610b8c6146e9565b610bc2604051998a97889763111dac0d60e01b8952608060048a0152608489019061337d565b908488830301602489015261337d565b9185830301604486015261337d565b9060648301520381650f043a0000035afa80156107f95761049792600091610bfb575b5090613c9a565b610c1091503d806000833e6107eb8183613560565b83610bf4565b610c6a9193955091610c3a600093610c2c613b3e565b610c346146c3565b90613ded565b90610c79610c466146e9565b9560405196879586956379c243d360e11b875260606004880152606487019061337d565b9185830301602486015261337d565b9060448301520381650f043a0000035afa80156107f9576104979361049192600092610ca9575b506104b06142f0565b610cbf9192503d806000833e6107eb8183613560565b9085610ca0565b60405163442278a760e11b815260048101849052602490fd5b346102b7576003196040368201126102b757602435906001600160401b0382116102b75760c09082360301126102b75760405160c081018181106001600160401b038211176106f45760405281600401356001600160401b0381116102b757610d4e90600436918501016135d3565b815260248201356001600160401b0381116102b757610d7390600436918501016135d3565b602082015260448201356001600160401b0381116102b757610d9b90600436918501016135d3565b604082015260648201356001600160401b0381116102b757610dc390600436918501016135d3565b606082015260848201356001600160401b0381116102b757610deb90600436918501016135d3565b608082015260a4820135916001600160401b0383116102b7573660238483010112156102b75760048382010135610e2181613637565b93610e2f6040519586613560565b818552602085013660248460051b8487010101116102b757602482850101905b60248460051b848701010182106110685760a08601878152600080516020614bab8339815191525487906001600160a01b0316330361104f5761100790604051610e98816134f4565b60118152707b2261747472696275746573223a5b5d7d60781b6020820152610ebe613e61565b90610ec7613b5c565b610ed083613ed5565b52610eda82613ed5565b50610ee3613f36565b610eec83613ee2565b52610ef682613ee2565b50610eff613f5d565b610f0883613ef2565b52610f1282613ef2565b50604051610f1f816134f4565b600c81526b195e1d195c9b985b17dd5c9b60a21b6020820152610f4183613f02565b52610f4b82613f02565b50604051610f58816134f4565b600d81526c185b9a5b585d1a5bdb97dd5c9b609a1b6020820152610f7b83613f12565b52610f8582613f12565b506080610f90613e61565b938051610f9c86613ed5565b52610fa685613ed5565b506020810151610fb586613ee2565b52610fbf85613ee2565b506040810151610fce86613ef2565b52610fd885613ef2565b506060810151610fe786613f02565b52610ff185613f02565b500151610ffd84613f12565b526106ee83613f12565b906000915b815180519060ff85169182101561104357916104a76110316110379361103d95613f22565b51614887565b92613f7e565b9161100c565b61049783600435613c9a565b602460405163442278a760e11b81526004356004820152fd5b6001600160401b038235116102b75760208060249261108e36858735898c0101016136cd565b8152019201919050610e4f565b346102b75760203660031901126102b7576110c46110b761332e565b6110bf613b7c565b613a4a565b805460ff19169055005b6133a2565b346102b7576003196020368201126102b757600435906001600160401b03908183116102b75760209083360301126102b7576040519060208201828110828211176106f45760405282600401359081116102b75761037392600461113a92369201016135d3565b809152611145613b3e565b610c34613b5c565b346102b7576003196060368201126102b7576004356024356001600160401b0381116102b7576111819036906004016135d3565b600080516020614bab83398151915254909290604435906001600160a01b03163303610cc6576111b083614319565b916111ba8561495e565b946111c58685614a41565b15611204575091610bb291610bd16000946111de6146e9565b610bc2604051998a97889763d37ee64160e01b8952608060048a0152608489019061337d565b610c6a919395509161121a600093610c2c613b3e565b90610c796112266146e9565b9560405196879586956315ad12cb60e21b875260606004880152606487019061337d565b346102b75760803660031901126102b75761126361332e565b61126b613344565b90604435606435926001600160401b0384116102b7576112926104979436906004016135d3565b9261129e8383836138a9565b6141d7565b346102b75760003660031901126102b7576107d26040516112c3816134f4565b60058152640352e302e360dc1b602082015260405191829160208352602083019061337d565b346102b75760403660031901126102b75761130261332e565b602435908115158092036102b7576001600160a01b03169081156113705761132933613abc565b82600052602052604060002060ff1981541660ff83161790556040519081527f17307eab39ab6107e8899845ad3d59bd9653f200f220920489ca2b5937696c3160203392a3005b604051630b61174360e31b815260048101839052602490fd5b346102b75760003660031901126102b7576110c433613a4a565b346102b75760003660031901126102b757604051600080516020614c4b83398151915280548260006113d483613af5565b9283835260209460019186600182169182600014611457575050600114611418575b505061140492500383613560565b6107d260405192828493845283019061337d565b85925060005281600020906000915b85831061143f575050611404935082010185806113f6565b80548389018501528794508693909201918101611427565b925093505061140494915060ff191682840152151560051b82010185806113f6565b346102b7576003196060368201126102b7576004356024356001600160401b0381116102b7576114ad9036906004016135d3565b916044358015158091036102b757600080516020614bab833981519152546001600160a01b03163303610cc6576114e383614319565b916114ed8561495e565b946114f88685614a41565b15611537575091610bb291610bd16000946115116146e9565b610bc2604051998a97889763dc782e3760e01b8952608060048a0152608489019061337d565b610c6a919395509161154d600093610c2c613b3e565b90610c796115596146e9565b95604051968795869563f057bd1760e01b875260606004880152606487019061337d565b346102b75760003660031901126102b7576040517f31050a5cbe139738580cd5e882a7ccc0bc7ea0ba2dbe2141bade58b3ac3c650480548260006115c083613af5565b92838352602094600191866001821691826000146114575750506001146115ef57505061140492500383613560565b85925060005281600020906000915b858310611616575050611404935082010185806113f6565b805483890185015287945086939092019181016115fe565b346102b75760003660031901126102b757600080516020614bab833981519152546040516001600160a01b039091168152602090f35b346102b75760003660031901126102b757600080516020614bab833981519152546001600160a01b031633036103ec57600080516020614bcb833981519152805460ff191660011790557f975c2fc9ddf45852b3fc20d6e75b3b08b461c20ce297d2fd4313300c92f27bb7600080a1005b346102b75760003660031901126102b757600080516020614c2b83398151915254336001600160a01b03909116036117105761049733614139565b60405163118cdaa760e01b8152336004820152602490fd5b346102b75760003660031901126102b757611741613b7c565b600080516020614c2b83398151915280546001600160a01b0319908116909155600080516020614bab833981519152805491821690556000906001600160a01b03167f8be0079c531659141344cd1fd0a4f28419497f9722a3daafe3b4186f6b6457e08280a3005b346102b75760203660031901126102b7576117c261332e565b6001600160a01b038116156117e5576117dc602091613a83565b54604051908152f35b6040516322718ad960e21b815260006004820152602490fd5b346102b7576003196020368201126102b757600435906001600160401b03908183116102b75760a09083360301126102b7576040519061183d8261350f565b82600401358181116102b75761185990600436918601016135d3565b825260248301358181116102b75761187790600436918601016135d3565b602083015260448301358181116102b75761189890600436918601016135d3565b604083015260648301358181116102b7576118b990600436918601016135d3565b606083015260848301359081116102b7576103739260046118dd923692010161364e565b6080820152613f8f565b346102b7576020806003193601126102b7576001600160401b036004358181116102b757611919903690600401613418565b9091611923613b7c565b81116106f4577f31050a5cbe139738580cd5e882a7ccc0bc7ea0ba2dbe2141bade58b3ac3c6504916119558354613af5565b601f81116119ff575b50600093601f831160011461199c5750610980929382916000926119915750508160011b916000199060031b1c19161790565b01359050848061096b565b90601f198316948460005282600020926000905b8782106119e75750508360019596106119cd57505050811b019055005b0135600019600384901b60f8161c191690558380806109b7565b806001849682949587013581550195019201906119b0565b611a29908460005285600020601f850160051c810191878610610a2357601f0160051c0190613776565b8461195e565b346102b75760203660031901126102b7576020611a4d600435613c40565b6040516001600160a01b039091168152f35b346102b75760203660031901126102b757600435600052600080516020614beb833981519152602052602060ff604060002054166040519015158152f35b346102b75760203660031901126102b7576107d2611abc600435614319565b60405191829160208352602083019061337d565b346102b757611ade366135f1565b600080516020614bab83398151915254909291906001600160a01b03163303611b17576104979261049191611b1284614319565b613ded565b60405163442278a760e11b815260048101839052602490fd5b346102b75760603660031901126102b757600435611b4c613344565b604435906001600160601b0382168092036102b757611b69613b7c565b612710808311611c0057506001600160a01b03908116928315611be15760405193611b93856134f4565b8452602080850193845260009182527fdaedc9ab023613a7caf35e703657e986ccfad7e3eb0af93a2853f8d65dd86b019052604090209251915160a01b6001600160a01b0319169116179055005b60449060405190634b4f842960e11b8252600482015260006024820152fd5b83606491846040519263dfd1fc1b60e01b8452600484015260248301526044820152fd5b346102b75760003660031901126102b7577f00000000000000000000000000000000000000000000000000000000000000006001600160a01b03163003611c8f5760206040517f360894a13ba1a3210667c828492db98dca3e2076cc3735a920a3ca505d382bbc8152f35b60405163703e46dd60e11b8152600490fd5b346102b75760203660031901126102b757604051630e29a66960e21b81526004803590820152602081602481650f043a0000075afa80156107f957602091600091611cf2575b506040519015158152f35b611d099150823d8411610abe57610ab08183613560565b82611ce7565b60403660031901126102b757611d2361332e565b6024356001600160401b0381116102b757611d429036906004016135d3565b906001600160a01b037f00000000000000000000000000000000000000000000000000000000000000008116308114908115611ed7575b50611c8f57611d86613b7c565b8116906040516352d1902d60e01b8152602081600481865afa60009181611ea3575b50611dc657604051634c9c8ce360e01b815260048101849052602490fd5b7f360894a13ba1a3210667c828492db98dca3e2076cc3735a920a3ca505d382bbc92919290818103611e8b5750823b15611e725780546001600160a01b03191682179055604051907fbc7cd75a20ee27fd9adebab32041f755214dbc6bffa90cc0225b39da2e5c2d3b600080a2825115611e59575060008083602061049795519101845af4611e536141a7565b91614ae7565b91505034611e6357005b63b398979f60e01b8152600490fd5b604051634c9c8ce360e01b815260048101839052602490fd5b60249060405190632a87526960e21b82526004820152fd5b9091506020813d602011611ecf575b81611ebf60209383613560565b810103126102b757519085611da8565b3d9150611eb2565b9050817f360894a13ba1a3210667c828492db98dca3e2076cc3735a920a3ca505d382bbc5416141584611d79565b346102b757611f13366135f1565b600080516020614bab83398151915254909291906001600160a01b03163303611b175761049792611f4383614319565b611f4c8361495e565b92611f578483614a41565b15611f6957506104919261048b6146e9565b61049193506104a79192611f7b613b3e565b611f83613e2c565b91611f8c6146c3565b611f9584613ed5565b52611f9f83613ed5565b50611fa86146e9565b611fb184613ee2565b52611fbb83613ee2565b50611fc4613e2c565b93611fce85613ed5565b52611fd884613ed5565b506106e484613ee2565b346102b757610497611ff3366134bf565b90604051926120018461352a565b6000845261129e8383836138a9565b346102b75760403660031901126102b75761202961332e565b60ff61203433613a4a565b5416156124f7576001600160a01b0381161561249a5760005b602435811061205857005b600080516020614b4b833981519152547f31050a5cbe139738580cd5e882a7ccc0bc7ea0ba2dbe2141bade58b3ac3c65015480821161246a5760405160007f31050a5cbe139738580cd5e882a7ccc0bc7ea0ba2dbe2141bade58b3ac3c65038054906120c382613af5565b80855291600181169081156124415750600114612402575b5050916121036120fc836120f761219a956121a0970382613560565b614401565b9187614456565b846000527f31050a5cbe139738580cd5e882a7ccc0bc7ea0ba2dbe2141bade58b3ac3c650660205260406000205561214261213c613b5c565b82614372565b9061114561214f86613d6d565b6040518461216782965180926020808601910161335a565b81019161202360f01b602084015260229261218b825180936020878501910161335a565b01036002810185520183613560565b82613c9a565b6040516121ac8161352a565b600081526001600160a01b038416156123e957816000527f80bb2b638cc20bc4d0a60d66940f3ab4a00c1d7b313497ca82fb0b4ab0079302806020528260018060a01b036040600020541680151592836123ca575b61220a88613a83565b8054600101905560008381526020919091526040812080546001600160a01b0319166001600160a01b038a1690811790915591907fddf252ad1be2c89b69c2b068fc378daa952ba7f163c4a11628f55a4df523b3ef9080a46123b157833b6122a0575b505060019061228a600080516020614b4b83398151915254613b2f565b600080516020614b4b833981519152550161204d565b60206122dc9160405180938192630a85bd0160e11b9687845233600485015260006024850152604484015260806064840152608483019061337d565b038160006001600160a01b0389165af16000918161236c575b5061233457836123036141a7565b805191908261232d57604051633250574960e11b81526001600160a01b0383166004820152602490fd5b9050602001fd5b6001600160e01b0319160361234b5760018361226d565b604051633250574960e11b81526001600160a01b0383166004820152602490fd5b9091506020813d6020116123a9575b8161238860209383613560565b810103126102b757516001600160e01b0319811681036102b75790856122f5565b3d915061237b565b6040516339e3563760e11b815260006004820152602490fd5b6123d383614395565b6123dc82613a83565b8054600019019055612201565b604051633250574960e11b815260006004820152602490fd5b6000908152602081209092505b81831061242857505081016020016121036120fc6120db565b805460208486018101919091529092019160010161240f565b60ff191660208087019190915292151560051b8501909201925061210391506120fc90506120db565b60405162461bcd60e51b81526020600482015260086024820152671cdbdb19081bdd5d60c21b6044820152606490fd5b60405162461bcd60e51b815260206004820152602f60248201527f496e76616c696420616464726573733a2073686f756c64206e6f74206265207460448201526e6865207a65726f206164647265737360881b6064820152608490fd5b60405162461bcd60e51b815260206004820152600e60248201526d24b73b30b634b21036b4b73a32b960911b6044820152606490fd5b346102b75761253b36613475565b9291612545613b7c565b61256f7f31050a5cbe139738580cd5e882a7ccc0bc7ea0ba2dbe2141bade58b3ac3c650454613af5565b156126a35761257f848214613829565b60005b81811061258b57005b61259681838661386e565b358582101561268d578160051b840135601e19853603018112156102b75784019081356001600160401b0381116102b757602080930181360381136102b7576125f361264e91600080516020614beb83398151915293369161359c565b836000527f31050a5cbe139738580cd5e882a7ccc0bc7ea0ba2dbe2141bade58b3ac3c65068552612628604060002054613d6d565b9060405190612636826134f4565b600782526672616e6b696e6760c81b87830152613ded565b92826000525260ff60406000205416612675576001929161266e91614858565b5001612582565b6024906040519063deb7c63d60e01b82526004820152fd5b634e487b7160e01b600052603260045260246000fd5b60405162461bcd60e51b815260206004820152601260248201527114995d99585b08155493081b9bdd081cd95d60721b6044820152606490fd5b346102b75760203660031901126102b757600080516020614bab83398151915254600435906001600160a01b031633036104b6576020817fac945975bbb513fba0438da6803b4f7df072942e1de756857eadd223afe92b9d92600052600080516020614beb83398151915282526040600020600160ff19825416179055604051908152a1005b346102b75760403660031901126102b7576004356024356001600160401b0381116102b7576127969036906004016135d3565b600080516020614bab833981519152546001600160a01b03163303611b175761049791613c9a565b346102b75760403660031901126102b7576004356000527fdaedc9ab023613a7caf35e703657e986ccfad7e3eb0af93a2853f8d65dd86b0160205260406000206040519061280b826134f4565b546001600160a01b0380821680845260a09290921c60208401529015612866575b6127106128486001600160601b0360208501511660243561374d565b925160408051939091166001600160a01b0316835292046020820152f35b9050604051612874816134f4565b7fdaedc9ab023613a7caf35e703657e986ccfad7e3eb0af93a2853f8d65dd86b0054828116825260a01c60208201529061282c565b346102b75760203660031901126102b7576128c56110b761332e565b805460ff19166001179055005b346102b7576104976128e3366134bf565b916138a9565b346102b7576128f736613475565b92612900613b7c565b61290b848414613829565b61291361378d565b60005b83811061291f57005b60405161292b816134f4565b6000815260208082016060815261294384888761386e565b6001600160a01b03929035838116908190036102b75784528885101561268d5760059285841b880135601e19893603018112156102b7578801938435906001600160401b03958683116102b75782858201921b80360383136102b75785906129aa85613637565b946129b86040519687613560565b8552818501920101913683116102b7578590915b838310612aad57505050508352600080516020614b6b83398151915294855491600160401b92838110156106f457612a0b90600198898201905561387e565b919091612a97578792511660018060a01b03198254161781550192519081519485116106f45784116106f45781908354858555808610612a7a575b500191600052806000209060005b848110612a6957505050505050600101612916565b835183820155928101928501612a54565b612a91908560005286846000209182019101613776565b8b612a46565b634e487b7160e01b600052600060045260246000fd5b82358152918101918691016129cc565b346102b75760c03660031901126102b7576004356001600160401b0381116102b757612aed903690600401613418565b6024356001600160401b0381116102b757612b0c903690600401613418565b9290916064356001600160a01b03811690036102b7576084356001600160a01b03811690036102b7576001600160601b0360a4351660a435036102b7577ff0c57e16840df040f15088dc2f81fe391c3923bec73e23a9662efc9c229c6a00938454936001600160401b03851680159081613066575b600114908161305c575b159081613053575b5061304157612bcc9060016001600160401b0319871617875560ff8660401c1615613022575b612bc436858761359c565b92369161359c565b90612bd56143c0565b612bdd6143c0565b8051906001600160401b0382116106f457612c06600080516020614b8b83398151915254613af5565b601f8111612fc6575b50602090601f8311600114612f3f57612c40929160009183612f345750508160011b916000199060031b1c19161790565b600080516020614b8b833981519152555b8051906001600160401b0382116106f457612c7a600080516020614c4b83398151915254613af5565b601f8111612ed8575b50602090601f8311600114612e5157612cb4929160009183612e465750508160011b916000199060031b1c19161790565b600080516020614c4b833981519152555b612ccd6143c0565b612cd56143c0565b6064356001600160a01b031615612e2d57612d1991612d0191612cf9606435614139565b6108436143c0565b612d096143c0565b612d116143c0565b611145613b3e565b600080516020614bab833981519152549091906001600160a01b031633036103ec5760ff600080516020614bcb83398151915254166103da57612d5d60ff926147d2565b507fa5d4097edda6d87cb9329af83fb3712ef77eeb13738ffe43cc35a4ce305ad962600080a1612d8b6143c0565b612d936143c0565b612d9b6143c0565b6001600080516020614b4b833981519152556044357f31050a5cbe139738580cd5e882a7ccc0bc7ea0ba2dbe2141bade58b3ac3c650155612dda61378d565b612de860a435608435613b9d565b60401c1615612df357005b805460ff60401b19169055604051600181527fc7f505b2f371ae2175ee4913f4499e1f2633a7b5936321eed1cdaeb6115181d290602090a1005b604051631e4fbdf760e01b815260006004820152602490fd5b01519050878061096b565b9190600080516020614c4b83398151915260005280600020906000935b601f1984168510612ebd576001945083601f19811610612ea4575b505050811b01600080516020614c4b83398151915255612cc5565b015160001960f88460031b161c19169055868080612e89565b81810151835560209485019460019093019290910190612e6e565b600080516020614c4b833981519152600052612f2e907ff4bad0a69248f59680a4f2b3000328cec71a413447c96781cfe5996daa8c456e601f850160051c81019160208610610a2357601f0160051c0190613776565b86612c83565b01519050888061096b565b9190600080516020614b8b83398151915260005280600020906000935b601f1984168510612fab576001945083601f19811610612f92575b505050811b01600080516020614b8b83398151915255612c51565b015160001960f88460031b161c19169055878080612f77565b81810151835560209485019460019093019290910190612f5c565b600080516020614b8b83398151915260005261301c907f37c58c799b6609234b945e882912ee9ad34948a1dfaa20a97485e1a7752bbf81601f850160051c81019160208610610a2357601f0160051c0190613776565b87612c0f565b68ffffffffffffffffff19861668010000000000000001178755612bb9565b60405163f92ee8a960e01b8152600490fd5b90501587612b93565b303b159150612b8b565b604087901c60ff16159150612b81565b346102b75760403660031901126102b75761308f61332e565b60243561309b81613c40565b3315158061314a575b8061312a575b613112576001600160a01b039283169282918491167f8c5be1e5ebec7d5bd14f71427d1e84f3dd0314c0f7b2291e5b200ac8c7c3b925600080a46000908152600080516020614c0b8339815191526020526040902080546001600160a01b0319169091179055005b60405163a9fbf51f60e01b8152336004820152602490fd5b5061313481613abc565b3360005260205260ff60406000205416156130aa565b506001600160a01b0381163314156130a4565b346102b75760203660031901126102b75760043561317a81613c40565b50600052600080516020614c0b833981519152602052602060018060a01b0360406000205416604051908152f35b346102b75760003660031901126102b757602060ff600080516020614bcb83398151915254166040519015158152f35b346102b75760003660031901126102b75760405163023aa9ab60e61b81527f841f636c3ae717f882adaf710a5db29ca95821d91f8d637d2b614cbcb320c7006004820152600081602481650f043a0000075afa9081156107f9576107d291611abc91600091613251575b5061324b613b5c565b90614372565b61326691503d806000833e6107eb8183613560565b83613242565b346102b75760403660031901126102b75761328561332e565b6024356001600160601b03811681036102b757610497916132a4613b7c565b613b9d565b346102b75760203660031901126102b7576004359063ffffffff60e01b82168092036102b7576020916380ac58cd60e01b811490811561331d575b81156132f2575b5015158152f35b63152a902d60e11b81149150811561330c575b50836132eb565b6301ffc9a760e01b14905083613305565b635b5e139f60e01b811491506132e4565b600435906001600160a01b03821682036102b757565b602435906001600160a01b03821682036102b757565b60005b83811061336d5750506000910152565b818101518382015260200161335d565b906020916133968151809281855285808601910161335a565b601f01601f1916010190565b346102b75760203660031901126102b757604051639ed19ddb60e01b81526004803590820152600081602481650f043a0000075afa80156107f9576107d2916000916133fd575060405191829160208352602083019061337d565b61341291503d806000833e6107eb8183613560565b386107bd565b9181601f840112156102b7578235916001600160401b0383116102b757602083818601950101116102b757565b9181601f840112156102b7578235916001600160401b0383116102b7576020808501948460051b0101116102b757565b60406003198201126102b7576001600160401b03916004358381116102b757826134a191600401613445565b939093926024359182116102b7576134bb91600401613445565b9091565b60609060031901126102b7576001600160a01b039060043582811681036102b7579160243590811681036102b7579060443590565b604081019081106001600160401b038211176106f457604052565b60a081019081106001600160401b038211176106f457604052565b602081019081106001600160401b038211176106f457604052565b606081019081106001600160401b038211176106f457604052565b90601f801991011681019081106001600160401b038211176106f457604052565b6001600160401b0381116106f457601f01601f191660200190565b9291926135a882613581565b916135b66040519384613560565b8294818452818301116102b7578281602093846000960137010152565b9080601f830112156102b7578160206135ee9335910161359c565b90565b60606003198201126102b757600435916001600160401b036024358181116102b75783613620916004016135d3565b926044359182116102b7576135ee916004016135d3565b6001600160401b0381116106f45760051b60200190565b81601f820112156102b75780359160209161366884613637565b936136766040519586613560565b808552838086019160051b830101928084116102b757848301915b8483106136a15750505050505090565b82356001600160401b0381116102b75786916136c2848480948901016135d3565b815201920191613691565b9190916060818403126102b757604051906001600160401b039060608301828111848210176106f457604052829481358381116102b757816137109184016135d3565b845260208201358381116102b7578161372a9184016135d3565b602085015260408201359283116102b75760409261374892016135d3565b910152565b8181029291811591840414171561376057565b634e487b7160e01b600052601160045260246000fd5b818110613781575050565b60008155600101613776565b600080516020614b6b8339815191528054906000808255826137ae57505050565b6001916001600160ff1b0384168403613815578152602091602082209360011b8401935b8481106137e0575050505050565b8083600292558281018054858255806137fc575b5050016137d2565b61380e91865286862090810190613776565b38806137f4565b634e487b7160e01b82526011600452602482fd5b1561383057565b60405162461bcd60e51b8152602060048201526016602482015275082e4e4c2f2e640d8cadccee8d040dad2e6dac2e8c6d60531b6044820152606490fd5b919081101561268d5760051b0190565b600080516020614b6b833981519152805482101561268d5760005260206000209060011b0190600090565b6001600160a01b03828116939184156123e957826000958187527f80bb2b638cc20bc4d0a60d66940f3ab4a00c1d7b313497ca82fb0b4ab00793029586602052604097858982205416978892331515806139a1575b50906139307fddf252ad1be2c89b69c2b068fc378daa952ba7f163c4a11628f55a4df523b3ef93928561398257613a83565b8054600101905585825260205289812080546001600160a01b0319168517905580a416928383036139615750505050565b6064945051926364283d7b60e01b8452600484015260248301526044820152fd5b61398b88614395565b61399486613a83565b8054600019019055613a83565b91935091939450806139fb575b156139bf57918791879493386138fe565b8887896139dc576024915190637e27328960e01b82526004820152fd5b905163177e802f60e01b81523360048201526024810191909152604490fd5b503388148015613a2e575b806139ae5750868352600080516020614c0b83398151915260205233868a85205416146139ae565b50613a3888613abc565b33845260205260ff8984205416613a06565b6001600160a01b031660009081527f31050a5cbe139738580cd5e882a7ccc0bc7ea0ba2dbe2141bade58b3ac3c65026020526040902090565b6001600160a01b031660009081527f80bb2b638cc20bc4d0a60d66940f3ab4a00c1d7b313497ca82fb0b4ab00793036020526040902090565b6001600160a01b031660009081527f80bb2b638cc20bc4d0a60d66940f3ab4a00c1d7b313497ca82fb0b4ab00793056020526040902090565b90600182811c92168015613b25575b6020831014613b0f57565b634e487b7160e01b600052602260045260246000fd5b91607f1691613b04565b60001981146137605760010190565b60405190613b4b826134f4565b60028252617b7d60f01b6020830152565b60405190613b69826134f4565b60048252636e616d6560e01b6020830152565b600080516020614bab833981519152546001600160a01b0316330361171057565b906001600160601b03811691612710808411613c2257506001600160a01b0316918215613c09576020604051613bd2816134f4565b848152015260a01b6001600160a01b031916177fdaedc9ab023613a7caf35e703657e986ccfad7e3eb0af93a2853f8d65dd86b0055565b604051635b6cc80560e11b815260006004820152602490fd5b8360449160405191636f483d0960e01b835260048301526024820152fd5b60008181527f80bb2b638cc20bc4d0a60d66940f3ab4a00c1d7b313497ca82fb0b4ab007930260205260409020546001600160a01b0316908115613c82575090565b60249060405190637e27328960e01b82526004820152fd5b9081600052600080516020614beb83398151915260205260ff60406000205416613cf65781613cec6020927ff8e1a15aba9398e019f0b49df1a4fde98ee17ae345cb5f6b5e2c27f5033e8ce794614858565b50604051908152a1565b60405163deb7c63d60e01b815260048101839052602490fd5b6020818303126102b7578051906001600160401b0382116102b7570181601f820112156102b7578051613d4181613581565b92613d4f6040519485613560565b818452602082840101116102b7576135ee916020808501910161335a565b6040519063348051d760e11b82526004820152600081602481650f043a0000065afa9081156107f957600091613da1575090565b6135ee91503d806000833e6107eb8183613560565b91613ddf90613dd16135ee959360608652606086019061337d565b90848203602086015261337d565b91604081840391015261337d565b90600091613e0f6040519485938493633691975d60e21b855260048501613db6565b0381650f043a0000035afa9081156107f957600091613da1575090565b60409060405191613e3c83613545565b600283528260005b828110613e5057505050565b806060602080938501015201613e44565b6040519060c082018281106001600160401b038211176106f457604052600582528160005b60a08110613e92575050565b806060602080938501015201613e86565b60405190613eb08261350f565b600482528160005b60808110613ec4575050565b806060602080938501015201613eb8565b80511561268d5760200190565b80516001101561268d5760400190565b80516002101561268d5760600190565b80516003101561268d5760800190565b80516004101561268d5760a00190565b805182101561268d5760209160051b010190565b60405190613f43826134f4565b600b82526a3232b9b1b934b83a34b7b760a91b6020830152565b60405190613f6a826134f4565b6005825264696d61676560d81b6020830152565b60ff1660ff81146137605760010190565b60409160405190613f9f826134f4565b601482526140c5602092737b22636f6c6c61626f7261746f7273223a5b5d7d60601b6020820152613fce613ea3565b613fd6613b5c565b613fdf82613ed5565b52613fe981613ed5565b50613ff2613f36565b613ffb82613ee2565b5261400581613ee2565b5061400e613f5d565b61401782613ef2565b5261402181613ef2565b5060405161402e816134f4565b600d81526c65787465726e616c5f6c696e6b60981b602082015261405182613f02565b5261405b81613f02565b50614064613ea3565b91865161407084613ed5565b5261407a83613ed5565b50602087015161408984613ee2565b5261409383613ee2565b5060408701516140a284613ef2565b526140ac83613ef2565b5060608701516140bb84613f02565b526106ee83613f02565b906000915b608085015180519060ff85169182101561412e576080926140f16141269361412093613f22565b51908951906140ff826134f4565b601082526f636f6c6c61626f7261746f72732e2d3160801b89830152613ded565b93613f7e565b9290506140ca565b505093509350505090565b600080516020614c2b83398151915280546001600160a01b0319908116909155600080516020614bab83398151915280549182166001600160a01b0393841690811790915591167f8be0079c531659141344cd1fd0a4f28419497f9722a3daafe3b4186f6b6457e0600080a3565b3d156141d2573d906141b882613581565b916141c66040519384613560565b82523d6000602084013e565b606090565b9190803b6141e6575b50505050565b61422860018060a01b0380921694604051938493630a85bd0160e11b96878652336004870152166024850152604484015260806064840152608483019061337d565b03906020816000938185885af1908290826142a0575b505061426f578261424d6141a7565b805191908261232d57604051633250574960e11b815260048101839052602490fd5b6001600160e01b031916036142885750388080806141e0565b60249060405190633250574960e11b82526004820152fd5b909192506020813d6020116142e8575b816142bd60209383613560565b810103126142e45751906001600160e01b0319821682036142e1575090388061423e565b80fd5b5080fd5b3d91506142b0565b604051906142fd826134f4565b600d82526c617474726962757465732e2d3160981b6020830152565b6040519063023aa9ab60e61b82526004820152600081602481650f043a0000075afa9081156107f957600091613da1575090565b90916143646135ee9360408452604084019061337d565b91602081840391015261337d565b604051633e10510b60e01b81529160009183918291613e0f91906004840161434d565b6000908152600080516020614c0b8339815191526020526040902080546001600160a01b0319169055565b60ff7ff0c57e16840df040f15088dc2f81fe391c3923bec73e23a9662efc9c229c6a005460401c16156143ef57565b604051631afcd79f60e31b8152600490fd5b80511561444d5760006144309160405180938192635cd3f3a160e01b835260206004840152602483019061337d565b0381650f043a0000025afa9081156107f957600091613da1575090565b506135ee613b3e565b90600091600080516020614b6b83398151915254835b81811061455a575060009381158015614520575b505050600080516020614b4b833981519152546040519060208201924284524460408401526001600160601b03199060601b1660608301526074820152607481526144ca8161350f565b519020811561450a570690600182019182811161376057600183116144ee57505090565b60646144fc6001938361374d565b049003019081116137605790565b634e487b7160e01b600052601260045260246000fd5b605082939496920292808404605014901517156138155761454657500491388080614480565b634e487b7160e01b81526012600452602490fd5b939291906145678561387e565b509460408051614576816134f4565b60018060a01b03908189541681526001809901928051918294805480855260208095019160005284600020906000905b8082106146ae5750505093809392916145c3878e98970387613560565b83810195865251169360009b5b6145e9575b50505050505060019192939495500161446c565b805180518d10156146a8578c6145fe91613f22565b518251906331a9108f60e11b825260048201528381602481895afa8091600091614672575b509061463f575085809798999a9b9c5b019b9a999897966145d0565b841689851614614657575b85809798999a9b9c614633565b856146668198999a9b9c613b2f565b9b9a999897505061464a565b8581813d83116146a1575b6146878183613560565b810103126142e457519086821682036142e1575038614623565b503d61467d565b506145d5565b8254845292860192918e0191908e01906145a6565b604051906146d0826134f4565b600a82526974726169745f7479706560b01b6020830152565b604051906146f6826134f4565b600582526476616c756560d81b6020830152565b908160209103126102b7575180151581036102b75790565b90808251908181526020809101926020808460051b8301019501936000915b8483106147515750505050505090565b909192939495848061476f600193601f198682030187528a5161337d565b9801930193019194939290614741565b6147b090613e0f6000936147c39560405196879586956328d694bb60e21b875260606004880152606487019061337d565b6003199384878303016024880152614722565b91848303016044850152614722565b6020614820916040518093819263b480003360e01b83527f841f636c3ae717f882adaf710a5db29ca95821d91f8d637d2b614cbcb320c700600484015260406024840152604483019061337d565b03816000650f043a0000075af19081156107f95760009161483f575090565b6135ee915060203d602011610abe57610ab08183613560565b61482091602091604051938492839263b480003360e01b8452600484015260406024840152604483019061337d565b6040614901614894613b3e565b61489c613e2c565b6148a46146c3565b6148ad82613ed5565b526148b781613ed5565b506148c06146e9565b6148c982613ee2565b526148d381613ee2565b506148dc613e2c565b9185516148e884613ed5565b526148f283613ed5565b5060208601516106e484613ee2565b910151805161490e575090565b6040516135ee9261491e826134f4565b600c82526b646973706c61795f7479706560a01b6020830152613ded565b90600091613e0f60405194859384936309793f3560e41b855260048501613db6565b60006149fb614a0e92614a1d6040519161497783613545565b602883527f617474726962757465732e232874726169745f747970653d3d223a74726169746020840152675f747970653a222960c01b6040840152604051906149bf826134f4565b600c82526b1d3a3930b4ba2fba3cb8329d60a11b602083015260405163caeac0a960e01b8152608060048201529687958695608487019061337d565b600319938487830301602488015261337d565b9184830301604485015261337d565b600160648301520381650f043a0000055afa9081156107f957600091613da1575090565b604051630995955360e21b81529160209183918291614a6491906004840161434d565b0381650f043a0000035afa9081156107f95760009161483f575090565b613e0f614ab592614ac895614ad86000966040519889978897636d9401ad60e11b8952608060048a0152608489019061337d565b60031995868983030160248a015261337d565b908487830301604488015261337d565b9184830301606485015261337d565b90614b0e5750805115614afc57805190602001fd5b604051630a12f52160e11b8152600490fd5b81511580614b41575b614b1f575090565b604051639996b31560e01b81526001600160a01b039091166004820152602490fd5b50803b15614b1756fe31050a5cbe139738580cd5e882a7ccc0bc7ea0ba2dbe2141bade58b3ac3c650031050a5cbe139738580cd5e882a7ccc0bc7ea0ba2dbe2141bade58b3ac3c650580bb2b638cc20bc4d0a60d66940f3ab4a00c1d7b313497ca82fb0b4ab00793009016d09d72d40fdae2fd8ceac6b6234c7706214fd39c1cd1e609a0528c199300985371f50cecfcb1a6dfdccb4c871d7a5d94b17a9d368860b42eaca20a68bf00935e9bcbc0809e5814f39d3828d0a7f7b9174743a7e081e81a47c083b0f4a40080bb2b638cc20bc4d0a60d66940f3ab4a00c1d7b313497ca82fb0b4ab0079304237e158222e3e6968b72b9db0d8043aacf074ad9f650f0d1606b4d82ee432c0080bb2b638cc20bc4d0a60d66940f3ab4a00c1d7b313497ca82fb0b4ab0079301a26469706673582212201275873af4bb395d5d428468cc5914c6347ff2e7b23c866eec6eff5701d3ba0d64736f6c63430008180033",
  "linkReferences": {},
  "deployedLinkReferences": {}
}