{
  "_format": "hh-sol-artifact-1",
  "contractName": "GenerativeERC721Upgradeable",
  "sourceName": "contracts/GenerativeERC721Upgradeable.sol",
  "abi": [
    {
      "inputs": [],
      "stateMutability": "nonpayable",
      "type": "constructor"
    },
    {
      "inputs": [
        {
          "internalType": "address",
          "name": "target",
          "type": "address"
        }
      ],
      "name": "AddressEmptyCode",
      "type": "error"
    },
    {
      "inputs": [],
      "name": "ContractMetadataCemented",
      "type": "error"
    },
    {
      "inputs": [],
      "name": "ContractMetadataUnauthorized",
      "type": "error"
    },
    {
      "inputs": [
        {
          "internalType": "address",
          "name": "implementation",
          "type": "address"
        }
      ],
      "name": "ERC1967InvalidImplementation",
      "type": "error"
    },
    {
      "inputs": [],
      "name": "ERC1967NonPayable",
      "type": "error"
    },
    {
      "inputs": [
        {
          "internalType": "uint256",
          "name": "numerator",
          "type": "uint256"
        },
        {
          "internalType": "uint256",
          "name": "denominator",
          "type": "uint256"
        }
      ],
      "name": "ERC2981InvalidDefaultRoyalty",
      "type": "error"
    },
    {
      "inputs": [
        {
          "internalType": "address",
          "name": "receiver",
          "type": "address"
        }
      ],
      "name": "ERC2981InvalidDefaultRoyaltyReceiver",
      "type": "error"
    },
    {
      "inputs": [
        {
          "internalType": "uint256",
          "name": "tokenId",
          "type": "uint256"
        },
        {
          "internalType": "uint256",
          "name": "numerator",
          "type": "uint256"
        },
        {
          "internalType": "uint256",
          "name": "denominator",
          "type": "uint256"
        }
      ],
      "name": "ERC2981InvalidTokenRoyalty",
      "type": "error"
    },
    {
      "inputs": [
        {
          "internalType": "uint256",
          "name": "tokenId",
          "type": "uint256"
        },
        {
          "internalType": "address",
          "name": "receiver",
          "type": "address"
        }
      ],
      "name": "ERC2981InvalidTokenRoyaltyReceiver",
      "type": "error"
    },
    {
      "inputs": [
        {
          "internalType": "address",
          "name": "sender",
          "type": "address"
        },
        {
          "internalType": "uint256",
          "name": "tokenId",
          "type": "uint256"
        },
        {
          "internalType": "address",
          "name": "owner",
          "type": "address"
        }
      ],
      "name": "ERC721IncorrectOwner",
      "type": "error"
    },
    {
      "inputs": [
        {
          "internalType": "address",
          "name": "operator",
          "type": "address"
        },
        {
          "internalType": "uint256",
          "name": "tokenId",
          "type": "uint256"
        }
      ],
      "name": "ERC721InsufficientApproval",
      "type": "error"
    },
    {
      "inputs": [
        {
          "internalType": "address",
          "name": "approver",
          "type": "address"
        }
      ],
      "name": "ERC721InvalidApprover",
      "type": "error"
    },
    {
      "inputs": [
        {
          "internalType": "address",
          "name": "operator",
          "type": "address"
        }
      ],
      "name": "ERC721InvalidOperator",
      "type": "error"
    },
    {
      "inputs": [
        {
          "internalType": "address",
          "name": "owner",
          "type": "address"
        }
      ],
      "name": "ERC721InvalidOwner",
      "type": "error"
    },
    {
      "inputs": [
        {
          "internalType": "address",
          "name": "receiver",
          "type": "address"
        }
      ],
      "name": "ERC721InvalidReceiver",
      "type": "error"
    },
    {
      "inputs": [
        {
          "internalType": "address",
          "name": "sender",
          "type": "address"
        }
      ],
      "name": "ERC721InvalidSender",
      "type": "error"
    },
    {
      "inputs": [
        {
          "internalType": "uint256",
          "name": "tokenId",
          "type": "uint256"
        }
      ],
      "name": "ERC721NonexistentToken",
      "type": "error"
    },
    {
      "inputs": [],
      "name": "FailedInnerCall",
      "type": "error"
    },
    {
      "inputs": [],
      "name": "InvalidInitialization",
      "type": "error"
    },
    {
      "inputs": [],
      "name": "NotInitializing",
      "type": "error"
    },
    {
      "inputs": [
        {
          "internalType": "address",
          "name": "owner",
          "type": "address"
        }
      ],
      "name": "OwnableInvalidOwner",
      "type": "error"
    },
    {
      "inputs": [
        {
          "internalType": "address",
          "name": "account",
          "type": "address"
        }
      ],
      "name": "OwnableUnauthorizedAccount",
      "type": "error"
    },
    {
      "inputs": [
        {
          "internalType": "uint256",
          "name": "_tokenId",
          "type": "uint256"
        }
      ],
      "name": "TokenMetadataCemented",
      "type": "error"
    },
    {
      "inputs": [
        {
          "internalType": "uint256",
          "name": "_tokenId",
          "type": "uint256"
        }
      ],
      "name": "TokenMetadataImmutable",
      "type": "error"
    },
    {
      "inputs": [
        {
          "internalType": "uint256",
          "name": "_tokenId",
          "type": "uint256"
        }
      ],
      "name": "TokenMetadataUnauthorized",
      "type": "error"
    },
    {
      "inputs": [],
      "name": "UUPSUnauthorizedCallContext",
      "type": "error"
    },
    {
      "inputs": [
        {
          "internalType": "bytes32",
          "name": "slot",
          "type": "bytes32"
        }
      ],
      "name": "UUPSUnsupportedProxiableUUID",
      "type": "error"
    },
    {
      "anonymous": false,
      "inputs": [
        {
          "indexed": true,
          "internalType": "address",
          "name": "owner",
          "type": "address"
        },
        {
          "indexed": true,
          "internalType": "address",
          "name": "approved",
          "type": "address"
        },
        {
          "indexed": true,
          "internalType": "uint256",
          "name": "tokenId",
          "type": "uint256"
        }
      ],
      "name": "Approval",
      "type": "event"
    },
    {
      "anonymous": false,
      "inputs": [
        {
          "indexed": true,
          "internalType": "address",
          "name": "owner",
          "type": "address"
        },
        {
          "indexed": true,
          "internalType": "address",
          "name": "operator",
          "type": "address"
        },
        {
          "indexed": false,
          "internalType": "bool",
          "name": "approved",
          "type": "bool"
        }
      ],
      "name": "ApprovalForAll",
      "type": "event"
    },
    {
      "anonymous": false,
      "inputs": [],
      "name": "ContractURICemented",
      "type": "event"
    },
    {
      "anonymous": false,
      "inputs": [],
      "name": "ContractURIUpdated",
      "type": "event"
    },
    {
      "anonymous": false,
      "inputs": [
        {
          "indexed": false,
          "internalType": "uint64",
          "name": "version",
          "type": "uint64"
        }
      ],
      "name": "Initialized",
      "type": "event"
    },
    {
      "anonymous": false,
      "inputs": [
        {
          "indexed": false,
          "internalType": "uint256",
          "name": "_tokenId",
          "type": "uint256"
        }
      ],
      "name": "MetadataCemented",
      "type": "event"
    },
    {
      "anonymous": false,
      "inputs": [
        {
          "indexed": false,
          "internalType": "uint256",
          "name": "_tokenId",
          "type": "uint256"
        }
      ],
      "name": "MetadataUpdate",
      "type": "event"
    },
    {
      "anonymous": false,
      "inputs": [
        {
          "indexed": true,
          "internalType": "address",
          "name": "previousOwner",
          "type": "address"
        },
        {
          "indexed": true,
          "internalType": "address",
          "name": "newOwner",
          "type": "address"
        }
      ],
      "name": "OwnershipTransferStarted",
      "type": "event"
    },
    {
      "anonymous": false,
      "inputs": [
        {
          "indexed": true,
          "internalType": "address",
          "name": "previousOwner",
          "type": "address"
        },
        {
          "indexed": true,
          "internalType": "address",
          "name": "newOwner",
          "type": "address"
        }
      ],
      "name": "OwnershipTransferred",
      "type": "event"
    },
    {
      "anonymous": false,
      "inputs": [
        {
          "indexed": true,
          "internalType": "address",
          "name": "from",
          "type": "address"
        },
        {
          "indexed": true,
          "internalType": "address",
          "name": "to",
          "type": "address"
        },
        {
          "indexed": true,
          "internalType": "uint256",
          "name": "tokenId",
          "type": "uint256"
        }
      ],
      "name": "Transfer",
      "type": "event"
    },
    {
      "anonymous": false,
      "inputs": [
        {
          "indexed": true,
          "internalType": "address",
          "name": "implementation",
          "type": "address"
        }
      ],
      "name": "Upgraded",
      "type": "event"
    },
    {
      "inputs": [],
      "name": "PROVENANCE_HASH",
      "outputs": [
        {
          "internalType": "bytes32",
          "name": "",
          "type": "bytes32"
        }
      ],
      "stateMutability": "view",
      "type": "function"
    },
    {
      "inputs": [],
      "name": "UPGRADE_INTERFACE_VERSION",
      "outputs": [
        {
          "internalType": "string",
          "name": "",
          "type": "string"
        }
      ],
      "stateMutability": "view",
      "type": "function"
    },
    {
      "inputs": [],
      "name": "acceptOwnership",
      "outputs": [],
      "stateMutability": "nonpayable",
      "type": "function"
    },
    {
      "inputs": [
        {
          "internalType": "address",
          "name": "to",
          "type": "address"
        },
        {
          "internalType": "uint256",
          "name": "tokenId",
          "type": "uint256"
        }
      ],
      "name": "approve",
      "outputs": [],
      "stateMutability": "nonpayable",
      "type": "function"
    },
    {
      "inputs": [
        {
          "internalType": "address",
          "name": "owner",
          "type": "address"
        }
      ],
      "name": "balanceOf",
      "outputs": [
        {
          "internalType": "uint256",
          "name": "",
          "type": "uint256"
        }
      ],
      "stateMutability": "view",
      "type": "function"
    },
    {
      "inputs": [],
      "name": "cementContractMetadata",
      "outputs": [],
      "stateMutability": "nonpayable",
      "type": "function"
    },
    {
      "inputs": [
        {
          "internalType": "uint256",
          "name": "_tokenId",
          "type": "uint256"
        }
      ],
      "name": "cementTokenMetadata",
      "outputs": [],
      "stateMutability": "nonpayable",
      "type": "function"
    },
    {
      "inputs": [],
      "name": "contractURI",
      "outputs": [
        {
          "internalType": "string",
          "name": "",
          "type": "string"
        }
      ],
      "stateMutability": "view",
      "type": "function"
    },
    {
      "inputs": [],
      "name": "contractURICemented",
      "outputs": [
        {
          "internalType": "bool",
          "name": "",
          "type": "bool"
        }
      ],
      "stateMutability": "view",
      "type": "function"
    },
    {
      "inputs": [
        {
          "internalType": "uint256",
          "name": "_tokenId",
          "type": "uint256"
        }
      ],
      "name": "exists",
      "outputs": [
        {
          "internalType": "bool",
          "name": "",
          "type": "bool"
        }
      ],
      "stateMutability": "view",
      "type": "function"
    },
    {
      "inputs": [
        {
          "internalType": "uint256",
          "name": "tokenId",
          "type": "uint256"
        }
      ],
      "name": "getApproved",
      "outputs": [
        {
          "internalType": "address",
          "name": "",
          "type": "address"
        }
      ],
      "stateMutability": "view",
      "type": "function"
    },
    {
      "inputs": [
        {
          "internalType": "uint256",
          "name": "_tokenId",
          "type": "uint256"
        }
      ],
      "name": "getTokenMetadata",
      "outputs": [
        {
          "internalType": "string",
          "name": "",
          "type": "string"
        }
      ],
      "stateMutability": "view",
      "type": "function"
    },
    {
      "inputs": [
        {
          "internalType": "address",
          "name": "_minter",
          "type": "address"
        }
      ],
      "name": "grantMinter",
      "outputs": [],
      "stateMutability": "nonpayable",
      "type": "function"
    },
    {
      "inputs": [],
      "name": "influencingNFTs",
      "outputs": [
        {
          "components": [
            {
              "internalType": "address",
              "name": "tokenAddress",
              "type": "address"
            },
            {
              "internalType": "uint256[]",
              "name": "tokenIds",
              "type": "uint256[]"
            }
          ],
          "internalType": "struct GenerativeERC721Upgradeable.InfluencingNFT[]",
          "name": "",
          "type": "tuple[]"
        }
      ],
      "stateMutability": "view",
      "type": "function"
    },
    {
      "inputs": [
        {
          "internalType": "string",
          "name": "_name",
          "type": "string"
        },
        {
          "internalType": "string",
          "name": "_symbol",
          "type": "string"
        },
        {
          "internalType": "uint256",
          "name": "_collectionSize",
          "type": "uint256"
        },
        {
          "internalType": "address",
          "name": "_initialOwner",
          "type": "address"
        },
        {
          "internalType": "address",
          "name": "_defaultRoyaltyReceiver",
          "type": "address"
        },
        {
          "internalType": "uint96",
          "name": "_defaultRoyaltyFeeNumerator",
          "type": "uint96"
        }
      ],
      "name": "initialize",
      "outputs": [],
      "stateMutability": "nonpayable",
      "type": "function"
    },
    {
      "inputs": [
        {
          "internalType": "address",
          "name": "owner",
          "type": "address"
        },
        {
          "internalType": "address",
          "name": "operator",
          "type": "address"
        }
      ],
      "name": "isApprovedForAll",
      "outputs": [
        {
          "internalType": "bool",
          "name": "",
          "type": "bool"
        }
      ],
      "stateMutability": "view",
      "type": "function"
    },
    {
      "inputs": [
        {
          "internalType": "address",
          "name": "_to",
          "type": "address"
        },
        {
          "internalType": "uint256",
          "name": "_amount",
          "type": "uint256"
        }
      ],
      "name": "mint",
      "outputs": [],
      "stateMutability": "nonpayable",
      "type": "function"
    },
    {
      "inputs": [],
      "name": "name",
      "outputs": [
        {
          "internalType": "string",
          "name": "",
          "type": "string"
        }
      ],
      "stateMutability": "view",
      "type": "function"
    },
    {
      "inputs": [],
      "name": "owner",
      "outputs": [
        {
          "internalType": "address",
          "name": "",
          "type": "address"
        }
      ],
      "stateMutability": "view",
      "type": "function"
    },
    {
      "inputs": [
        {
          "internalType": "uint256",
          "name": "tokenId",
          "type": "uint256"
        }
      ],
      "name": "ownerOf",
      "outputs": [
        {
          "internalType": "address",
          "name": "",
          "type": "address"
        }
      ],
      "stateMutability": "view",
      "type": "function"
    },
    {
      "inputs": [],
      "name": "pendingOwner",
      "outputs": [
        {
          "internalType": "address",
          "name": "",
          "type": "address"
        }
      ],
      "stateMutability": "view",
      "type": "function"
    },
    {
      "inputs": [],
      "name": "proxiableUUID",
      "outputs": [
        {
          "internalType": "bytes32",
          "name": "",
          "type": "bytes32"
        }
      ],
      "stateMutability": "view",
      "type": "function"
    },
    {
      "inputs": [],
      "name": "renounceMinter",
      "outputs": [],
      "stateMutability": "nonpayable",
      "type": "function"
    },
    {
      "inputs": [],
      "name": "renounceOwnership",
      "outputs": [],
      "stateMutability": "nonpayable",
      "type": "function"
    },
    {
      "inputs": [
        {
          "internalType": "uint256[]",
          "name": "_tokenIds",
          "type": "uint256[]"
        },
        {
          "internalType": "string[]",
          "name": "_metadata",
          "type": "string[]"
        }
      ],
      "name": "reveal",
      "outputs": [],
      "stateMutability": "nonpayable",
      "type": "function"
    },
    {
      "inputs": [],
      "name": "revealMetadata",
      "outputs": [
        {
          "internalType": "string",
          "name": "",
          "type": "string"
        }
      ],
      "stateMutability": "view",
      "type": "function"
    },
    {
      "inputs": [
        {
          "internalType": "address",
          "name": "_minter",
          "type": "address"
        }
      ],
      "name": "revokeMinter",
      "outputs": [],
      "stateMutability": "nonpayable",
      "type": "function"
    },
    {
      "inputs": [
        {
          "internalType": "uint256",
          "name": "tokenId",
          "type": "uint256"
        },
        {
          "internalType": "uint256",
          "name": "salePrice",
          "type": "uint256"
        }
      ],
      "name": "royaltyInfo",
      "outputs": [
        {
          "internalType": "address",
          "name": "",
          "type": "address"
        },
        {
          "internalType": "uint256",
          "name": "",
          "type": "uint256"
        }
      ],
      "stateMutability": "view",
      "type": "function"
    },
    {
      "inputs": [
        {
          "internalType": "address",
          "name": "from",
          "type": "address"
        },
        {
          "internalType": "address",
          "name": "to",
          "type": "address"
        },
        {
          "internalType": "uint256",
          "name": "tokenId",
          "type": "uint256"
        }
      ],
      "name": "safeTransferFrom",
      "outputs": [],
      "stateMutability": "nonpayable",
      "type": "function"
    },
    {
      "inputs": [
        {
          "internalType": "address",
          "name": "from",
          "type": "address"
        },
        {
          "internalType": "address",
          "name": "to",
          "type": "address"
        },
        {
          "internalType": "uint256",
          "name": "tokenId",
          "type": "uint256"
        },
        {
          "internalType": "bytes",
          "name": "data",
          "type": "bytes"
        }
      ],
      "name": "safeTransferFrom",
      "outputs": [],
      "stateMutability": "nonpayable",
      "type": "function"
    },
    {
      "inputs": [
        {
          "internalType": "address",
          "name": "operator",
          "type": "address"
        },
        {
          "internalType": "bool",
          "name": "approved",
          "type": "bool"
        }
      ],
      "name": "setApprovalForAll",
      "outputs": [],
      "stateMutability": "nonpayable",
      "type": "function"
    },
    {
      "inputs": [
        {
          "components": [
            {
              "internalType": "string",
              "name": "name",
              "type": "string"
            },
            {
              "internalType": "string",
              "name": "description",
              "type": "string"
            },
            {
              "internalType": "string",
              "name": "image",
              "type": "string"
            },
            {
              "internalType": "string",
              "name": "externalLink",
              "type": "string"
            },
            {
              "internalType": "string[]",
              "name": "collaborators",
              "type": "string[]"
            }
          ],
          "internalType": "struct StdContractMetadata",
          "name": "_data",
          "type": "tuple"
        }
      ],
      "name": "setContractMetadata",
      "outputs": [],
      "stateMutability": "nonpayable",
      "type": "function"
    },
    {
      "inputs": [
        {
          "components": [
            {
              "internalType": "string",
              "name": "name",
              "type": "string"
            }
          ],
          "internalType": "struct RequiredContractMetadata",
          "name": "_data",
          "type": "tuple"
        }
      ],
      "name": "setContractMetadata",
      "outputs": [],
      "stateMutability": "nonpayable",
      "type": "function"
    },
    {
      "inputs": [
        {
          "components": [
            {
              "internalType": "string",
              "name": "name",
              "type": "string"
            },
            {
              "internalType": "string",
              "name": "description",
              "type": "string"
            },
            {
              "internalType": "string",
              "name": "image",
              "type": "string"
            },
            {
              "internalType": "string",
              "name": "bannerImage",
              "type": "string"
            },
            {
              "internalType": "string",
              "name": "featuredImage",
              "type": "string"
            },
            {
              "internalType": "string",
              "name": "externalLink",
              "type": "string"
            },
            {
              "internalType": "string[]",
              "name": "collaborators",
              "type": "string[]"
            }
          ],
          "internalType": "struct FullContractMetadata",
          "name": "_data",
          "type": "tuple"
        }
      ],
      "name": "setContractMetadata",
      "outputs": [],
      "stateMutability": "nonpayable",
      "type": "function"
    },
    {
      "inputs": [
        {
          "internalType": "string",
          "name": "_jsonBlob",
          "type": "string"
        }
      ],
      "name": "setContractMetadataRaw",
      "outputs": [],
      "stateMutability": "nonpayable",
      "type": "function"
    },
    {
      "inputs": [
        {
          "internalType": "address",
          "name": "_receiver",
          "type": "address"
        },
        {
          "internalType": "uint96",
          "name": "_feeNumerator",
          "type": "uint96"
        }
      ],
      "name": "setDefaultRoyalty",
      "outputs": [],
      "stateMutability": "nonpayable",
      "type": "function"
    },
    {
      "inputs": [
        {
          "internalType": "address[]",
          "name": "_tokenAddresses",
          "type": "address[]"
        },
        {
          "internalType": "uint256[][]",
          "name": "_tokenIds",
          "type": "uint256[][]"
        }
      ],
      "name": "setInfluencingNFTs",
      "outputs": [],
      "stateMutability": "nonpayable",
      "type": "function"
    },
    {
      "inputs": [
        {
          "internalType": "string",
          "name": "_metadata",
          "type": "string"
        }
      ],
      "name": "setPlaceholderMetadata",
      "outputs": [],
      "stateMutability": "nonpayable",
      "type": "function"
    },
    {
      "inputs": [
        {
          "internalType": "string",
          "name": "_metadata",
          "type": "string"
        }
      ],
      "name": "setRevealPlaceholderMetadata",
      "outputs": [],
      "stateMutability": "nonpayable",
      "type": "function"
    },
    {
      "inputs": [
        {
          "internalType": "uint256",
          "name": "_tokenId",
          "type": "uint256"
        },
        {
          "internalType": "string",
          "name": "_traitType",
          "type": "string"
        },
        {
          "internalType": "string",
          "name": "_value",
          "type": "string"
        }
      ],
      "name": "setTokenAttribute",
      "outputs": [],
      "stateMutability": "nonpayable",
      "type": "function"
    },
    {
      "inputs": [
        {
          "internalType": "uint256",
          "name": "_tokenId",
          "type": "uint256"
        },
        {
          "internalType": "string",
          "name": "_traitType",
          "type": "string"
        },
        {
          "internalType": "bool",
          "name": "_value",
          "type": "bool"
        }
      ],
      "name": "setTokenAttribute",
      "outputs": [],
      "stateMutability": "nonpayable",
      "type": "function"
    },
    {
      "inputs": [
        {
          "internalType": "uint256",
          "name": "_tokenId",
          "type": "uint256"
        },
        {
          "internalType": "string",
          "name": "_traitType",
          "type": "string"
        },
        {
          "internalType": "uint256",
          "name": "_value",
          "type": "uint256"
        }
      ],
      "name": "setTokenAttribute",
      "outputs": [],
      "stateMutability": "nonpayable",
      "type": "function"
    },
    {
      "inputs": [
        {
          "internalType": "uint256",
          "name": "_tokenId",
          "type": "uint256"
        },
        {
          "internalType": "string",
          "name": "_traitType",
          "type": "string"
        },
        {
          "internalType": "int256",
          "name": "_value",
          "type": "int256"
        }
      ],
      "name": "setTokenAttribute",
      "outputs": [],
      "stateMutability": "nonpayable",
      "type": "function"
    },
    {
      "inputs": [
        {
          "internalType": "uint256",
          "name": "_tokenId",
          "type": "uint256"
        },
        {
          "components": [
            {
              "internalType": "string",
              "name": "traitType",
              "type": "string"
            },
            {
              "internalType": "string",
              "name": "value",
              "type": "string"
            },
            {
              "internalType": "string",
              "name": "displayType",
              "type": "string"
            }
          ],
          "internalType": "struct Attribute",
          "name": "_attribute",
          "type": "tuple"
        }
      ],
      "name": "setTokenAttribute",
      "outputs": [],
      "stateMutability": "nonpayable",
      "type": "function"
    },
    {
      "inputs": [
        {
          "internalType": "uint256",
          "name": "_tokenId",
          "type": "uint256"
        },
        {
          "internalType": "string",
          "name": "_path",
          "type": "string"
        },
        {
          "internalType": "string",
          "name": "_value",
          "type": "string"
        }
      ],
      "name": "setTokenMetadata",
      "outputs": [],
      "stateMutability": "nonpayable",
      "type": "function"
    },
    {
      "inputs": [
        {
          "internalType": "uint256",
          "name": "_tokenId",
          "type": "uint256"
        },
        {
          "components": [
            {
              "internalType": "string",
              "name": "name",
              "type": "string"
            },
            {
              "internalType": "string",
              "name": "description",
              "type": "string"
            },
            {
              "internalType": "string",
              "name": "image",
              "type": "string"
            },
            {
              "internalType": "string",
              "name": "externalURL",
              "type": "string"
            },
            {
              "internalType": "string",
              "name": "animationURL",
              "type": "string"
            },
            {
              "components": [
                {
                  "internalType": "string",
                  "name": "traitType",
                  "type": "string"
                },
                {
                  "internalType": "string",
                  "name": "value",
                  "type": "string"
                },
                {
                  "internalType": "string",
                  "name": "displayType",
                  "type": "string"
                }
              ],
              "internalType": "struct Attribute[]",
              "name": "attributes",
              "type": "tuple[]"
            }
          ],
          "internalType": "struct StdTokenMetadata",
          "name": "_data",
          "type": "tuple"
        }
      ],
      "name": "setTokenMetadata",
      "outputs": [],
      "stateMutability": "nonpayable",
      "type": "function"
    },
    {
      "inputs": [
        {
          "internalType": "uint256",
          "name": "_tokenId",
          "type": "uint256"
        },
        {
          "internalType": "string",
          "name": "_jsonBlob",
          "type": "string"
        }
      ],
      "name": "setTokenMetadataRaw",
      "outputs": [],
      "stateMutability": "nonpayable",
      "type": "function"
    },
    {
      "inputs": [
        {
          "internalType": "uint256",
          "name": "_tokenId",
          "type": "uint256"
        },
        {
          "internalType": "address",
          "name": "_receiver",
          "type": "address"
        },
        {
          "internalType": "uint96",
          "name": "_feeNumerator",
          "type": "uint96"
        }
      ],
      "name": "setTokenRoyalty",
      "outputs": [],
      "stateMutability": "nonpayable",
      "type": "function"
    },
    {
      "inputs": [
        {
          "internalType": "bytes4",
          "name": "interfaceId",
          "type": "bytes4"
        }
      ],
      "name": "supportsInterface",
      "outputs": [
        {
          "internalType": "bool",
          "name": "",
          "type": "bool"
        }
      ],
      "stateMutability": "view",
      "type": "function"
    },
    {
      "inputs": [],
      "name": "symbol",
      "outputs": [
        {
          "internalType": "string",
          "name": "",
          "type": "string"
        }
      ],
      "stateMutability": "view",
      "type": "function"
    },
    {
      "inputs": [
        {
          "internalType": "uint256",
          "name": "_tokenId",
          "type": "uint256"
        }
      ],
      "name": "tokenURI",
      "outputs": [
        {
          "internalType": "string",
          "name": "",
          "type": "string"
        }
      ],
      "stateMutability": "view",
      "type": "function"
    },
    {
      "inputs": [
        {
          "internalType": "uint256",
          "name": "_tokenId",
          "type": "uint256"
        }
      ],
      "name": "tokenURICemented",
      "outputs": [
        {
          "internalType": "bool",
          "name": "",
          "type": "bool"
        }
      ],
      "stateMutability": "view",
      "type": "function"
    },
    {
      "inputs": [
        {
          "internalType": "address",
          "name": "from",
          "type": "address"
        },
        {
          "internalType": "address",
          "name": "to",
          "type": "address"
        },
        {
          "internalType": "uint256",
          "name": "tokenId",
          "type": "uint256"
        }
      ],
      "name": "transferFrom",
      "outputs": [],
      "stateMutability": "nonpayable",
      "type": "function"
    },
    {
      "inputs": [
        {
          "internalType": "address",
          "name": "newOwner",
          "type": "address"
        }
      ],
      "name": "transferOwnership",
      "outputs": [],
      "stateMutability": "nonpayable",
      "type": "function"
    },
    {
      "inputs": [
        {
          "internalType": "address",
          "name": "newImplementation",
          "type": "address"
        },
        {
          "internalType": "bytes",
          "name": "data",
          "type": "bytes"
        }
      ],
      "name": "upgradeToAndCall",
      "outputs": [],
      "stateMutability": "payable",
      "type": "function"
    },
    {
      "inputs": [
        {
          "internalType": "uint256",
          "name": "_tokenId",
          "type": "uint256"
        }
      ],
      "name": "uri",
      "outputs": [
        {
          "internalType": "string",
          "name": "",
          "type": "string"
        }
      ],
      "stateMutability": "view",
      "type": "function"
    }
  ],
  "bytecode": "0x60a08060405234620000d157306080527ff0c57e16840df040f15088dc2f81fe391c3923bec73e23a9662efc9c229c6a009081549060ff8260401c16620000c257506001600160401b036002600160401b0319828216016200007c575b604051614e479081620000d78239608051818181611c420152611d580152f35b6001600160401b031990911681179091556040519081527fc7f505b2f371ae2175ee4913f4499e1f2633a7b5936321eed1cdaeb6115181d290602090a13880806200005c565b63f92ee8a960e01b8152600490fd5b600080fdfe608080604052600436101561001357600080fd5b60003560e01c90816301ffc9a71461341f5750806304634d8d146133e257806306fdde031461334e5780630766c1a61461331e578063081812fc146132d3578063095ea7b3146131ec5780630e89341c146110d9578063149b6ac414612c3357806318ec4d3114612a6b57806323b872dd14612a54578063261707fa14612a2b5780632a55205a1461294057806332ab19fa146128e557806335acb3101461276e5780633c05d589146126e85780633ee2e8221461253857806340c10f191461201b57806342842e0e14611fed5780634bcdb12f14611f105780634f1ef28614611d1a5780634f558e7914611cac57806352d1902d14611c2f5780635944c75314611b3b5780635a644be014611adb5780636031680114611aa8578063605ab94814611a6a5780636352211e14611a3a57806366c2d6d6146118f257806369e6d78e1461180957806370a08231146117b4578063715018a61461173357806379ba5097146116e057806383ab79f11461166f5780638da5cb5b146116395780639182a9df1461158857806392df3e8b1461148457806395d89b41146113ae5780639865027514611394578063a22cb465146112f4578063ad3cb1cc146112ae578063b88d4fde14611255578063b94e14d214611158578063c3311f69146110de578063c87b56dd146110d9578063cfbd4885146110a6578063cfe903b214610cea578063d38b856d14610b06578063e30c397814610ad0578063e88d865614610810578063e8a3d48514610763578063e985e9c514610715578063eab5fdf6146104d9578063ef15c0e714610409578063efcf57541461034e578063f2fde38b146102c75763ff1b65561461028757600080fd5b346102c25760003660031901126102c25760206040517f74c1bdcd2b042df90fe026cc708b5db12bddb23792bf4ce9fdf1b7efe60949b58152f35b600080fd5b346102c25760203660031901126102c2576102e06134a4565b6102e8613dc0565b600080516020614dd283398151915280546001600160a01b0319166001600160a01b03928316908117909155600080516020614d52833981519152549091167f38d16b8cac22d99fc7c124b9cd0de2d3fa1faef420bfe791d8c362d765e22700600080a3005b346102c25760203660031901126102c2576004356001600160401b0381116102c25761037e903690600401613749565b600080516020614d52833981519152546001600160a01b031633036103f75760ff600080516020614d7283398151915254166103e5576103bd90614979565b507fa5d4097edda6d87cb9329af83fb3712ef77eeb13738ffe43cc35a4ce305ad962600080a1005b6040516350a3adc960e01b8152600490fd5b604051639f7f092560e01b8152600490fd5b346102c25760403660031901126102c2576004356024356001600160401b0381116102c25761043c903690600401613843565b600080516020614d52833981519152549091906001600160a01b031633036104c1576104a29161046b826144fc565b6104758251614b05565b906104808282614be8565b156104a457602061049c93015191610496614890565b91614c28565b90613ede565b005b90506104b261049c92614a2e565b906104bb6144d3565b90614ae3565b6024906040519063442278a760e11b82526004820152fd5b346102c2576003196020368201126102c2576004356001600160401b03918282116102c25760e09082360301126102c2576040519060e08201828110848211176106ff5760405280600401358381116102c25761053c9060043691840101613749565b825260248101358381116102c25761055a9060043691840101613749565b906020830191825260448101358481116102c25761057e9060043691840101613749565b916040840192835260648201358581116102c2576105a29060043691850101613749565b936060810194855260848301358681116102c2576105c69060043691860101613749565b936080820194855260a48401358781116102c2576105ea9060043691870101613749565b60a0830190815260c48501359788116102c25761061361064a95600461037e9a369201016137c4565b928360c082015251935191519051916040519461062f86613685565b85526020850152604084015260608301526080820152614172565b610652614070565b9160405161065f8161366a565b600c81526b62616e6e65725f696d61676560a01b602082015261068184613cd8565b5261068b83613cd8565b506040516106988161366a565b600e81526d66656174757265645f696d61676560901b60208201526106bc84613ce5565b526106c683613ce5565b506106cf614070565b93516106da85613cd8565b526106e484613cd8565b50516106ef84613ce5565b526106f983613ce5565b50614926565b634e487b7160e01b600052604160045260246000fd5b346102c25760403660031901126102c25761072e6134a4565b61073f6107396134ba565b91613c4c565b9060018060a01b0316600052602052602060ff604060002054166040519015158152f35b346102c25760003660031901126102c257604051639ed19ddb60e01b81527f841f636c3ae717f882adaf710a5db29ca95821d91f8d637d2b614cbcb320c7006004820152600081602481650f043a0000075afa8015610804576107dd916000916107e1575b506040519182916020835260208301906134f3565b0390f35b6107fe91503d806000833e6107f681836136d6565b810190613f53565b826107c8565b6040513d6000823e3d90fd5b346102c2576020806003193601126102c2576001600160401b03906004358281116102c25761084661085591369060040161358e565b61084e613dc0565b3691613712565b9160405163d182b83b60e01b81528260048201528061087760248201866134f3565b03908381650f043a0000039381855afa90811561080457600091610aa3575b5015610a6f576108c593600091604051808097819463c4659a8d60e01b835288600484015260248301906134f3565b03915afa92831561080457610900936000918291610a55575b5060405180958192637e2224bd60e01b835286600484015260248301906134f3565b0381650f043a0000025afa92831561080457600093610a38575b5082519081116106ff577f31050a5cbe139738580cd5e882a7ccc0bc7ea0ba2dbe2141bade58b3ac3c6503916109508354613d39565b601f81116109fd575b5080601f831160011461099a5750819061098b939460009261098f575b50508160011b916000199060031b1c19161790565b9055005b015190508480610976565b90601f198316948460005282600020926000905b8782106109e55750508360019596106109cc575b505050811b019055005b015160001960f88460031b161c191690558380806109c2565b806001859682949686015181550195019301906109ae565b610a28908460005282600020601f850160051c810191848610610a2e575b601f0160051c01906138ec565b84610959565b9091508190610a1b565b610a4e9193503d806000833e6107f681836136d6565b918361091a565b610a6991503d8084833e6107f681836136d6565b856108de565b60405162461bcd60e51b815260048101849052600c60248201526b24b73b30b634b2102529a7a760a11b6044820152606490fd5b610ac39150843d8611610ac9575b610abb81836136d6565b8101906148b1565b85610896565b503d610ab1565b346102c25760003660031901126102c257600080516020614dd2833981519152546040516001600160a01b039091168152602090f35b346102c2576003196060368201126102c2576004356024356001600160401b0381116102c257610b3a903690600401613749565b600080516020614d5283398151915254909290604435906001600160a01b03163303610cd157610b69836144fc565b91610b7385614b05565b94610b7e8685614be8565b15610c21575091610bbd91610bdc600094610b97614890565b610bcd604051998a97889763111dac0d60e01b8952608060048a015260848901906134f3565b90848883030160248901526134f3565b918583030160448601526134f3565b9060648301520381650f043a0000035afa8015610804576104a292600091610c06575b5090613ede565b610c1b91503d806000833e6107f681836136d6565b83610bff565b610c759193955091610c45600093610c37613d82565b610c3f61486a565b90614031565b90610c84610c51614890565b9560405196879586956379c243d360e11b87526060600488015260648701906134f3565b918583030160248601526134f3565b9060448301520381650f043a0000035afa8015610804576104a29361049c92600092610cb4575b506104bb6144d3565b610cca9192503d806000833e6107f681836136d6565b9085610cab565b60405163442278a760e11b815260048101849052602490fd5b346102c2576003196040368201126102c257602435906001600160401b0382116102c25760c09082360301126102c25760405160c081018181106001600160401b038211176106ff5760405281600401356001600160401b0381116102c257610d599060043691850101613749565b815260248201356001600160401b0381116102c257610d7e9060043691850101613749565b602082015260448201356001600160401b0381116102c257610da69060043691850101613749565b604082015260648201356001600160401b0381116102c257610dce9060043691850101613749565b606082015260848201356001600160401b0381116102c257610df69060043691850101613749565b608082015260a4820135916001600160401b0383116102c2573660238483010112156102c25760048382010135610e2c816137ad565b93610e3a60405195866136d6565b818552602085013660248460051b8487010101116102c257602482850101905b60248460051b848701010182106110735760a08601878152600080516020614d528339815191525487906001600160a01b0316330361105a5761101290604051610ea38161366a565b60118152707b2261747472696275746573223a5b5d7d60781b6020820152610ec96140a5565b90610ed2613da0565b610edb83613cd8565b52610ee582613cd8565b50610eee614119565b610ef783613ce5565b52610f0182613ce5565b50610f0a614140565b610f1383613cf5565b52610f1d82613cf5565b50604051610f2a8161366a565b600c81526b195e1d195c9b985b17dd5c9b60a21b6020820152610f4c83613d05565b52610f5682613d05565b50604051610f638161366a565b600d81526c185b9a5b585d1a5bdb97dd5c9b609a1b6020820152610f8683613d15565b52610f9082613d15565b506080610f9b6140a5565b938051610fa786613cd8565b52610fb185613cd8565b506020810151610fc086613ce5565b52610fca85613ce5565b506040810151610fd986613cf5565b52610fe385613cf5565b506060810151610ff286613d05565b52610ffc85613d05565b50015161100884613d15565b526106f983613d15565b906000915b815180519060ff85169182101561104e57916104b261103c6110429361104895613d25565b51614a2e565b92614161565b91611017565b6104a283600435613ede565b602460405163442278a760e11b81526004356004820152fd5b6001600160401b038235116102c25760208060249261109936858735898c010101613843565b8152019201919050610e5a565b346102c25760203660031901126102c2576110cf6110c26134a4565b6110ca613dc0565b613bda565b805460ff19169055005b613518565b346102c2576003196020368201126102c257600435906001600160401b03908183116102c25760209083360301126102c2576040519060208201828110828211176106ff5760405282600401359081116102c25761037e9260046111459236920101613749565b809152611150613d82565b610c3f613da0565b346102c2576003196060368201126102c2576004356024356001600160401b0381116102c25761118c903690600401613749565b600080516020614d5283398151915254909290604435906001600160a01b03163303610cd1576111bb836144fc565b916111c585614b05565b946111d08685614be8565b1561120f575091610bbd91610bdc6000946111e9614890565b610bcd604051998a97889763d37ee64160e01b8952608060048a015260848901906134f3565b610c759193955091611225600093610c37613d82565b90610c84611231614890565b9560405196879586956315ad12cb60e21b87526060600488015260648701906134f3565b346102c25760803660031901126102c25761126e6134a4565b6112766134ba565b90604435606435926001600160401b0384116102c25761129d6104a2943690600401613749565b926112a9838383613a39565b6143ba565b346102c25760003660031901126102c2576107dd6040516112ce8161366a565b60058152640352e302e360dc1b60208201526040519182916020835260208301906134f3565b346102c25760403660031901126102c25761130d6134a4565b602435908115158092036102c2576001600160a01b031690811561137b5761133433613c4c565b82600052602052604060002060ff1981541660ff83161790556040519081527f17307eab39ab6107e8899845ad3d59bd9653f200f220920489ca2b5937696c3160203392a3005b604051630b61174360e31b815260048101839052602490fd5b346102c25760003660031901126102c2576110cf33613bda565b346102c25760003660031901126102c257604051600080516020614df283398151915280548260006113df83613d39565b9283835260209460019186600182169182600014611462575050600114611423575b505061140f925003836136d6565b6107dd6040519282849384528301906134f3565b85925060005281600020906000915b85831061144a57505061140f93508201018580611401565b80548389018501528794508693909201918101611432565b925093505061140f94915060ff191682840152151560051b8201018580611401565b346102c2576003196060368201126102c2576004356024356001600160401b0381116102c2576114b8903690600401613749565b916044358015158091036102c257600080516020614d52833981519152546001600160a01b03163303610cd1576114ee836144fc565b916114f885614b05565b946115038685614be8565b15611542575091610bbd91610bdc60009461151c614890565b610bcd604051998a97889763dc782e3760e01b8952608060048a015260848901906134f3565b610c759193955091611558600093610c37613d82565b90610c84611564614890565b95604051968795869563f057bd1760e01b87526060600488015260648701906134f3565b346102c25760003660031901126102c2576040517f31050a5cbe139738580cd5e882a7ccc0bc7ea0ba2dbe2141bade58b3ac3c650480548260006115cb83613d39565b92838352602094600191866001821691826000146114625750506001146115fa57505061140f925003836136d6565b85925060005281600020906000915b85831061162157505061140f93508201018580611401565b80548389018501528794508693909201918101611609565b346102c25760003660031901126102c257600080516020614d52833981519152546040516001600160a01b039091168152602090f35b346102c25760003660031901126102c257600080516020614d52833981519152546001600160a01b031633036103f757600080516020614d72833981519152805460ff191660011790557f975c2fc9ddf45852b3fc20d6e75b3b08b461c20ce297d2fd4313300c92f27bb7600080a1005b346102c25760003660031901126102c257600080516020614dd283398151915254336001600160a01b039091160361171b576104a23361431c565b60405163118cdaa760e01b8152336004820152602490fd5b346102c25760003660031901126102c25761174c613dc0565b600080516020614dd283398151915280546001600160a01b0319908116909155600080516020614d52833981519152805491821690556000906001600160a01b03167f8be0079c531659141344cd1fd0a4f28419497f9722a3daafe3b4186f6b6457e08280a3005b346102c25760203660031901126102c2576117cd6134a4565b6001600160a01b038116156117f0576117e7602091613c13565b54604051908152f35b6040516322718ad960e21b815260006004820152602490fd5b346102c2576003196020368201126102c257600435906001600160401b03908183116102c25760a09083360301126102c2576040519061184882613685565b82600401358181116102c2576118649060043691860101613749565b825260248301358181116102c2576118829060043691860101613749565b602083015260448301358181116102c2576118a39060043691860101613749565b604083015260648301358181116102c2576118c49060043691860101613749565b606083015260848301359081116102c25761037e9260046118e892369201016137c4565b6080820152614172565b346102c2576020806003193601126102c2576001600160401b036004358181116102c25761192490369060040161358e565b909161192e613dc0565b81116106ff577f31050a5cbe139738580cd5e882a7ccc0bc7ea0ba2dbe2141bade58b3ac3c6504916119608354613d39565b601f8111611a0a575b50600093601f83116001146119a7575061098b9293829160009261199c5750508160011b916000199060031b1c19161790565b013590508480610976565b90601f198316948460005282600020926000905b8782106119f25750508360019596106119d857505050811b019055005b0135600019600384901b60f8161c191690558380806109c2565b806001849682949587013581550195019201906119bb565b611a34908460005285600020601f850160051c810191878610610a2e57601f0160051c01906138ec565b84611969565b346102c25760203660031901126102c2576020611a58600435613e84565b6040516001600160a01b039091168152f35b346102c25760203660031901126102c257600435600052600080516020614d92833981519152602052602060ff604060002054166040519015158152f35b346102c25760203660031901126102c2576107dd611ac76004356144fc565b6040519182916020835260208301906134f3565b346102c257611ae936613767565b600080516020614d5283398151915254909291906001600160a01b03163303611b22576104a29261049c91611b1d846144fc565b614031565b60405163442278a760e11b815260048101839052602490fd5b346102c25760603660031901126102c257600435611b576134ba565b604435906001600160601b0382168092036102c257611b74613dc0565b612710808311611c0b57506001600160a01b03908116928315611bec5760405193611b9e8561366a565b8452602080850193845260009182527fdaedc9ab023613a7caf35e703657e986ccfad7e3eb0af93a2853f8d65dd86b019052604090209251915160a01b6001600160a01b0319169116179055005b60449060405190634b4f842960e11b8252600482015260006024820152fd5b83606491846040519263dfd1fc1b60e01b8452600484015260248301526044820152fd5b346102c25760003660031901126102c2577f00000000000000000000000000000000000000000000000000000000000000006001600160a01b03163003611c9a5760206040517f360894a13ba1a3210667c828492db98dca3e2076cc3735a920a3ca505d382bbc8152f35b60405163703e46dd60e11b8152600490fd5b346102c25760203660031901126102c257604051630e29a66960e21b81526004803590820152602081602481650f043a0000075afa801561080457602091600091611cfd575b506040519015158152f35b611d149150823d8411610ac957610abb81836136d6565b82611cf2565b60403660031901126102c257611d2e6134a4565b6024356001600160401b0381116102c257611d4d903690600401613749565b906001600160a01b037f00000000000000000000000000000000000000000000000000000000000000008116308114908115611ee2575b50611c9a57611d91613dc0565b8116906040516352d1902d60e01b8152602081600481865afa60009181611eae575b50611dd157604051634c9c8ce360e01b815260048101849052602490fd5b7f360894a13ba1a3210667c828492db98dca3e2076cc3735a920a3ca505d382bbc92919290818103611e965750823b15611e7d5780546001600160a01b03191682179055604051907fbc7cd75a20ee27fd9adebab32041f755214dbc6bffa90cc0225b39da2e5c2d3b600080a2825115611e6457506000808360206104a295519101845af4611e5e61438a565b91614c8e565b91505034611e6e57005b63b398979f60e01b8152600490fd5b604051634c9c8ce360e01b815260048101839052602490fd5b60249060405190632a87526960e21b82526004820152fd5b9091506020813d602011611eda575b81611eca602093836136d6565b810103126102c257519085611db3565b3d9150611ebd565b9050817f360894a13ba1a3210667c828492db98dca3e2076cc3735a920a3ca505d382bbc5416141584611d84565b346102c257611f1e36613767565b600080516020614d5283398151915254909291906001600160a01b03163303611b22576104a292611f4e836144fc565b611f5783614b05565b92611f628483614be8565b15611f74575061049c92610496614890565b61049c93506104b29192611f86613d82565b611f8e614070565b91611f9761486a565b611fa084613cd8565b52611faa83613cd8565b50611fb3614890565b611fbc84613ce5565b52611fc683613ce5565b50611fcf614070565b93611fd985613cd8565b52611fe384613cd8565b506106ef84613ce5565b346102c2576104a2611ffe36613635565b906040519261200c846136a0565b600084526112a9838383613a39565b346102c25760403660031901126102c2576120346134a4565b60ff61203f33613bda565b541615612502576001600160a01b038116156124a55760005b602435811061206357005b600080516020614cf2833981519152547f31050a5cbe139738580cd5e882a7ccc0bc7ea0ba2dbe2141bade58b3ac3c6501548082116124755760405160007f31050a5cbe139738580cd5e882a7ccc0bc7ea0ba2dbe2141bade58b3ac3c65038054906120ce82613d39565b808552916001811690811561244c575060011461240d575b50509161210e612107836121026121a5956121ab9703826136d6565b6145e4565b9187614639565b846000527f31050a5cbe139738580cd5e882a7ccc0bc7ea0ba2dbe2141bade58b3ac3c650660205260406000205561214d612147613da0565b82614555565b9061115061215a86613fb1565b604051846121728296518092602080860191016134d0565b81019161202360f01b602084015260229261219682518093602087850191016134d0565b010360028101855201836136d6565b82613ede565b6040516121b7816136a0565b600081526001600160a01b038416156123f457816000527f80bb2b638cc20bc4d0a60d66940f3ab4a00c1d7b313497ca82fb0b4ab0079302806020528260018060a01b036040600020541680151592836123d5575b61221588613c13565b8054600101905560008381526020919091526040812080546001600160a01b0319166001600160a01b038a1690811790915591907fddf252ad1be2c89b69c2b068fc378daa952ba7f163c4a11628f55a4df523b3ef9080a46123bc57833b6122ab575b5050600190612295600080516020614cf283398151915254613d73565b600080516020614cf28339815191525501612058565b60206122e79160405180938192630a85bd0160e11b968784523360048501526000602485015260448401526080606484015260848301906134f3565b038160006001600160a01b0389165af160009181612377575b5061233f578361230e61438a565b805191908261233857604051633250574960e11b81526001600160a01b0383166004820152602490fd5b9050602001fd5b6001600160e01b0319160361235657600183612278565b604051633250574960e11b81526001600160a01b0383166004820152602490fd5b9091506020813d6020116123b4575b81612393602093836136d6565b810103126102c257516001600160e01b0319811681036102c2579085612300565b3d9150612386565b6040516339e3563760e11b815260006004820152602490fd5b6123de83614578565b6123e782613c13565b805460001901905561220c565b604051633250574960e11b815260006004820152602490fd5b6000908152602081209092505b818310612433575050810160200161210e6121076120e6565b805460208486018101919091529092019160010161241a565b60ff191660208087019190915292151560051b8501909201925061210e915061210790506120e6565b60405162461bcd60e51b81526020600482015260086024820152671cdbdb19081bdd5d60c21b6044820152606490fd5b60405162461bcd60e51b815260206004820152602f60248201527f496e76616c696420616464726573733a2073686f756c64206e6f74206265207460448201526e6865207a65726f206164647265737360881b6064820152608490fd5b60405162461bcd60e51b815260206004820152600e60248201526d24b73b30b634b21036b4b73a32b960911b6044820152606490fd5b346102c257612546366135eb565b9291612550613dc0565b61257a7f31050a5cbe139738580cd5e882a7ccc0bc7ea0ba2dbe2141bade58b3ac3c650454613d39565b156126ae5761258a84821461399f565b60005b81811061259657005b6125a18183866139fe565b3585821015612698578160051b840135601e19853603018112156102c25784019081356001600160401b0381116102c257602080930181360381136102c2576125fe61265991600080516020614d92833981519152933691613712565b836000527f31050a5cbe139738580cd5e882a7ccc0bc7ea0ba2dbe2141bade58b3ac3c65068552612633604060002054613fb1565b90604051906126418261366a565b600782526672616e6b696e6760c81b87830152614031565b92826000525260ff604060002054166126805760019291612679916149ff565b500161258d565b6024906040519063deb7c63d60e01b82526004820152fd5b634e487b7160e01b600052603260045260246000fd5b60405162461bcd60e51b815260206004820152601260248201527114995d99585b08155493081b9bdd081cd95d60721b6044820152606490fd5b346102c25760203660031901126102c257600080516020614d5283398151915254600435906001600160a01b031633036104c1576020817fac945975bbb513fba0438da6803b4f7df072942e1de756857eadd223afe92b9d92600052600080516020614d9283398151915282526040600020600160ff19825416179055604051908152a1005b346102c25760003660031901126102c257600080516020614d1283398151915254612798816137ad565b6127a560405191826136d6565b8181526127b1826137ad565b60209290601f19018360005b8281106128cf5750505060005b81811061287f578284604051918183928301818452825180915260408401918060408360051b8701019401926000905b8382106128075786860387f35b9193955091938390603f19888203018352865182606081604085019360018060a01b0381511686520151936040838201528451809452019201906000905b808210612866575050509080600192970192019201869594929391936127fa565b9193806001929486518152019401920186939291612845565b8061288b600192613a0e565b506128af83808060a01b0383541692604051936128a78561366a565b845201613c85565b868201526128bd8286613d25565b526128c88185613d25565b50016127ca565b6128d76139e4565b8282870101520184906127bd565b346102c25760403660031901126102c2576004356024356001600160401b0381116102c257612918903690600401613749565b600080516020614d52833981519152546001600160a01b03163303611b22576104a291613ede565b346102c25760403660031901126102c2576004356000527fdaedc9ab023613a7caf35e703657e986ccfad7e3eb0af93a2853f8d65dd86b0160205260406000206040519061298d8261366a565b546001600160a01b0380821680845260a09290921c602084015290156129e8575b6127106129ca6001600160601b036020850151166024356138c3565b925160408051939091166001600160a01b0316835292046020820152f35b90506040516129f68161366a565b7fdaedc9ab023613a7caf35e703657e986ccfad7e3eb0af93a2853f8d65dd86b0054828116825260a01c6020820152906129ae565b346102c25760203660031901126102c257612a476110c26134a4565b805460ff19166001179055005b346102c2576104a2612a6536613635565b91613a39565b346102c257612a79366135eb565b90612a82613dc0565b612a8d82841461399f565b612a95613903565b60005b838110612aa157005b612aa96139e4565b612ab48286886139fe565b6001600160a01b039035818116908190036102c25782528483101561269857600583811b850135601e19863603018112156102c2578501908135926001600160401b03938481116102c25760209281848601911b9485360382136102c2578480890196612b20856137ad565b94612b2e60405196876136d6565b8552818501920101913683116102c2578590915b838310612c2357505050508352600080516020614d1283398151915294855491600160401b92838110156106ff57612b81906001988982019055613a0e565b919091612c0d578792511660018060a01b03198254161781550192519081519485116106ff5784116106ff5781908354858555808610612bf0575b500191600052806000209060005b848110612bdf57505050505050600101612a98565b835183820155928101928501612bca565b612c079085600052868460002091820191016138ec565b8b612bbc565b634e487b7160e01b600052600060045260246000fd5b8235815291810191869101612b42565b346102c25760c03660031901126102c2576004356001600160401b0381116102c257612c6390369060040161358e565b6024356001600160401b0381116102c257612c8290369060040161358e565b9290916064356001600160a01b03811690036102c2576084356001600160a01b03811690036102c2576001600160601b0360a4351660a435036102c2577ff0c57e16840df040f15088dc2f81fe391c3923bec73e23a9662efc9c229c6a00938454936001600160401b038516801590816131dc575b60011490816131d2575b1590816131c9575b506131b757612d429060016001600160401b0319871617875560ff8660401c1615613198575b612d3a368587613712565b923691613712565b90612d4b6145a3565b612d536145a3565b8051906001600160401b0382116106ff57612d7c600080516020614d3283398151915254613d39565b601f811161313c575b50602090601f83116001146130b557612db69291600091836130aa5750508160011b916000199060031b1c19161790565b600080516020614d32833981519152555b8051906001600160401b0382116106ff57612df0600080516020614df283398151915254613d39565b601f811161304e575b50602090601f8311600114612fc757612e2a929160009183612fbc5750508160011b916000199060031b1c19161790565b600080516020614df2833981519152555b612e436145a3565b612e4b6145a3565b6064356001600160a01b031615612fa357612e8f91612e7791612e6f60643561431c565b61084e6145a3565b612e7f6145a3565b612e876145a3565b611150613d82565b600080516020614d52833981519152549091906001600160a01b031633036103f75760ff600080516020614d7283398151915254166103e557612ed360ff92614979565b507fa5d4097edda6d87cb9329af83fb3712ef77eeb13738ffe43cc35a4ce305ad962600080a1612f016145a3565b612f096145a3565b612f116145a3565b6001600080516020614cf2833981519152556044357f31050a5cbe139738580cd5e882a7ccc0bc7ea0ba2dbe2141bade58b3ac3c650155612f50613903565b612f5e60a435608435613de1565b60401c1615612f6957005b805460ff60401b19169055604051600181527fc7f505b2f371ae2175ee4913f4499e1f2633a7b5936321eed1cdaeb6115181d290602090a1005b604051631e4fbdf760e01b815260006004820152602490fd5b015190508780610976565b9190600080516020614df283398151915260005280600020906000935b601f1984168510613033576001945083601f1981161061301a575b505050811b01600080516020614df283398151915255612e3b565b015160001960f88460031b161c19169055868080612fff565b81810151835560209485019460019093019290910190612fe4565b600080516020614df28339815191526000526130a4907ff4bad0a69248f59680a4f2b3000328cec71a413447c96781cfe5996daa8c456e601f850160051c81019160208610610a2e57601f0160051c01906138ec565b86612df9565b015190508880610976565b9190600080516020614d3283398151915260005280600020906000935b601f1984168510613121576001945083601f19811610613108575b505050811b01600080516020614d3283398151915255612dc7565b015160001960f88460031b161c191690558780806130ed565b818101518355602094850194600190930192909101906130d2565b600080516020614d32833981519152600052613192907f37c58c799b6609234b945e882912ee9ad34948a1dfaa20a97485e1a7752bbf81601f850160051c81019160208610610a2e57601f0160051c01906138ec565b87612d85565b68ffffffffffffffffff19861668010000000000000001178755612d2f565b60405163f92ee8a960e01b8152600490fd5b90501587612d09565b303b159150612d01565b604087901c60ff16159150612cf7565b346102c25760403660031901126102c2576132056134a4565b60243561321181613e84565b331515806132c0575b806132a0575b613288576001600160a01b039283169282918491167f8c5be1e5ebec7d5bd14f71427d1e84f3dd0314c0f7b2291e5b200ac8c7c3b925600080a46000908152600080516020614db28339815191526020526040902080546001600160a01b0319169091179055005b60405163a9fbf51f60e01b8152336004820152602490fd5b506132aa81613c4c565b3360005260205260ff6040600020541615613220565b506001600160a01b03811633141561321a565b346102c25760203660031901126102c2576004356132f081613e84565b50600052600080516020614db2833981519152602052602060018060a01b0360406000205416604051908152f35b346102c25760003660031901126102c257602060ff600080516020614d7283398151915254166040519015158152f35b346102c25760003660031901126102c25760405163023aa9ab60e61b81527f841f636c3ae717f882adaf710a5db29ca95821d91f8d637d2b614cbcb320c7006004820152600081602481650f043a0000075afa908115610804576107dd91611ac7916000916133c7575b506133c1613da0565b90614555565b6133dc91503d806000833e6107f681836136d6565b836133b8565b346102c25760403660031901126102c2576133fb6134a4565b6024356001600160601b03811681036102c2576104a29161341a613dc0565b613de1565b346102c25760203660031901126102c2576004359063ffffffff60e01b82168092036102c2576020916380ac58cd60e01b8114908115613493575b8115613468575b5015158152f35b63152a902d60e11b811491508115613482575b5083613461565b6301ffc9a760e01b1490508361347b565b635b5e139f60e01b8114915061345a565b600435906001600160a01b03821682036102c257565b602435906001600160a01b03821682036102c257565b60005b8381106134e35750506000910152565b81810151838201526020016134d3565b9060209161350c815180928185528580860191016134d0565b601f01601f1916010190565b346102c25760203660031901126102c257604051639ed19ddb60e01b81526004803590820152600081602481650f043a0000075afa8015610804576107dd9160009161357357506040519182916020835260208301906134f3565b61358891503d806000833e6107f681836136d6565b386107c8565b9181601f840112156102c2578235916001600160401b0383116102c257602083818601950101116102c257565b9181601f840112156102c2578235916001600160401b0383116102c2576020808501948460051b0101116102c257565b60406003198201126102c2576001600160401b03916004358381116102c25782613617916004016135bb565b939093926024359182116102c257613631916004016135bb565b9091565b60609060031901126102c2576001600160a01b039060043582811681036102c2579160243590811681036102c2579060443590565b604081019081106001600160401b038211176106ff57604052565b60a081019081106001600160401b038211176106ff57604052565b602081019081106001600160401b038211176106ff57604052565b606081019081106001600160401b038211176106ff57604052565b90601f801991011681019081106001600160401b038211176106ff57604052565b6001600160401b0381116106ff57601f01601f191660200190565b92919261371e826136f7565b9161372c60405193846136d6565b8294818452818301116102c2578281602093846000960137010152565b9080601f830112156102c25781602061376493359101613712565b90565b60606003198201126102c257600435916001600160401b036024358181116102c2578361379691600401613749565b926044359182116102c25761376491600401613749565b6001600160401b0381116106ff5760051b60200190565b81601f820112156102c2578035916020916137de846137ad565b936137ec60405195866136d6565b808552838086019160051b830101928084116102c257848301915b8483106138175750505050505090565b82356001600160401b0381116102c257869161383884848094890101613749565b815201920191613807565b9190916060818403126102c257604051906001600160401b039060608301828111848210176106ff57604052829481358381116102c25781613886918401613749565b845260208201358381116102c257816138a0918401613749565b602085015260408201359283116102c2576040926138be9201613749565b910152565b818102929181159184041417156138d657565b634e487b7160e01b600052601160045260246000fd5b8181106138f7575050565b600081556001016138ec565b600080516020614d1283398151915280549060008082558261392457505050565b6001916001600160ff1b038416840361398b578152602091602082209360011b8401935b848110613956575050505050565b808360029255828101805485825580613972575b505001613948565b613984918652868620908101906138ec565b388061396a565b634e487b7160e01b82526011600452602482fd5b156139a657565b60405162461bcd60e51b8152602060048201526016602482015275082e4e4c2f2e640d8cadccee8d040dad2e6dac2e8c6d60531b6044820152606490fd5b604051906139f18261366a565b6060602083600081520152565b91908110156126985760051b0190565b600080516020614d1283398151915280548210156126985760005260206000209060011b0190600090565b6001600160a01b03828116939184156123f457826000958187527f80bb2b638cc20bc4d0a60d66940f3ab4a00c1d7b313497ca82fb0b4ab0079302958660205260409785898220541697889233151580613b31575b5090613ac07fddf252ad1be2c89b69c2b068fc378daa952ba7f163c4a11628f55a4df523b3ef939285613b1257613c13565b8054600101905585825260205289812080546001600160a01b0319168517905580a41692838303613af15750505050565b6064945051926364283d7b60e01b8452600484015260248301526044820152fd5b613b1b88614578565b613b2486613c13565b8054600019019055613c13565b9193509193945080613b8b575b15613b4f5791879187949338613a8e565b888789613b6c576024915190637e27328960e01b82526004820152fd5b905163177e802f60e01b81523360048201526024810191909152604490fd5b503388148015613bbe575b80613b3e5750868352600080516020614db283398151915260205233868a8520541614613b3e565b50613bc888613c4c565b33845260205260ff8984205416613b96565b6001600160a01b031660009081527f31050a5cbe139738580cd5e882a7ccc0bc7ea0ba2dbe2141bade58b3ac3c65026020526040902090565b6001600160a01b031660009081527f80bb2b638cc20bc4d0a60d66940f3ab4a00c1d7b313497ca82fb0b4ab00793036020526040902090565b6001600160a01b031660009081527f80bb2b638cc20bc4d0a60d66940f3ab4a00c1d7b313497ca82fb0b4ab00793056020526040902090565b90604051918281549182825260209260208301916000526020600020936000905b828210613cbe57505050613cbc925003836136d6565b565b855484526001958601958895509381019390910190613ca6565b8051156126985760200190565b8051600110156126985760400190565b8051600210156126985760600190565b8051600310156126985760800190565b8051600410156126985760a00190565b80518210156126985760209160051b010190565b90600182811c92168015613d69575b6020831014613d5357565b634e487b7160e01b600052602260045260246000fd5b91607f1691613d48565b60001981146138d65760010190565b60405190613d8f8261366a565b60028252617b7d60f01b6020830152565b60405190613dad8261366a565b60048252636e616d6560e01b6020830152565b600080516020614d52833981519152546001600160a01b0316330361171b57565b906001600160601b03811691612710808411613e6657506001600160a01b0316918215613e4d576020604051613e168161366a565b848152015260a01b6001600160a01b031916177fdaedc9ab023613a7caf35e703657e986ccfad7e3eb0af93a2853f8d65dd86b0055565b604051635b6cc80560e11b815260006004820152602490fd5b8360449160405191636f483d0960e01b835260048301526024820152fd5b60008181527f80bb2b638cc20bc4d0a60d66940f3ab4a00c1d7b313497ca82fb0b4ab007930260205260409020546001600160a01b0316908115613ec6575090565b60249060405190637e27328960e01b82526004820152fd5b9081600052600080516020614d9283398151915260205260ff60406000205416613f3a5781613f306020927ff8e1a15aba9398e019f0b49df1a4fde98ee17ae345cb5f6b5e2c27f5033e8ce7946149ff565b50604051908152a1565b60405163deb7c63d60e01b815260048101839052602490fd5b6020818303126102c2578051906001600160401b0382116102c2570181601f820112156102c2578051613f85816136f7565b92613f9360405194856136d6565b818452602082840101116102c25761376491602080850191016134d0565b6040519063348051d760e11b82526004820152600081602481650f043a0000065afa90811561080457600091613fe5575090565b61376491503d806000833e6107f681836136d6565b916140239061401561376495936060865260608601906134f3565b9084820360208601526134f3565b9160408184039101526134f3565b906000916140536040519485938493633691975d60e21b855260048501613ffa565b0381650f043a0000035afa90811561080457600091613fe5575090565b60409060405191614080836136bb565b600283528260005b82811061409457505050565b806060602080938501015201614088565b6040519060c082018281106001600160401b038211176106ff57604052600582528160005b60a081106140d6575050565b8060606020809385010152016140ca565b604051906140f482613685565b600482528160005b60808110614108575050565b8060606020809385010152016140fc565b604051906141268261366a565b600b82526a3232b9b1b934b83a34b7b760a91b6020830152565b6040519061414d8261366a565b6005825264696d61676560d81b6020830152565b60ff1660ff81146138d65760010190565b604091604051906141828261366a565b601482526142a8602092737b22636f6c6c61626f7261746f7273223a5b5d7d60601b60208201526141b16140e7565b6141b9613da0565b6141c282613cd8565b526141cc81613cd8565b506141d5614119565b6141de82613ce5565b526141e881613ce5565b506141f1614140565b6141fa82613cf5565b5261420481613cf5565b506040516142118161366a565b600d81526c65787465726e616c5f6c696e6b60981b602082015261423482613d05565b5261423e81613d05565b506142476140e7565b91865161425384613cd8565b5261425d83613cd8565b50602087015161426c84613ce5565b5261427683613ce5565b50604087015161428584613cf5565b5261428f83613cf5565b50606087015161429e84613d05565b526106f983613d05565b906000915b608085015180519060ff851691821015614311576080926142d46143099361430393613d25565b51908951906142e28261366a565b601082526f636f6c6c61626f7261746f72732e2d3160801b89830152614031565b93614161565b9290506142ad565b505093509350505090565b600080516020614dd283398151915280546001600160a01b0319908116909155600080516020614d5283398151915280549182166001600160a01b0393841690811790915591167f8be0079c531659141344cd1fd0a4f28419497f9722a3daafe3b4186f6b6457e0600080a3565b3d156143b5573d9061439b826136f7565b916143a960405193846136d6565b82523d6000602084013e565b606090565b9190803b6143c9575b50505050565b61440b60018060a01b0380921694604051938493630a85bd0160e11b9687865233600487015216602485015260448401526080606484015260848301906134f3565b03906020816000938185885af190829082614483575b5050614452578261443061438a565b805191908261233857604051633250574960e11b815260048101839052602490fd5b6001600160e01b0319160361446b5750388080806143c3565b60249060405190633250574960e11b82526004820152fd5b909192506020813d6020116144cb575b816144a0602093836136d6565b810103126144c75751906001600160e01b0319821682036144c45750903880614421565b80fd5b5080fd5b3d9150614493565b604051906144e08261366a565b600d82526c617474726962757465732e2d3160981b6020830152565b6040519063023aa9ab60e61b82526004820152600081602481650f043a0000075afa90811561080457600091613fe5575090565b9091614547613764936040845260408401906134f3565b9160208184039101526134f3565b604051633e10510b60e01b81529160009183918291614053919060048401614530565b6000908152600080516020614db28339815191526020526040902080546001600160a01b0319169055565b60ff7ff0c57e16840df040f15088dc2f81fe391c3923bec73e23a9662efc9c229c6a005460401c16156145d257565b604051631afcd79f60e31b8152600490fd5b8051156146305760006146139160405180938192635cd3f3a160e01b83526020600484015260248301906134f3565b0381650f043a0000025afa90811561080457600091613fe5575090565b50613764613d82565b90600091600080516020614d1283398151915254835b81811061473d575060009381158015614703575b505050600080516020614cf2833981519152546040519060208201924284524460408401526001600160601b03199060601b1660608301526074820152607481526146ad81613685565b51902081156146ed57069060018201918281116138d657600183116146d157505090565b60646146df600193836138c3565b049003019081116138d65790565b634e487b7160e01b600052601260045260246000fd5b6050829394969202928084046050149015171561398b5761472957500491388080614663565b634e487b7160e01b81526012600452602490fd5b908161474e61477a96959493613a0e565b506040805161475c8161366a565b82546001600160a01b0390811682526001998a949192918501613c85565b928260209283810195865251169360009b5b6147a5575b50505050505060019192939495500161464f565b805180518d1015614864578c6147ba91613d25565b518251906331a9108f60e11b825260048201528381602481895afa809160009161482e575b50906147fb575085809798999a9b9c5b019b9a9998979661478c565b841689851614614813575b85809798999a9b9c6147ef565b856148228198999a9b9c613d73565b9b9a9998975050614806565b8581813d831161485d575b61484381836136d6565b810103126144c757519086821682036144c45750386147df565b503d614839565b50614791565b604051906148778261366a565b600a82526974726169745f7479706560b01b6020830152565b6040519061489d8261366a565b600582526476616c756560d81b6020830152565b908160209103126102c2575180151581036102c25790565b90808251908181526020809101926020808460051b8301019501936000915b8483106148f85750505050505090565b9091929394958480614916600193601f198682030187528a516134f3565b98019301930191949392906148e8565b6149579061405360009361496a9560405196879586956328d694bb60e21b87526060600488015260648701906134f3565b60031993848783030160248801526148c9565b918483030160448501526148c9565b60206149c7916040518093819263b480003360e01b83527f841f636c3ae717f882adaf710a5db29ca95821d91f8d637d2b614cbcb320c70060048401526040602484015260448301906134f3565b03816000650f043a0000075af1908115610804576000916149e6575090565b613764915060203d602011610ac957610abb81836136d6565b6149c791602091604051938492839263b480003360e01b845260048401526040602484015260448301906134f3565b6040614aa8614a3b613d82565b614a43614070565b614a4b61486a565b614a5482613cd8565b52614a5e81613cd8565b50614a67614890565b614a7082613ce5565b52614a7a81613ce5565b50614a83614070565b918551614a8f84613cd8565b52614a9983613cd8565b5060208601516106ef84613ce5565b9101518051614ab5575090565b60405161376492614ac58261366a565b600c82526b646973706c61795f7479706560a01b6020830152614031565b9060009161405360405194859384936309793f3560e41b855260048501613ffa565b6000614ba2614bb592614bc460405191614b1e836136bb565b602883527f617474726962757465732e232874726169745f747970653d3d223a74726169746020840152675f747970653a222960c01b604084015260405190614b668261366a565b600c82526b1d3a3930b4ba2fba3cb8329d60a11b602083015260405163caeac0a960e01b815260806004820152968795869560848701906134f3565b60031993848783030160248801526134f3565b918483030160448501526134f3565b600160648301520381650f043a0000055afa90811561080457600091613fe5575090565b604051630995955360e21b81529160209183918291614c0b919060048401614530565b0381650f043a0000035afa908115610804576000916149e6575090565b614053614c5c92614c6f95614c7f6000966040519889978897636d9401ad60e11b8952608060048a015260848901906134f3565b60031995868983030160248a01526134f3565b90848783030160448801526134f3565b918483030160648501526134f3565b90614cb55750805115614ca357805190602001fd5b604051630a12f52160e11b8152600490fd5b81511580614ce8575b614cc6575090565b604051639996b31560e01b81526001600160a01b039091166004820152602490fd5b50803b15614cbe56fe31050a5cbe139738580cd5e882a7ccc0bc7ea0ba2dbe2141bade58b3ac3c650031050a5cbe139738580cd5e882a7ccc0bc7ea0ba2dbe2141bade58b3ac3c650580bb2b638cc20bc4d0a60d66940f3ab4a00c1d7b313497ca82fb0b4ab00793009016d09d72d40fdae2fd8ceac6b6234c7706214fd39c1cd1e609a0528c199300985371f50cecfcb1a6dfdccb4c871d7a5d94b17a9d368860b42eaca20a68bf00935e9bcbc0809e5814f39d3828d0a7f7b9174743a7e081e81a47c083b0f4a40080bb2b638cc20bc4d0a60d66940f3ab4a00c1d7b313497ca82fb0b4ab0079304237e158222e3e6968b72b9db0d8043aacf074ad9f650f0d1606b4d82ee432c0080bb2b638cc20bc4d0a60d66940f3ab4a00c1d7b313497ca82fb0b4ab0079301a2646970667358221220413b6dc6b0a1b3763df70b4454e3a25bd5113bb0d1fc63febd810ea772ab7f3464736f6c63430008180033",
  "linkReferences": {},
  "deployedLinkReferences": {}
}