{
  "_format": "hh-sol-artifact-1",
  "contractName": "SimpleDropUpgradeable",
  "sourceName": "contracts/SimpleDropUpgradeable.sol",
  "abi": [
    {
      "inputs": [],
      "stateMutability": "nonpayable",
      "type": "constructor"
    },
    {
      "inputs": [
        {
          "internalType": "address",
          "name": "target",
          "type": "address"
        }
      ],
      "name": "AddressEmptyCode",
      "type": "error"
    },
    {
      "inputs": [
        {
          "internalType": "address",
          "name": "account",
          "type": "address"
        }
      ],
      "name": "AddressInsufficientBalance",
      "type": "error"
    },
    {
      "inputs": [],
      "name": "ContractMetadataCemented",
      "type": "error"
    },
    {
      "inputs": [],
      "name": "ContractMetadataUnauthorized",
      "type": "error"
    },
    {
      "inputs": [
        {
          "internalType": "address",
          "name": "implementation",
          "type": "address"
        }
      ],
      "name": "ERC1967InvalidImplementation",
      "type": "error"
    },
    {
      "inputs": [],
      "name": "ERC1967NonPayable",
      "type": "error"
    },
    {
      "inputs": [],
      "name": "ErrAllowListManagementUnathorized",
      "type": "error"
    },
    {
      "inputs": [
        {
          "internalType": "uint256",
          "name": "_dropId",
          "type": "uint256"
        }
      ],
      "name": "ErrInvalidDrop",
      "type": "error"
    },
    {
      "inputs": [
        {
          "internalType": "address",
          "name": "_tokenAddress",
          "type": "address"
        }
      ],
      "name": "ErrInvalidTokenType",
      "type": "error"
    },
    {
      "inputs": [
        {
          "internalType": "address",
          "name": "",
          "type": "address"
        }
      ],
      "name": "ErrNotAllowed",
      "type": "error"
    },
    {
      "inputs": [
        {
          "internalType": "uint256",
          "name": "_dropId",
          "type": "uint256"
        }
      ],
      "name": "ErrNotCreator",
      "type": "error"
    },
    {
      "inputs": [],
      "name": "FailedInnerCall",
      "type": "error"
    },
    {
      "inputs": [],
      "name": "InvalidInitialization",
      "type": "error"
    },
    {
      "inputs": [],
      "name": "NotInitializing",
      "type": "error"
    },
    {
      "inputs": [
        {
          "internalType": "address",
          "name": "owner",
          "type": "address"
        }
      ],
      "name": "OwnableInvalidOwner",
      "type": "error"
    },
    {
      "inputs": [
        {
          "internalType": "address",
          "name": "account",
          "type": "address"
        }
      ],
      "name": "OwnableUnauthorizedAccount",
      "type": "error"
    },
    {
      "inputs": [],
      "name": "UUPSUnauthorizedCallContext",
      "type": "error"
    },
    {
      "inputs": [
        {
          "internalType": "bytes32",
          "name": "slot",
          "type": "bytes32"
        }
      ],
      "name": "UUPSUnsupportedProxiableUUID",
      "type": "error"
    },
    {
      "anonymous": false,
      "inputs": [
        {
          "indexed": false,
          "internalType": "address",
          "name": "addr",
          "type": "address"
        }
      ],
      "name": "Allowed",
      "type": "event"
    },
    {
      "anonymous": false,
      "inputs": [],
      "name": "ContractURICemented",
      "type": "event"
    },
    {
      "anonymous": false,
      "inputs": [],
      "name": "ContractURIUpdated",
      "type": "event"
    },
    {
      "anonymous": false,
      "inputs": [
        {
          "indexed": false,
          "internalType": "address",
          "name": "addr",
          "type": "address"
        }
      ],
      "name": "Denied",
      "type": "event"
    },
    {
      "anonymous": false,
      "inputs": [
        {
          "indexed": true,
          "internalType": "uint256",
          "name": "id",
          "type": "uint256"
        }
      ],
      "name": "DropCancelled",
      "type": "event"
    },
    {
      "anonymous": false,
      "inputs": [
        {
          "indexed": true,
          "internalType": "uint256",
          "name": "id",
          "type": "uint256"
        },
        {
          "components": [
            {
              "internalType": "uint256",
              "name": "dropId",
              "type": "uint256"
            },
            {
              "internalType": "address",
              "name": "creator",
              "type": "address"
            },
            {
              "internalType": "address payable",
              "name": "recipient",
              "type": "address"
            },
            {
              "components": [
                {
                  "internalType": "address",
                  "name": "tokenAddress",
                  "type": "address"
                },
                {
                  "internalType": "uint256",
                  "name": "tokenId",
                  "type": "uint256"
                },
                {
                  "internalType": "enum TokenType",
                  "name": "tokenType",
                  "type": "uint8"
                }
              ],
              "internalType": "struct Token",
              "name": "token",
              "type": "tuple"
            },
            {
              "internalType": "uint32",
              "name": "maxAllowed",
              "type": "uint32"
            },
            {
              "internalType": "uint32",
              "name": "maxPerWallet",
              "type": "uint32"
            },
            {
              "internalType": "uint48",
              "name": "startDate",
              "type": "uint48"
            },
            {
              "internalType": "uint48",
              "name": "endDate",
              "type": "uint48"
            },
            {
              "internalType": "uint256",
              "name": "price",
              "type": "uint256"
            },
            {
              "internalType": "uint256",
              "name": "minted",
              "type": "uint256"
            },
            {
              "internalType": "bytes32",
              "name": "merkleRoot",
              "type": "bytes32"
            },
            {
              "internalType": "uint32",
              "name": "maxPerBlock",
              "type": "uint32"
            },
            {
              "internalType": "uint32",
              "name": "maxPerToken",
              "type": "uint32"
            },
            {
              "internalType": "uint256",
              "name": "reserves",
              "type": "uint256"
            },
            {
              "internalType": "uint256",
              "name": "reservesMinted",
              "type": "uint256"
            }
          ],
          "indexed": false,
          "internalType": "struct SimpleDropUpgradeable.Drop",
          "name": "drop",
          "type": "tuple"
        }
      ],
      "name": "DropCreated",
      "type": "event"
    },
    {
      "anonymous": false,
      "inputs": [
        {
          "indexed": true,
          "internalType": "uint256",
          "name": "id",
          "type": "uint256"
        },
        {
          "indexed": false,
          "internalType": "uint256",
          "name": "qty",
          "type": "uint256"
        },
        {
          "indexed": false,
          "internalType": "address",
          "name": "sender",
          "type": "address"
        },
        {
          "indexed": false,
          "internalType": "address",
          "name": "recipient",
          "type": "address"
        }
      ],
      "name": "DropMinted",
      "type": "event"
    },
    {
      "anonymous": false,
      "inputs": [
        {
          "indexed": false,
          "internalType": "uint64",
          "name": "version",
          "type": "uint64"
        }
      ],
      "name": "Initialized",
      "type": "event"
    },
    {
      "anonymous": false,
      "inputs": [
        {
          "indexed": true,
          "internalType": "address",
          "name": "previousOwner",
          "type": "address"
        },
        {
          "indexed": true,
          "internalType": "address",
          "name": "newOwner",
          "type": "address"
        }
      ],
      "name": "OwnershipTransferStarted",
      "type": "event"
    },
    {
      "anonymous": false,
      "inputs": [
        {
          "indexed": true,
          "internalType": "address",
          "name": "previousOwner",
          "type": "address"
        },
        {
          "indexed": true,
          "internalType": "address",
          "name": "newOwner",
          "type": "address"
        }
      ],
      "name": "OwnershipTransferred",
      "type": "event"
    },
    {
      "anonymous": false,
      "inputs": [
        {
          "indexed": true,
          "internalType": "address",
          "name": "implementation",
          "type": "address"
        }
      ],
      "name": "Upgraded",
      "type": "event"
    },
    {
      "inputs": [],
      "name": "UPGRADE_INTERFACE_VERSION",
      "outputs": [
        {
          "internalType": "string",
          "name": "",
          "type": "string"
        }
      ],
      "stateMutability": "view",
      "type": "function"
    },
    {
      "inputs": [],
      "name": "acceptOwnership",
      "outputs": [],
      "stateMutability": "nonpayable",
      "type": "function"
    },
    {
      "inputs": [
        {
          "internalType": "address",
          "name": "_addr",
          "type": "address"
        }
      ],
      "name": "allow",
      "outputs": [],
      "stateMutability": "nonpayable",
      "type": "function"
    },
    {
      "inputs": [
        {
          "internalType": "uint256",
          "name": "_dropId",
          "type": "uint256"
        }
      ],
      "name": "cancelDrop",
      "outputs": [],
      "stateMutability": "nonpayable",
      "type": "function"
    },
    {
      "inputs": [],
      "name": "cementContractMetadata",
      "outputs": [],
      "stateMutability": "nonpayable",
      "type": "function"
    },
    {
      "inputs": [],
      "name": "contractURI",
      "outputs": [
        {
          "internalType": "string",
          "name": "",
          "type": "string"
        }
      ],
      "stateMutability": "view",
      "type": "function"
    },
    {
      "inputs": [],
      "name": "contractURICemented",
      "outputs": [
        {
          "internalType": "bool",
          "name": "",
          "type": "bool"
        }
      ],
      "stateMutability": "view",
      "type": "function"
    },
    {
      "inputs": [
        {
          "components": [
            {
              "internalType": "address payable",
              "name": "recipient",
              "type": "address"
            },
            {
              "components": [
                {
                  "internalType": "address",
                  "name": "tokenAddress",
                  "type": "address"
                },
                {
                  "internalType": "uint256",
                  "name": "tokenId",
                  "type": "uint256"
                }
              ],
              "internalType": "struct SimpleToken",
              "name": "token",
              "type": "tuple"
            },
            {
              "internalType": "uint32",
              "name": "maxAllowed",
              "type": "uint32"
            },
            {
              "internalType": "uint32",
              "name": "maxPerWallet",
              "type": "uint32"
            },
            {
              "internalType": "uint48",
              "name": "startDate",
              "type": "uint48"
            },
            {
              "internalType": "uint48",
              "name": "endDate",
              "type": "uint48"
            },
            {
              "internalType": "uint256",
              "name": "price",
              "type": "uint256"
            },
            {
              "internalType": "bytes32",
              "name": "merkleRoot",
              "type": "bytes32"
            },
            {
              "internalType": "uint32",
              "name": "maxPerBlock",
              "type": "uint32"
            },
            {
              "internalType": "uint32",
              "name": "maxPerToken",
              "type": "uint32"
            },
            {
              "internalType": "uint256",
              "name": "reserves",
              "type": "uint256"
            }
          ],
          "internalType": "struct SimpleDropUpgradeable.DropParams",
          "name": "_params",
          "type": "tuple"
        }
      ],
      "name": "createDrop",
      "outputs": [
        {
          "internalType": "uint256",
          "name": "",
          "type": "uint256"
        }
      ],
      "stateMutability": "payable",
      "type": "function"
    },
    {
      "inputs": [
        {
          "internalType": "uint256[]",
          "name": "_tiers",
          "type": "uint256[]"
        },
        {
          "internalType": "uint256[]",
          "name": "_prices",
          "type": "uint256[]"
        }
      ],
      "name": "createTieredPricing",
      "outputs": [],
      "stateMutability": "nonpayable",
      "type": "function"
    },
    {
      "inputs": [
        {
          "internalType": "address",
          "name": "_addr",
          "type": "address"
        }
      ],
      "name": "deny",
      "outputs": [],
      "stateMutability": "nonpayable",
      "type": "function"
    },
    {
      "inputs": [
        {
          "internalType": "uint256",
          "name": "_dropId",
          "type": "uint256"
        }
      ],
      "name": "drop",
      "outputs": [
        {
          "components": [
            {
              "internalType": "uint256",
              "name": "dropId",
              "type": "uint256"
            },
            {
              "internalType": "address",
              "name": "creator",
              "type": "address"
            },
            {
              "internalType": "address payable",
              "name": "recipient",
              "type": "address"
            },
            {
              "components": [
                {
                  "internalType": "address",
                  "name": "tokenAddress",
                  "type": "address"
                },
                {
                  "internalType": "uint256",
                  "name": "tokenId",
                  "type": "uint256"
                },
                {
                  "internalType": "enum TokenType",
                  "name": "tokenType",
                  "type": "uint8"
                }
              ],
              "internalType": "struct Token",
              "name": "token",
              "type": "tuple"
            },
            {
              "internalType": "uint32",
              "name": "maxAllowed",
              "type": "uint32"
            },
            {
              "internalType": "uint32",
              "name": "maxPerWallet",
              "type": "uint32"
            },
            {
              "internalType": "uint48",
              "name": "startDate",
              "type": "uint48"
            },
            {
              "internalType": "uint48",
              "name": "endDate",
              "type": "uint48"
            },
            {
              "internalType": "uint256",
              "name": "price",
              "type": "uint256"
            },
            {
              "internalType": "uint256",
              "name": "minted",
              "type": "uint256"
            },
            {
              "internalType": "bytes32",
              "name": "merkleRoot",
              "type": "bytes32"
            },
            {
              "internalType": "uint32",
              "name": "maxPerBlock",
              "type": "uint32"
            },
            {
              "internalType": "uint32",
              "name": "maxPerToken",
              "type": "uint32"
            },
            {
              "internalType": "uint256",
              "name": "reserves",
              "type": "uint256"
            },
            {
              "internalType": "uint256",
              "name": "reservesMinted",
              "type": "uint256"
            }
          ],
          "internalType": "struct SimpleDropUpgradeable.Drop",
          "name": "",
          "type": "tuple"
        }
      ],
      "stateMutability": "view",
      "type": "function"
    },
    {
      "inputs": [
        {
          "internalType": "string",
          "name": "_name",
          "type": "string"
        },
        {
          "internalType": "address",
          "name": "_initialOwner",
          "type": "address"
        },
        {
          "internalType": "address payable",
          "name": "_feeRecipient",
          "type": "address"
        },
        {
          "internalType": "uint16",
          "name": "_fee",
          "type": "uint16"
        }
      ],
      "name": "initialize",
      "outputs": [],
      "stateMutability": "nonpayable",
      "type": "function"
    },
    {
      "inputs": [
        {
          "internalType": "address",
          "name": "_addr",
          "type": "address"
        }
      ],
      "name": "isAllowed",
      "outputs": [
        {
          "internalType": "bool",
          "name": "",
          "type": "bool"
        }
      ],
      "stateMutability": "view",
      "type": "function"
    },
    {
      "inputs": [
        {
          "internalType": "uint256",
          "name": "_dropId",
          "type": "uint256"
        },
        {
          "internalType": "uint256",
          "name": "_qty",
          "type": "uint256"
        },
        {
          "internalType": "address",
          "name": "_recipient",
          "type": "address"
        },
        {
          "internalType": "bytes32[]",
          "name": "_merkleProof",
          "type": "bytes32[]"
        }
      ],
      "name": "mint",
      "outputs": [],
      "stateMutability": "payable",
      "type": "function"
    },
    {
      "inputs": [
        {
          "internalType": "uint256",
          "name": "_dropId",
          "type": "uint256"
        },
        {
          "internalType": "uint256",
          "name": "_qty",
          "type": "uint256"
        },
        {
          "internalType": "address",
          "name": "_recipient",
          "type": "address"
        }
      ],
      "name": "mintReserves",
      "outputs": [],
      "stateMutability": "nonpayable",
      "type": "function"
    },
    {
      "inputs": [
        {
          "internalType": "uint256",
          "name": "_dropId",
          "type": "uint256"
        },
        {
          "internalType": "address",
          "name": "_minter",
          "type": "address"
        }
      ],
      "name": "minted",
      "outputs": [
        {
          "internalType": "uint256",
          "name": "",
          "type": "uint256"
        }
      ],
      "stateMutability": "view",
      "type": "function"
    },
    {
      "inputs": [
        {
          "internalType": "uint256",
          "name": "_dropId",
          "type": "uint256"
        }
      ],
      "name": "minted",
      "outputs": [
        {
          "internalType": "uint256",
          "name": "",
          "type": "uint256"
        }
      ],
      "stateMutability": "view",
      "type": "function"
    },
    {
      "inputs": [],
      "name": "name",
      "outputs": [
        {
          "internalType": "string",
          "name": "",
          "type": "string"
        }
      ],
      "stateMutability": "view",
      "type": "function"
    },
    {
      "inputs": [],
      "name": "owner",
      "outputs": [
        {
          "internalType": "address",
          "name": "",
          "type": "address"
        }
      ],
      "stateMutability": "view",
      "type": "function"
    },
    {
      "inputs": [],
      "name": "pendingOwner",
      "outputs": [
        {
          "internalType": "address",
          "name": "",
          "type": "address"
        }
      ],
      "stateMutability": "view",
      "type": "function"
    },
    {
      "inputs": [],
      "name": "proxiableUUID",
      "outputs": [
        {
          "internalType": "bytes32",
          "name": "",
          "type": "bytes32"
        }
      ],
      "stateMutability": "view",
      "type": "function"
    },
    {
      "inputs": [],
      "name": "renounceOwnership",
      "outputs": [],
      "stateMutability": "nonpayable",
      "type": "function"
    },
    {
      "inputs": [
        {
          "components": [
            {
              "internalType": "string",
              "name": "name",
              "type": "string"
            },
            {
              "internalType": "string",
              "name": "description",
              "type": "string"
            },
            {
              "internalType": "string",
              "name": "image",
              "type": "string"
            },
            {
              "internalType": "string",
              "name": "externalLink",
              "type": "string"
            },
            {
              "internalType": "string[]",
              "name": "collaborators",
              "type": "string[]"
            }
          ],
          "internalType": "struct StdContractMetadata",
          "name": "_data",
          "type": "tuple"
        }
      ],
      "name": "setContractMetadata",
      "outputs": [],
      "stateMutability": "nonpayable",
      "type": "function"
    },
    {
      "inputs": [
        {
          "components": [
            {
              "internalType": "string",
              "name": "name",
              "type": "string"
            }
          ],
          "internalType": "struct RequiredContractMetadata",
          "name": "_data",
          "type": "tuple"
        }
      ],
      "name": "setContractMetadata",
      "outputs": [],
      "stateMutability": "nonpayable",
      "type": "function"
    },
    {
      "inputs": [
        {
          "components": [
            {
              "internalType": "string",
              "name": "name",
              "type": "string"
            },
            {
              "internalType": "string",
              "name": "description",
              "type": "string"
            },
            {
              "internalType": "string",
              "name": "image",
              "type": "string"
            },
            {
              "internalType": "string",
              "name": "bannerImage",
              "type": "string"
            },
            {
              "internalType": "string",
              "name": "featuredImage",
              "type": "string"
            },
            {
              "internalType": "string",
              "name": "externalLink",
              "type": "string"
            },
            {
              "internalType": "string[]",
              "name": "collaborators",
              "type": "string[]"
            }
          ],
          "internalType": "struct FullContractMetadata",
          "name": "_data",
          "type": "tuple"
        }
      ],
      "name": "setContractMetadata",
      "outputs": [],
      "stateMutability": "nonpayable",
      "type": "function"
    },
    {
      "inputs": [
        {
          "internalType": "string",
          "name": "_jsonBlob",
          "type": "string"
        }
      ],
      "name": "setContractMetadataRaw",
      "outputs": [],
      "stateMutability": "nonpayable",
      "type": "function"
    },
    {
      "inputs": [
        {
          "internalType": "uint16",
          "name": "_fee",
          "type": "uint16"
        }
      ],
      "name": "setPlatformFee",
      "outputs": [],
      "stateMutability": "nonpayable",
      "type": "function"
    },
    {
      "inputs": [
        {
          "internalType": "address payable",
          "name": "_feeRecipient",
          "type": "address"
        }
      ],
      "name": "setPlatformFeeRecipient",
      "outputs": [],
      "stateMutability": "nonpayable",
      "type": "function"
    },
    {
      "inputs": [
        {
          "internalType": "uint256",
          "name": "_dropId",
          "type": "uint256"
        },
        {
          "internalType": "uint256",
          "name": "_tieredPricingId",
          "type": "uint256"
        }
      ],
      "name": "setTieredPricing",
      "outputs": [],
      "stateMutability": "nonpayable",
      "type": "function"
    },
    {
      "inputs": [
        {
          "internalType": "address",
          "name": "newOwner",
          "type": "address"
        }
      ],
      "name": "transferOwnership",
      "outputs": [],
      "stateMutability": "nonpayable",
      "type": "function"
    },
    {
      "inputs": [
        {
          "internalType": "address",
          "name": "newImplementation",
          "type": "address"
        },
        {
          "internalType": "bytes",
          "name": "data",
          "type": "bytes"
        }
      ],
      "name": "upgradeToAndCall",
      "outputs": [],
      "stateMutability": "payable",
      "type": "function"
    }
  ],
  "bytecode": "0x60a08060405234620000d157306080527ff0c57e16840df040f15088dc2f81fe391c3923bec73e23a9662efc9c229c6a009081549060ff8260401c16620000c257506001600160401b036002600160401b0319828216016200007c575b604051613c659081620000d782396080518181816128e5015261299e0152f35b6001600160401b031990911681179091556040519081527fc7f505b2f371ae2175ee4913f4499e1f2633a7b5936321eed1cdaeb6115181d290602090a13880806200005c565b63f92ee8a960e01b8152600490fd5b600080fdfe608080604052600436101561001357600080fd5b600090813560e01c90816306fdde0314612d38575080630766c1a614612d085780631871e24314612ce3578063211d9a5314612b5a5780634f1ef2861461294f57806352d1902d146128d25780635cbc742c146128a65780636172c1da146125315780636887a0e5146124ce57806369e6d78e146123e4578063715018a6146123635780637661bd4e1461207557806379ba5097146120225780637dc0bf3f14611fe857806383ab79f114611f775780638da5cb5b14611f4157806395e7168814611a795780639c52a7f1146119ee5780639e7b838814611652578063a25ffea814610a62578063ad3cb1cc14610a1c578063babcc539146109cf578063c3311f691461094f578063d4895df0146108a4578063e271068714610793578063e30c39781461075d578063e8a3d485146106ce578063eab5fdf61461039b578063efcf575414610257578063f2fde38b146101cf5763ff9913e81461017657600080fd5b346101cc5760203660031901126101cc5761018f612e5d565b600080516020613b50833981519152546001600160a01b031633036101ba576101b79061344d565b80f35b6040516308e4bb7960e31b8152600490fd5b80fd5b50346101cc5760203660031901126101cc576101e9612e5d565b6101f161342c565b600080516020613bf083398151915280546001600160a01b0319166001600160a01b03928316908117909155600080516020613b50833981519152549091167f38d16b8cac22d99fc7c124b9cd0de2d3fa1faef420bfe791d8c362d765e227008380a380f35b50346101cc5760203660031901126101cc576004356001600160401b03811161039757610288903690600401613098565b600080516020613b50833981519152546001600160a01b031633036103855760ff600080516020613b7083398151915254166103735760206102fa916040518093819263b480003360e01b8352600080516020613c108339815191526004840152604060248401526044830190612e38565b038185650f043a0000075af1801561036857610339575b507fa5d4097edda6d87cb9329af83fb3712ef77eeb13738ffe43cc35a4ce305ad9628180a180f35b61035a9060203d602011610361575b6103528183613025565b8101906137a5565b5038610311565b503d610348565b6040513d84823e3d90fd5b6040516350a3adc960e01b8152600490fd5b604051639f7f092560e01b8152600490fd5b5080fd5b50346101cc57602060031981813601126106ca576004356001600160401b03918282116106c65760e09082360301126106c2576040519060e08201828110848211176106ac5760405280600401358381116106a8576104009060043691840101613098565b825260248101358381116106a85761041e9060043691840101613098565b9084830191825260448101358481116106a4576104419060043691840101613098565b916040840192835260648201358581116106a0576104659060043691850101613098565b9360608101948552608483013586811161069c576104899060043691860101613098565b936080820194855260a4840135878111610698576104ad9060043691870101613098565b60a0830190815260c4850135978811610698576104d661050c9560046105bf9a369201016130cd565b928360c08201525193519151905191604051946104f286612fdc565b85528985015260408401526060830152608082015261354e565b6105146134aa565b916040516105218161300a565b600c81526b62616e6e65725f696d61676560a01b8782015261054284613511565b5261054c83613511565b506040516105598161300a565b600e81526d66656174757265645f696d61676560901b8782015261057c8461351e565b526105868361351e565b5061058f6134aa565b935161059a85613511565b526105a484613511565b50516105af8461351e565b526105b98361351e565b50613a8b565b600080516020613b50833981519152546001600160a01b031633036103855760ff600080516020613b7083398151915254166103735781610630916040518093819263b480003360e01b8352600080516020613c108339815191526004840152604060248401526044830190612e38565b038186650f043a0000075af1801561068d5761066f575b827fa5d4097edda6d87cb9329af83fb3712ef77eeb13738ffe43cc35a4ce305ad9628180a180f35b8161068592903d10610361576103528183613025565b503880610647565b6040513d85823e3d90fd5b8980fd5b8880fd5b8780fd5b8680fd5b8580fd5b634e487b7160e01b600052604160045260246000fd5b8380fd5b8480fd5b8280fd5b50346101cc57806003193601126101cc57604051639ed19ddb60e01b8152600080516020613c1083398151915260048201528181602481650f043a0000075afa9081156103685782610736939261073a575b5050604051918291602083526020830190612e38565b0390f35b61075692503d8091833e61074e8183613025565b8101906133ce565b3880610720565b50346101cc57806003193601126101cc57600080516020613bf0833981519152546040516001600160a01b039091168152602090f35b50346101cc5760203660031901126101cc57600435808252600080516020613b30833981519152602081905260408320600101546001600160a01b03161561088b57338352600080516020613bb083398151915260205260ff60408420541615610873578183526020526000600c6040842082815584600182015584600282015584600382015582600482015584600582015584600682015582600782015582600882015582600982015584600a82015582600b82015501557f7720203ab651e19ea5b0e9fbba706c7657b66e1ef80a994fa34884ded416ba758280a280f35b60405163e75e7a5f60e01b8152336004820152602490fd5b60405163831d32a560e01b815260048101839052602490fd5b50346101cc5760403660031901126101cc57600435808252600080516020613b3083398151915260205260408220600101546001600160a01b03161561093757338252600080516020613bb083398151915260205260ff604083205416156108735781527f220b301e849f0e7939d5b8f36c982013834343e674bcbcf2ce548a85ebe8f207602052602435604082205580f35b6024906040519063831d32a560e01b82526004820152fd5b50346101cc57602060031981813601126106ca57600435906001600160401b03908183116106c657839083360301126106c25760405190838201828110828211176106ac5760405282600401359081116106c6576105bf9260046109b69236920101613098565b8091526109c16133b0565b6109c961317c565b90613968565b50346101cc5760203660031901126101cc576001600160a01b036109f1612e5d565b16600052600080516020613bb0833981519152602052602060ff604060002054166040519015158152f35b50346101cc57806003193601126101cc57610736604051610a3c8161300a565b60058152640352e302e360dc1b6020820152604051918291602083526020830190612e38565b5060803660031901126101cc57610a77612e78565b6064356001600160401b0381116106ca57610a9690369060040161314c565b6004358452600080516020613b3083398151915260205260408420600101546001600160a01b03161561163957333b61160357610ad6602435151561333b565b6004358452600080516020613b30833981519152602052610b5e60076040862001547f220b301e849f0e7939d5b8f36c982013834343e674bcbcf2ce548a85ebe8f207602052604086205486527f220b301e849f0e7939d5b8f36c982013834343e674bcbcf2ce548a85ebe8f2066020526040862060028101546115e3575b506024356132a3565b918261159e575b6004358552600080516020613b3083398151915260205265ffffffffffff600660408720015460401c16421061156b576004358552600080516020613b3083398151915260205265ffffffffffff600660408720015460701c1680611532575b506004358552600080516020613b30833981519152602052610bec600360408720016131a8565b6004358652600080516020613b3083398151915260205263ffffffff60066040882001541661145f575b6004358652600080516020613b3083398151915260205263ffffffff600660408820015460201c166113e0575b6004358652600080516020613b3083398151915260205263ffffffff600a60408820015416611323575b6004358652600080516020613b3083398151915260205263ffffffff600a60408820015460201c166112a8575b506004358552600080516020613b3083398151915260205260096040862001546111a6575b50506004358352600080516020613b308339815191526020526040832090600860048301549201610cf3602435825461332e565b905560043584527f220b301e849f0e7939d5b8f36c982013834343e674bcbcf2ce548a85ebe8f2026020526040842060018060a01b03841690816000526020526040600020610d45602435825461332e565b905560043585527f220b301e849f0e7939d5b8f36c982013834343e674bcbcf2ce548a85ebe8f2046020526040852081600052602052604060002043865260205260408520610d97602435825461332e565b90556004358552600080516020613b308339815191526020526040852060030154610dca906001600160a01b03166131e3565b83865260205260408520610de1602435825461332e565b90556004358552600080516020613b308339815191526020526040852060030154610e14906001600160a01b031661321c565b83865260205260408520906000526020526040600020610e37602435825461332e565b905560043584527f220b301e849f0e7939d5b8f36c982013834343e674bcbcf2ce548a85ebe8f207602052604084205484527f220b301e849f0e7939d5b8f36c982013834343e674bcbcf2ce548a85ebe8f20660205260408420600281015480611130575b505080806110c4575b508061108c575b506004358352600080516020613b3083398151915260205260ff600560408520015416600281101561107857839190600103610faa576004358252600080516020613b3083398151915260205260408220600301546001600160a01b0316803b156106ca57604051630ab714fb60e11b81526001600160a01b03851660048201526024808201939093529135604483015282908290606490829084905af1801561036857610f96575b50505b6040805160243581523360208201526001600160a01b039092169082015260043590600080516020613bd08339815191529080606081015b0390a280f35b610f9f90612ff7565b610397578138610f55565b50506004358252600080516020613b3083398151915260205260ff600560408420015416600281101561106457610f58576004358252600080516020613b30833981519152602052604082206003015482906001600160a01b0316803b15610397576040516340c10f1960e01b81526001600160a01b038416600482015260248035908201529082908290604490829084905af1801561036857611050575b5050610f58565b61105990612ff7565b610397578138611049565b634e487b7160e01b83526021600452602483fd5b634e487b7160e01b84526021600452602484fd5b6004358452600080516020613b3083398151915260205260408420600201546110be91906001600160a01b0316613913565b38610eac565b7f220b301e849f0e7939d5b8f36c982013834343e674bcbcf2ce548a85ebe8f20354906127106110f861ffff8416836132a3565b049182611107575b5050610ea5565b611128935061112390839060101c6001600160a01b0316613913565b6133a3565b388080611100565b61113d602435835461332e565b8083556001830154916001830183116111925760018301109081611171575b5015610e9c5760018091019101553880610e9c565b90506111836001830160028501613375565b90549060031b1c11153861115c565b634e487b7160e01b88526011600452602488fd5b604080516001600160a01b038616602082019081526001828401529181529192916111d081612fc1565b51902060405160208101918252602081526111ea8161300a565b519020916004358652600080516020613b308339815191526020526009604087200154929186915b81831061126d5750505003611228573880610cbf565b60405162461bcd60e51b815260206004820152601d60248201527f436f756c64206e6f7420766572696679206d65726b6c652070726f6f660000006044820152606490fd5b9091928360051b820135908181106000146112975788526020526001604088205b93019190611212565b90885260205260016040882061128e565b80516020906112bf906001600160a01b031661321c565b91015186526020526040852060018060a01b03851660005260205261131d6112ee60243560406000205461332e565b6004358752600080516020613b3083398151915260205263ffffffff600a60408920015460201c1610156138a2565b38610c9a565b7f220b301e849f0e7939d5b8f36c982013834343e674bcbcf2ce548a85ebe8f2046020526040862060018060a01b0386166000526020526040600020438752602052611375602435604088205461332e565b6004358752600080516020613b3083398151915260205263ffffffff600a604089200154161015610c6d5760405162461bcd60e51b8152602060048201526018602482015277189b1bd8dac81b585e081b5a5b9d1cc8195e18d95959195960421b6044820152606490fd5b7f220b301e849f0e7939d5b8f36c982013834343e674bcbcf2ce548a85ebe8f2026020526040862060018060a01b03861660005260205261145a61142b60243560406000205461332e565b6004358852600080516020613b3083398151915260205263ffffffff600660408a20015460201c1610156138a2565b610c43565b8051611473906001600160a01b03166131e3565b602082015187526020526114aa60408720546004358852600080516020613b30833981519152602052600c604089200154906133a3565b6004358752600080516020613b308339815191526020526114de60408820600b63ffffffff600683015416910154906133a3565b81811115611502576114fd916114f3916133a3565b602435111561333b565b610c16565b60405162461bcd60e51b81526020600482015260086024820152671cdbdb19081bdd5d60c21b6044820152606490fd5b421161153e5738610bc5565b60405162461bcd60e51b8152602060048201526005602482015264195b99195960da1b6044820152606490fd5b60405162461bcd60e51b815260206004820152600b60248201526a1b9bdd081cdd185c9d195960aa1b6044820152606490fd5b348314610b655760405162461bcd60e51b81526020600482015260166024820152751a5b9d985b1a59081d985b1d59481c9958d95a5d995960521b6044820152606490fd5b6115f69150600360018201549101613375565b90549060031b1c38610b55565b60405162461bcd60e51b815260206004820152600e60248201526d34b73b30b634b21039b2b73232b960911b6044820152606490fd5b602460405163831d32a560e01b81526004356004820152fd5b50346101cc5760603660031901126101cc576024906004358235611674612e78565b828452600080516020613b308339815191526020818152604086206001015490916001600160a01b03918216156119d657338752600080516020613bb0833981519152835260ff604088205416156119bf578587528083526116f56116e086600c60408b20015461332e565b878952828552600b60408a200154101561333b565b858752808352604087209260048401549363ffffffff908160068201541661193c575b50508688528181526008604089200161173287825461332e565b9055868852818152600c604089200161174c87825461332e565b905586885281815261176683600360408b200154166131e3565b84895281526040882061177a87825461332e565b905586885281815260ff600560408a20015416600281101561192957908960018a969594931460001461184f575087855252600360408420015416803b156106ca57604051630ab714fb60e11b81526001600160a01b038516600482015260248101929092526044820185905282908290606490829084905af180156103685761183b575b5050600080516020613bd0833981519152915b604080519182523360208301526001600160a01b03909216918101919091528060608101610f90565b61184490612ff7565b6106c25783856117ff565b919350919387909695965282825260ff600560408a20015416906002821015611917575015611892575b50505090600080516020613bd083398151915291611812565b85875252600360408620015416803b156106c6576040516340c10f1960e01b81526001600160a01b0384166004820152602481018390529085908290604490829084905af1801561190c576118e9575b8080611879565b93611904600080516020613bd0833981519152939295612ff7565b9390916118e2565b6040513d87823e3d90fd5b634e487b7160e01b8952602160045288fd5b634e487b7160e01b895260216004528989fd5b600361194891016131a8565b82611955868351166131e3565b9101518a52825261196a8760408b205461332e565b90888a52838352600660408b2001541610611986573880611718565b60649060138a6040519262461bcd60e51b8452600484015282015272195e18d959591cc81b585e08185b1b1bddd959606a1b6044820152fd5b60405163e75e7a5f60e01b81523360048201528890fd5b60405163831d32a560e01b8152600481018790528890fd5b50346101cc5760203660031901126101cc57611a08612e5d565b600080516020613b50833981519152546001600160a01b039190821633036101ba5716808252600080516020613bb083398151915260209081526040808420805460ff19169055519182527fe7d05e27c4cddc4a17e346cc1468f78eb961172691d9eda368c4b9b1c0d8e02f91a180f35b506101803660031901126101cc5765ffffffffffff611a966132db565b1665ffffffffffff611aa66132f0565b169081611e9f575b505063ffffffff611abd613305565b16611e2f575b611acb613318565b611b07611ade611ad9613318565b6137bd565b60405192611aeb84612fc1565b6001600160a01b0316835260443560208401526040830161319c565b600080516020613b9083398151915254600435916001600160a01b03831683036106c257611b33613305565b60843563ffffffff811681036106a857611b4b6132db565b611b536132f0565b91610124359363ffffffff8516850361069c57610144359563ffffffff871687036106985760405198611b858a612fa5565b888a523360208b0152600160a01b600190031660408a0152606089015263ffffffff16608088015263ffffffff1660a087015265ffffffffffff1660c086015265ffffffffffff1660e085015260e435610100850152846101208501526101043561014085015263ffffffff1661016084015263ffffffff16610180830152610164356101a0830152826101c08301528252600080516020613b30833981519152602052604082208151815560018101600160a01b6001900360208401511690600160a01b6001900319918282541617905560028201600160a01b600190036040850151168282541617905560038201606084015191600160a01b600190038351169082541617905560208101516004830155604001516002811015611078576020935060ff80196005840154169116176005820155611db46006820163ffffffff6080850151169063ffffffff199182825416178155611d0d63ffffffff60a087015116829067ffffffff0000000082549160201b169067ffffffff000000001916179055565b60c0850151815465ffffffffffff60701b60e088015160701b169165ffffffffffff60401b9060401b16906bffffffffffffffffffffffff60401b191617179055610100840151600784015561012084015160088401556101408401516009840155600a83019063ffffffff610160860151169082541617815563ffffffff6101808501511667ffffffff0000000082549160201b169067ffffffff000000001916179055565b6101a0820151600b820155600c6101c0830151910155611de2600080516020613b90833981519152546132cc565b600080516020613b908339815191525580517f85e08c49f4a90f08efd30a5c4c7456cd10cf7f8deb278912e44b17ff9f6ebef960405180611e238582612e8e565b0390a251604051908152f35b63ffffffff611e3c613305565b166101643510611ac35760405162461bcd60e51b815260206004820152602b60248201527f72657365727665732063616e6e6f742062652067726561746572207468616e2060448201526a1b585e08185b1b1bddd95960aa1b6064820152608490fd5b811115611eeb57421015611eb4573880611aae565b60405162461bcd60e51b815260206004820152600f60248201526e195b9911185d1948195e1c1a5c9959608a1b6044820152606490fd5b60405162461bcd60e51b815260206004820152602860248201527f7374617274446174652063616e6e6f742062652067726561746572207468616e60448201526720656e644461746560c01b6064820152608490fd5b50346101cc57806003193601126101cc57600080516020613b50833981519152546040516001600160a01b039091168152602090f35b50346101cc57806003193601126101cc57600080516020613b50833981519152546001600160a01b0316330361038557600080516020613b70833981519152805460ff191660011790557f975c2fc9ddf45852b3fc20d6e75b3b08b461c20ce297d2fd4313300c92f27bb78180a180f35b50346101cc5760203660031901126101cc57600860406020926004358152600080516020613b308339815191528452200154604051908152f35b50346101cc57806003193601126101cc57600080516020613bf083398151915254336001600160a01b039091160361205d576101b733613737565b60405163118cdaa760e01b8152336004820152602490fd5b50346101cc5760403660031901126101cc576001600160401b036004358181116106ca576120a790369060040161314c565b909160249283358281116106a8576120c390369060040161314c565b949094338752602091600080516020613bb0833981519152835260ff6040892054161561234e5785151580612345575b15612303577f220b301e849f0e7939d5b8f36c982013834343e674bcbcf2ce548a85ebe8f205968754156122fa575b6040519460808601868110888211176122e7576121619291612152916040528b8852868801998c8b523691613255565b93604087019485523691613255565b9360608101948552875489527f220b301e849f0e7939d5b8f36c982013834343e674bcbcf2ce548a85ebe8f20684526040892090518155600196516001820155600281019251928351908782116122e757600160401b948583116122d45786908c848454918186558282106122a4575b50505001908b52858b20898c5b848110612292575050505050600301935191825195861161227f57851161226d575081908354858555808610612243575b500191865280862090865b84811061223257878761222d81546132cc565b905580f35b83518382015592810192850161221a565b8489528686848b2092830192015b82811061225f57505061220f565b8a8155859450889101612251565b634e487b7160e01b8852604160045287fd5b50634e487b7160e01b8852604160045287fd5b88845194019381840155018a906121de565b8d9150858152868582209384019301905b8382106122c65790508691506121d1565b81558a94508d91018f6122b5565b634e487b7160e01b8c526041600452848cfd5b634e487b7160e01b8b526041600452838bfd5b60018855612122565b606490836040519162461bcd60e51b83528160048401528201527f746965727320616e6420707269636573206c656e677468206d69736d617463686044820152fd5b508186146120f3565b60405163e75e7a5f60e01b8152336004820152fd5b50346101cc57806003193601126101cc5761237c61342c565b600080516020613bf083398151915280546001600160a01b0319908116909155600080516020613b508339815191528054918216905581906001600160a01b03167f8be0079c531659141344cd1fd0a4f28419497f9722a3daafe3b4186f6b6457e08280a380f35b50346101cc5760031960203682011261039757600435906001600160401b03908183116106c25760a09083360301126106ca576040519061242482612fdc565b82600401358181116106c6576124409060043691860101613098565b825260248301358181116106c65761245e9060043691860101613098565b602083015260448301358181116106c65761247f9060043691860101613098565b604083015260648301358181116106c6576124a09060043691860101613098565b606083015260848301359081116106c2576102889260046124c492369201016130cd565b608082015261354e565b50346101cc5760403660031901126101cc5760406020916124ed612f8f565b60043582527f220b301e849f0e7939d5b8f36c982013834343e674bcbcf2ce548a85ebe8f20284528282206001600160a01b03909116825283522054604051908152f35b50346101cc5760803660031901126101cc576004356001600160401b038082116106ca57366023830112156106ca5781600401358181116106c25736602482850101116106c257612580612f8f565b90612589612e78565b906064359161ffff831683036106a4577ff0c57e16840df040f15088dc2f81fe391c3923bec73e23a9662efc9c229c6a0095865460ff8160401c16159681168015908161289e575b6001149081612894575b15908161288b575b506128795767ffffffffffffffff19811660011788558661285a575b506126086139ed565b6126106139ed565b6001600160a01b039285841615612841576126649161264c9161263288613737565b61263a6139ed565b6126426139ed565b6024369201613061565b6126546139ed565b61265c6139ed565b6109c16133b0565b91600080516020613b50833981519152541633036103855760ff600080516020613b7083398151915254166103735760206126cf926040518094819263b480003360e01b8352600080516020613c108339815191526004840152604060248401526044830190612e38565b03818a650f043a0000075af180156128365761279e9461276c9361272492612817575b507fa5d4097edda6d87cb9329af83fb3712ef77eeb13738ffe43cc35a4ce305ad9628980a161271f6139ed565b61344d565b7f220b301e849f0e7939d5b8f36c982013834343e674bcbcf2ce548a85ebe8f203805462010000600160b01b03191660109290921b62010000600160b01b0316919091179055565b61ffff7f220b301e849f0e7939d5b8f36c982013834343e674bcbcf2ce548a85ebe8f203911661ffff19825416179055565b6001600080516020613b908339815191525560017f220b301e849f0e7939d5b8f36c982013834343e674bcbcf2ce548a85ebe8f205556127dc575080f35b805460ff60401b19169055604051600181527fc7f505b2f371ae2175ee4913f4499e1f2633a7b5936321eed1cdaeb6115181d290602090a180f35b61282f9060203d602011610361576103528183613025565b50386126f2565b6040513d89823e3d90fd5b604051631e4fbdf760e01b8152600481018a9052602490fd5b68ffffffffffffffffff191668010000000000000001178755386125ff565b60405163f92ee8a960e01b8152600490fd5b905015386125e3565b303b1591506125db565b8891506125d1565b50346101cc5760203660031901126101cc5760043561ffff81168103610397576101b79061276c61342c565b50346101cc57806003193601126101cc577f00000000000000000000000000000000000000000000000000000000000000006001600160a01b0316300361293d5760206040517f360894a13ba1a3210667c828492db98dca3e2076cc3735a920a3ca505d382bbc8152f35b60405163703e46dd60e11b8152600490fd5b5060403660031901126101cc57612964612e5d565b6024356001600160401b0381116106ca57366023820112156106ca57612994903690602481600401359101613061565b6001600160a01b037f00000000000000000000000000000000000000000000000000000000000000008116308114908115612b2c575b5061293d576129d761342c565b8216916040516352d1902d60e01b8152602081600481875afa859181612af8575b50612a1657604051634c9c8ce360e01b815260048101859052602490fd5b9284937f360894a13ba1a3210667c828492db98dca3e2076cc3735a920a3ca505d382bbc90818103612ae05750823b15612ac75780546001600160a01b0319168217905560405184917fbc7cd75a20ee27fd9adebab32041f755214dbc6bffa90cc0225b39da2e5c2d3b8380a2835115612aab575080836020612aa795519101845af4612aa16138e3565b91613ade565b5080f35b9250505034612ab8575080f35b63b398979f60e01b8152600490fd5b604051634c9c8ce360e01b815260048101839052602490fd5b60249060405190632a87526960e21b82526004820152fd5b9091506020813d602011612b24575b81612b1460209383613025565b810103126106a8575190386129f8565b3d9150612b07565b9050817f360894a13ba1a3210667c828492db98dca3e2076cc3735a920a3ca505d382bbc54161415386129ca565b50346101cc576020806003193601126103975761073691600c60405191612b8083612fa5565b8083528084840152806040840152604051612b9a81612fc1565b818152818582015281604082015260608401528060808401528060a08401528060c08401528060e0840152610100908082850152610120948186860152610140928284870152610160838188015261018092848489015260406101a09580878b0152806101c0809b01526004358152600080516020613b308339815191528352209560405199612c298b612fa5565b87548b5260018801546001600160a01b03908116848d015260028901541660408c0152612c58600389016131a8565b60608c015260068801549463ffffffff958c60808883169101528c60a08883881c1691015265ffffffffffff908d60c0838360401c1691015260701c1660e08d01526007890154908c01526008880154908b01526009870154908a0152600a86015491838316908a01521c1690860152600b8201549085015201549082015260405191829182612e8e565b50346101cc5760203660031901126101cc576101b7612d00612e5d565b61272461342c565b50346101cc57806003193601126101cc57602060ff600080516020613b7083398151915254166040519015158152f35b90503461039757816003199181833601126103975763023aa9ab60e61b8152600080516020613c1083398151915260048201528181602481650f043a0000075afa801561036857612dba918391612dfb575b50612dc9612d9661317c565b946040519586948594633e10510b60e01b8652604060048701526044860190612e38565b91848303016024850152612e38565b0381650f043a0000035afa9081156103685782610736939261073a575050604051918291602083526020830190612e38565b612e0f91503d8085833e61074e8183613025565b38612d8a565b60005b838110612e285750506000910152565b8181015183820152602001612e18565b90602091612e5181518092818552858086019101612e15565b601f01601f1916010190565b600435906001600160a01b0382168203612e7357565b600080fd5b604435906001600160a01b0382168203612e7357565b815181526020808301516001600160a01b03908116828401526040808501518216818501526060808601518051909316908501529181015160808401520151610220820193926002821015612f79576102009160a084015260808101519063ffffffff80921660c08501528160a08201511660e085015260c081015161010065ffffffffffff8092168187015260e08301519161012092168287015282015190610140918287015282015190610160918287015282015190610180918287015282015190836101a0921682870152820151926101c09316838601528101516101e08501520151910152565b634e487b7160e01b600052602160045260246000fd5b602435906001600160a01b0382168203612e7357565b6101e081019081106001600160401b038211176106ac57604052565b606081019081106001600160401b038211176106ac57604052565b60a081019081106001600160401b038211176106ac57604052565b6001600160401b0381116106ac57604052565b604081019081106001600160401b038211176106ac57604052565b90601f801991011681019081106001600160401b038211176106ac57604052565b6001600160401b0381116106ac57601f01601f191660200190565b92919261306d82613046565b9161307b6040519384613025565b829481845281830111612e73578281602093846000960137010152565b9080601f83011215612e73578160206130b393359101613061565b90565b6001600160401b0381116106ac5760051b60200190565b81601f82011215612e73578035916020916130e7846130b6565b936130f56040519586613025565b808552838086019160051b83010192808411612e7357848301915b8483106131205750505050505090565b82356001600160401b038111612e7357869161314184848094890101613098565b815201920191613110565b9181601f84011215612e73578235916001600160401b038311612e73576020808501948460051b010111612e7357565b604051906131898261300a565b60048252636e616d6560e01b6020830152565b6002821015612f795752565b906131e16040516131b881612fc1565b83546001600160a01b031681526001840154602082015260029093015460ff166040840161319c565b565b6001600160a01b031660009081527f220b301e849f0e7939d5b8f36c982013834343e674bcbcf2ce548a85ebe8f2086020526040902090565b6001600160a01b031660009081527f220b301e849f0e7939d5b8f36c982013834343e674bcbcf2ce548a85ebe8f2096020526040902090565b9291613260826130b6565b9161326e6040519384613025565b829481845260208094019160051b8101928311612e7357905b8282106132945750505050565b81358152908301908301613287565b818102929181159184041417156132b657565b634e487b7160e01b600052601160045260246000fd5b60001981146132b65760010190565b60a43565ffffffffffff81168103612e735790565b60c43565ffffffffffff81168103612e735790565b60643563ffffffff81168103612e735790565b6024356001600160a01b0381168103612e735790565b919082018092116132b657565b1561334257565b60405162461bcd60e51b815260206004820152600b60248201526a696e76616c69642071747960a81b6044820152606490fd5b805482101561338d5760005260206000200190600090565b634e487b7160e01b600052603260045260246000fd5b919082039182116132b657565b604051906133bd8261300a565b60028252617b7d60f01b6020830152565b602081830312612e73578051906001600160401b038211612e73570181601f82011215612e7357805161340081613046565b9261340e6040519485613025565b81845260208284010111612e73576130b39160208085019101612e15565b600080516020613b50833981519152546001600160a01b0316330361205d57565b6001600160a01b03166000818152600080516020613bb08339815191526020908152604091829020805460ff1916600117905590519182527f77a7dbc6ad97703ad411a8d5edfcd1df382fb34b076a90898b11884f7ebdcc0591a1565b604090604051916134ba83612fc1565b600283528260005b8281106134ce57505050565b8060606020809385010152016134c2565b604051906134ec82612fdc565b600482528160005b60808110613500575050565b8060606020809385010152016134f4565b80511561338d5760200190565b80516001101561338d5760400190565b80516002101561338d5760600190565b80516003101561338d5760800190565b604080519061355c8261300a565b601482526020737b22636f6c6c61626f7261746f7273223a5b5d7d60601b818401526136af6135896134df565b9361359261317c565b61359b86613511565b526135a585613511565b5083516135b18161300a565b600b81526a3232b9b1b934b83a34b7b760a91b848201526135d18661351e565b526135db8561351e565b508351946135e88661300a565b6005956005815264696d61676560d81b858201526136058261352e565b5261360f8161352e565b50845161361b8161300a565b600d81526c65787465726e616c5f6c696e6b60981b8582015261363d8261353e565b526136478161353e565b506136506134df565b91875161365c84613511565b5261366683613511565b50848801516136748461351e565b5261367e8361351e565b508588015161368c8461352e565b526136968361352e565b5060608801516136a58461353e565b526105b98361353e565b6000936000915b6080870151805160ff8516101561372c5783831b611fe016018401518551613702926136e18261300a565b601082526f636f6c6c61626f7261746f72732e2d3160801b87830152613968565b9160ff80911690811461371857600101916136b6565b634e487b7160e01b86526011600452602486fd5b509550505050505090565b600080516020613bf083398151915280546001600160a01b0319908116909155600080516020613b5083398151915280549182166001600160a01b0393841690811790915591167f8be0079c531659141344cd1fd0a4f28419497f9722a3daafe3b4186f6b6457e0600080a3565b90816020910312612e7357518015158103612e735790565b6040516301ffc9a760e01b808252636cdb3d1360e11b60048301526001600160a01b0392909216916020918281602481875afa90811561387957600091613885575b501561380d57505050600190565b6040519081526380ac58cd60e01b60048201528181602481865afa9182156138795760009261385c575b5050156138445750600090565b6024906040519063106bc3ad60e01b82526004820152fd5b6138729250803d10610361576103528183613025565b3880613837565b6040513d6000823e3d90fd5b61389c9150833d8511610361576103528183613025565b386137ff565b156138a957565b60405162461bcd60e51b81526020600482015260126024820152711b585e081b5a5b9d1cc8195e18d95959195960721b6044820152606490fd5b3d1561390e573d906138f482613046565b916139026040519384613025565b82523d6000602084013e565b606090565b814710613950576000918291829182916001600160a01b03165af16139366138e3565b501561393e57565b604051630a12f52160e11b8152600490fd5b60405163cd78605960e01b8152306004820152602490fd5b613999906139bb6000936139ac956040519687958695633691975d60e21b8752606060048801526064870190612e38565b6003199384878303016024880152612e38565b91848303016044850152612e38565b0381650f043a0000035afa908115613879576000916139d8575090565b6130b391503d806000833e61074e8183613025565b60ff7ff0c57e16840df040f15088dc2f81fe391c3923bec73e23a9662efc9c229c6a005460401c1615613a1c57565b604051631afcd79f60e31b8152600490fd5b90808251908181526020809101926020808460051b8301019501936000915b848310613a5d5750505050505090565b9091929394958480613a7b600193601f198682030187528a51612e38565b9801930193019194939290613a4d565b613abc906139bb600093613acf9560405196879586956328d694bb60e21b8752606060048801526064870190612e38565b6003199384878303016024880152613a2e565b91848303016044850152613a2e565b90613af3575080511561393e57805190602001fd5b81511580613b26575b613b04575090565b604051639996b31560e01b81526001600160a01b039091166004820152602490fd5b50803b15613afc56fe220b301e849f0e7939d5b8f36c982013834343e674bcbcf2ce548a85ebe8f2019016d09d72d40fdae2fd8ceac6b6234c7706214fd39c1cd1e609a0528c199300985371f50cecfcb1a6dfdccb4c871d7a5d94b17a9d368860b42eaca20a68bf00220b301e849f0e7939d5b8f36c982013834343e674bcbcf2ce548a85ebe8f2007b525f1ceaccf3b696f6ae41e77fd6ec1db7d6f30a7291dc90c708e9f30c7d00690d9d2427e2b133f22707bb746c8269a2aa0f316b646ee0ec35e0f413623793237e158222e3e6968b72b9db0d8043aacf074ad9f650f0d1606b4d82ee432c00841f636c3ae717f882adaf710a5db29ca95821d91f8d637d2b614cbcb320c700a26469706673582212201cbaf45ac1252ec5141662156fff2437478f6b4671266173b71e4733e2bdf96764736f6c63430008180033",
  "linkReferences": {},
  "deployedLinkReferences": {}
}