{
  "_format": "hh-sol-artifact-1",
  "contractName": "SimpleDropUpgradeable",
  "sourceName": "contracts/SimpleDropUpgradeable.sol",
  "abi": [
    {
      "inputs": [],
      "stateMutability": "nonpayable",
      "type": "constructor"
    },
    {
      "inputs": [
        {
          "internalType": "address",
          "name": "target",
          "type": "address"
        }
      ],
      "name": "AddressEmptyCode",
      "type": "error"
    },
    {
      "inputs": [
        {
          "internalType": "address",
          "name": "account",
          "type": "address"
        }
      ],
      "name": "AddressInsufficientBalance",
      "type": "error"
    },
    {
      "inputs": [],
      "name": "ContractMetadataCemented",
      "type": "error"
    },
    {
      "inputs": [],
      "name": "ContractMetadataUnauthorized",
      "type": "error"
    },
    {
      "inputs": [
        {
          "internalType": "address",
          "name": "implementation",
          "type": "address"
        }
      ],
      "name": "ERC1967InvalidImplementation",
      "type": "error"
    },
    {
      "inputs": [],
      "name": "ERC1967NonPayable",
      "type": "error"
    },
    {
      "inputs": [],
      "name": "ErrAllowListManagementUnathorized",
      "type": "error"
    },
    {
      "inputs": [
        {
          "internalType": "uint256",
          "name": "_dropId",
          "type": "uint256"
        }
      ],
      "name": "ErrInvalidDrop",
      "type": "error"
    },
    {
      "inputs": [
        {
          "internalType": "address",
          "name": "_tokenAddress",
          "type": "address"
        }
      ],
      "name": "ErrInvalidTokenType",
      "type": "error"
    },
    {
      "inputs": [
        {
          "internalType": "address",
          "name": "",
          "type": "address"
        }
      ],
      "name": "ErrNotAllowed",
      "type": "error"
    },
    {
      "inputs": [
        {
          "internalType": "uint256",
          "name": "_dropId",
          "type": "uint256"
        }
      ],
      "name": "ErrNotCreator",
      "type": "error"
    },
    {
      "inputs": [],
      "name": "FailedInnerCall",
      "type": "error"
    },
    {
      "inputs": [],
      "name": "InvalidInitialization",
      "type": "error"
    },
    {
      "inputs": [],
      "name": "NotInitializing",
      "type": "error"
    },
    {
      "inputs": [
        {
          "internalType": "address",
          "name": "owner",
          "type": "address"
        }
      ],
      "name": "OwnableInvalidOwner",
      "type": "error"
    },
    {
      "inputs": [
        {
          "internalType": "address",
          "name": "account",
          "type": "address"
        }
      ],
      "name": "OwnableUnauthorizedAccount",
      "type": "error"
    },
    {
      "inputs": [],
      "name": "UUPSUnauthorizedCallContext",
      "type": "error"
    },
    {
      "inputs": [
        {
          "internalType": "bytes32",
          "name": "slot",
          "type": "bytes32"
        }
      ],
      "name": "UUPSUnsupportedProxiableUUID",
      "type": "error"
    },
    {
      "anonymous": false,
      "inputs": [
        {
          "indexed": false,
          "internalType": "address",
          "name": "addr",
          "type": "address"
        }
      ],
      "name": "Allowed",
      "type": "event"
    },
    {
      "anonymous": false,
      "inputs": [],
      "name": "ContractURICemented",
      "type": "event"
    },
    {
      "anonymous": false,
      "inputs": [],
      "name": "ContractURIUpdated",
      "type": "event"
    },
    {
      "anonymous": false,
      "inputs": [
        {
          "indexed": false,
          "internalType": "address",
          "name": "addr",
          "type": "address"
        }
      ],
      "name": "Denied",
      "type": "event"
    },
    {
      "anonymous": false,
      "inputs": [
        {
          "indexed": true,
          "internalType": "uint256",
          "name": "id",
          "type": "uint256"
        }
      ],
      "name": "DropCancelled",
      "type": "event"
    },
    {
      "anonymous": false,
      "inputs": [
        {
          "indexed": true,
          "internalType": "uint256",
          "name": "id",
          "type": "uint256"
        },
        {
          "components": [
            {
              "internalType": "uint256",
              "name": "dropId",
              "type": "uint256"
            },
            {
              "internalType": "address",
              "name": "creator",
              "type": "address"
            },
            {
              "internalType": "address payable",
              "name": "recipient",
              "type": "address"
            },
            {
              "components": [
                {
                  "internalType": "address",
                  "name": "tokenAddress",
                  "type": "address"
                },
                {
                  "internalType": "uint256",
                  "name": "tokenId",
                  "type": "uint256"
                },
                {
                  "internalType": "enum TokenType",
                  "name": "tokenType",
                  "type": "uint8"
                }
              ],
              "internalType": "struct Token",
              "name": "token",
              "type": "tuple"
            },
            {
              "internalType": "uint32",
              "name": "maxAllowed",
              "type": "uint32"
            },
            {
              "internalType": "uint32",
              "name": "maxPerWallet",
              "type": "uint32"
            },
            {
              "internalType": "uint48",
              "name": "startDate",
              "type": "uint48"
            },
            {
              "internalType": "uint48",
              "name": "endDate",
              "type": "uint48"
            },
            {
              "internalType": "uint256",
              "name": "price",
              "type": "uint256"
            },
            {
              "internalType": "uint256",
              "name": "minted",
              "type": "uint256"
            },
            {
              "internalType": "bytes32",
              "name": "merkleRoot",
              "type": "bytes32"
            },
            {
              "internalType": "uint32",
              "name": "maxPerBlock",
              "type": "uint32"
            },
            {
              "internalType": "uint32",
              "name": "maxPerToken",
              "type": "uint32"
            },
            {
              "internalType": "uint256",
              "name": "reserves",
              "type": "uint256"
            },
            {
              "internalType": "uint256",
              "name": "reservesMinted",
              "type": "uint256"
            }
          ],
          "indexed": false,
          "internalType": "struct SimpleDropUpgradeable.Drop",
          "name": "drop",
          "type": "tuple"
        }
      ],
      "name": "DropCreated",
      "type": "event"
    },
    {
      "anonymous": false,
      "inputs": [
        {
          "indexed": true,
          "internalType": "uint256",
          "name": "id",
          "type": "uint256"
        },
        {
          "indexed": false,
          "internalType": "uint256",
          "name": "qty",
          "type": "uint256"
        },
        {
          "indexed": false,
          "internalType": "address",
          "name": "sender",
          "type": "address"
        },
        {
          "indexed": false,
          "internalType": "address",
          "name": "recipient",
          "type": "address"
        }
      ],
      "name": "DropMinted",
      "type": "event"
    },
    {
      "anonymous": false,
      "inputs": [
        {
          "indexed": false,
          "internalType": "uint64",
          "name": "version",
          "type": "uint64"
        }
      ],
      "name": "Initialized",
      "type": "event"
    },
    {
      "anonymous": false,
      "inputs": [
        {
          "indexed": true,
          "internalType": "address",
          "name": "previousOwner",
          "type": "address"
        },
        {
          "indexed": true,
          "internalType": "address",
          "name": "newOwner",
          "type": "address"
        }
      ],
      "name": "OwnershipTransferStarted",
      "type": "event"
    },
    {
      "anonymous": false,
      "inputs": [
        {
          "indexed": true,
          "internalType": "address",
          "name": "previousOwner",
          "type": "address"
        },
        {
          "indexed": true,
          "internalType": "address",
          "name": "newOwner",
          "type": "address"
        }
      ],
      "name": "OwnershipTransferred",
      "type": "event"
    },
    {
      "anonymous": false,
      "inputs": [
        {
          "indexed": true,
          "internalType": "address",
          "name": "implementation",
          "type": "address"
        }
      ],
      "name": "Upgraded",
      "type": "event"
    },
    {
      "inputs": [],
      "name": "UPGRADE_INTERFACE_VERSION",
      "outputs": [
        {
          "internalType": "string",
          "name": "",
          "type": "string"
        }
      ],
      "stateMutability": "view",
      "type": "function"
    },
    {
      "inputs": [],
      "name": "acceptOwnership",
      "outputs": [],
      "stateMutability": "nonpayable",
      "type": "function"
    },
    {
      "inputs": [
        {
          "internalType": "address",
          "name": "_addr",
          "type": "address"
        }
      ],
      "name": "allow",
      "outputs": [],
      "stateMutability": "nonpayable",
      "type": "function"
    },
    {
      "inputs": [
        {
          "internalType": "uint256",
          "name": "_dropId",
          "type": "uint256"
        }
      ],
      "name": "cancelDrop",
      "outputs": [],
      "stateMutability": "nonpayable",
      "type": "function"
    },
    {
      "inputs": [],
      "name": "cementContractMetadata",
      "outputs": [],
      "stateMutability": "nonpayable",
      "type": "function"
    },
    {
      "inputs": [],
      "name": "contractURI",
      "outputs": [
        {
          "internalType": "string",
          "name": "",
          "type": "string"
        }
      ],
      "stateMutability": "view",
      "type": "function"
    },
    {
      "inputs": [],
      "name": "contractURICemented",
      "outputs": [
        {
          "internalType": "bool",
          "name": "",
          "type": "bool"
        }
      ],
      "stateMutability": "view",
      "type": "function"
    },
    {
      "inputs": [
        {
          "components": [
            {
              "internalType": "address payable",
              "name": "recipient",
              "type": "address"
            },
            {
              "components": [
                {
                  "internalType": "address",
                  "name": "tokenAddress",
                  "type": "address"
                },
                {
                  "internalType": "uint256",
                  "name": "tokenId",
                  "type": "uint256"
                }
              ],
              "internalType": "struct SimpleToken",
              "name": "token",
              "type": "tuple"
            },
            {
              "internalType": "uint32",
              "name": "maxAllowed",
              "type": "uint32"
            },
            {
              "internalType": "uint32",
              "name": "maxPerWallet",
              "type": "uint32"
            },
            {
              "internalType": "uint48",
              "name": "startDate",
              "type": "uint48"
            },
            {
              "internalType": "uint48",
              "name": "endDate",
              "type": "uint48"
            },
            {
              "internalType": "uint256",
              "name": "price",
              "type": "uint256"
            },
            {
              "internalType": "bytes32",
              "name": "merkleRoot",
              "type": "bytes32"
            },
            {
              "internalType": "uint32",
              "name": "maxPerBlock",
              "type": "uint32"
            },
            {
              "internalType": "uint32",
              "name": "maxPerToken",
              "type": "uint32"
            },
            {
              "internalType": "uint256",
              "name": "reserves",
              "type": "uint256"
            }
          ],
          "internalType": "struct SimpleDropUpgradeable.DropParams",
          "name": "_params",
          "type": "tuple"
        }
      ],
      "name": "createDrop",
      "outputs": [
        {
          "internalType": "uint256",
          "name": "",
          "type": "uint256"
        }
      ],
      "stateMutability": "nonpayable",
      "type": "function"
    },
    {
      "inputs": [
        {
          "internalType": "uint256[]",
          "name": "_tiers",
          "type": "uint256[]"
        },
        {
          "internalType": "uint256[]",
          "name": "_prices",
          "type": "uint256[]"
        }
      ],
      "name": "createTieredPricing",
      "outputs": [],
      "stateMutability": "nonpayable",
      "type": "function"
    },
    {
      "inputs": [
        {
          "internalType": "address",
          "name": "_addr",
          "type": "address"
        }
      ],
      "name": "deny",
      "outputs": [],
      "stateMutability": "nonpayable",
      "type": "function"
    },
    {
      "inputs": [
        {
          "internalType": "uint256",
          "name": "_dropId",
          "type": "uint256"
        }
      ],
      "name": "drop",
      "outputs": [
        {
          "components": [
            {
              "internalType": "uint256",
              "name": "dropId",
              "type": "uint256"
            },
            {
              "internalType": "address",
              "name": "creator",
              "type": "address"
            },
            {
              "internalType": "address payable",
              "name": "recipient",
              "type": "address"
            },
            {
              "components": [
                {
                  "internalType": "address",
                  "name": "tokenAddress",
                  "type": "address"
                },
                {
                  "internalType": "uint256",
                  "name": "tokenId",
                  "type": "uint256"
                },
                {
                  "internalType": "enum TokenType",
                  "name": "tokenType",
                  "type": "uint8"
                }
              ],
              "internalType": "struct Token",
              "name": "token",
              "type": "tuple"
            },
            {
              "internalType": "uint32",
              "name": "maxAllowed",
              "type": "uint32"
            },
            {
              "internalType": "uint32",
              "name": "maxPerWallet",
              "type": "uint32"
            },
            {
              "internalType": "uint48",
              "name": "startDate",
              "type": "uint48"
            },
            {
              "internalType": "uint48",
              "name": "endDate",
              "type": "uint48"
            },
            {
              "internalType": "uint256",
              "name": "price",
              "type": "uint256"
            },
            {
              "internalType": "uint256",
              "name": "minted",
              "type": "uint256"
            },
            {
              "internalType": "bytes32",
              "name": "merkleRoot",
              "type": "bytes32"
            },
            {
              "internalType": "uint32",
              "name": "maxPerBlock",
              "type": "uint32"
            },
            {
              "internalType": "uint32",
              "name": "maxPerToken",
              "type": "uint32"
            },
            {
              "internalType": "uint256",
              "name": "reserves",
              "type": "uint256"
            },
            {
              "internalType": "uint256",
              "name": "reservesMinted",
              "type": "uint256"
            }
          ],
          "internalType": "struct SimpleDropUpgradeable.Drop",
          "name": "",
          "type": "tuple"
        }
      ],
      "stateMutability": "view",
      "type": "function"
    },
    {
      "inputs": [
        {
          "internalType": "string",
          "name": "_name",
          "type": "string"
        },
        {
          "internalType": "address",
          "name": "_initialOwner",
          "type": "address"
        },
        {
          "internalType": "address payable",
          "name": "_feeRecipient",
          "type": "address"
        },
        {
          "internalType": "uint16",
          "name": "_fee",
          "type": "uint16"
        }
      ],
      "name": "initialize",
      "outputs": [],
      "stateMutability": "nonpayable",
      "type": "function"
    },
    {
      "inputs": [
        {
          "internalType": "address",
          "name": "_addr",
          "type": "address"
        }
      ],
      "name": "isAllowed",
      "outputs": [
        {
          "internalType": "bool",
          "name": "",
          "type": "bool"
        }
      ],
      "stateMutability": "view",
      "type": "function"
    },
    {
      "inputs": [
        {
          "internalType": "uint256",
          "name": "_dropId",
          "type": "uint256"
        },
        {
          "internalType": "uint256",
          "name": "_qty",
          "type": "uint256"
        },
        {
          "internalType": "address",
          "name": "_recipient",
          "type": "address"
        },
        {
          "internalType": "bytes32[]",
          "name": "_merkleProof",
          "type": "bytes32[]"
        }
      ],
      "name": "mint",
      "outputs": [],
      "stateMutability": "payable",
      "type": "function"
    },
    {
      "inputs": [
        {
          "internalType": "uint256",
          "name": "_dropId",
          "type": "uint256"
        },
        {
          "internalType": "uint256",
          "name": "_qty",
          "type": "uint256"
        },
        {
          "internalType": "address",
          "name": "_recipient",
          "type": "address"
        }
      ],
      "name": "mintReserves",
      "outputs": [],
      "stateMutability": "nonpayable",
      "type": "function"
    },
    {
      "inputs": [
        {
          "internalType": "uint256",
          "name": "_dropId",
          "type": "uint256"
        },
        {
          "internalType": "address",
          "name": "_minter",
          "type": "address"
        }
      ],
      "name": "minted",
      "outputs": [
        {
          "internalType": "uint256",
          "name": "",
          "type": "uint256"
        }
      ],
      "stateMutability": "view",
      "type": "function"
    },
    {
      "inputs": [
        {
          "internalType": "uint256",
          "name": "_dropId",
          "type": "uint256"
        }
      ],
      "name": "minted",
      "outputs": [
        {
          "internalType": "uint256",
          "name": "",
          "type": "uint256"
        }
      ],
      "stateMutability": "view",
      "type": "function"
    },
    {
      "inputs": [],
      "name": "name",
      "outputs": [
        {
          "internalType": "string",
          "name": "",
          "type": "string"
        }
      ],
      "stateMutability": "view",
      "type": "function"
    },
    {
      "inputs": [],
      "name": "owner",
      "outputs": [
        {
          "internalType": "address",
          "name": "",
          "type": "address"
        }
      ],
      "stateMutability": "view",
      "type": "function"
    },
    {
      "inputs": [],
      "name": "pendingOwner",
      "outputs": [
        {
          "internalType": "address",
          "name": "",
          "type": "address"
        }
      ],
      "stateMutability": "view",
      "type": "function"
    },
    {
      "inputs": [],
      "name": "proxiableUUID",
      "outputs": [
        {
          "internalType": "bytes32",
          "name": "",
          "type": "bytes32"
        }
      ],
      "stateMutability": "view",
      "type": "function"
    },
    {
      "inputs": [],
      "name": "renounceOwnership",
      "outputs": [],
      "stateMutability": "nonpayable",
      "type": "function"
    },
    {
      "inputs": [
        {
          "components": [
            {
              "internalType": "string",
              "name": "name",
              "type": "string"
            },
            {
              "internalType": "string",
              "name": "description",
              "type": "string"
            },
            {
              "internalType": "string",
              "name": "image",
              "type": "string"
            },
            {
              "internalType": "string",
              "name": "externalLink",
              "type": "string"
            },
            {
              "internalType": "string[]",
              "name": "collaborators",
              "type": "string[]"
            }
          ],
          "internalType": "struct StdContractMetadata",
          "name": "_data",
          "type": "tuple"
        }
      ],
      "name": "setContractMetadata",
      "outputs": [],
      "stateMutability": "nonpayable",
      "type": "function"
    },
    {
      "inputs": [
        {
          "components": [
            {
              "internalType": "string",
              "name": "name",
              "type": "string"
            }
          ],
          "internalType": "struct RequiredContractMetadata",
          "name": "_data",
          "type": "tuple"
        }
      ],
      "name": "setContractMetadata",
      "outputs": [],
      "stateMutability": "nonpayable",
      "type": "function"
    },
    {
      "inputs": [
        {
          "components": [
            {
              "internalType": "string",
              "name": "name",
              "type": "string"
            },
            {
              "internalType": "string",
              "name": "description",
              "type": "string"
            },
            {
              "internalType": "string",
              "name": "image",
              "type": "string"
            },
            {
              "internalType": "string",
              "name": "bannerImage",
              "type": "string"
            },
            {
              "internalType": "string",
              "name": "featuredImage",
              "type": "string"
            },
            {
              "internalType": "string",
              "name": "externalLink",
              "type": "string"
            },
            {
              "internalType": "string[]",
              "name": "collaborators",
              "type": "string[]"
            }
          ],
          "internalType": "struct FullContractMetadata",
          "name": "_data",
          "type": "tuple"
        }
      ],
      "name": "setContractMetadata",
      "outputs": [],
      "stateMutability": "nonpayable",
      "type": "function"
    },
    {
      "inputs": [
        {
          "internalType": "string",
          "name": "_jsonBlob",
          "type": "string"
        }
      ],
      "name": "setContractMetadataRaw",
      "outputs": [],
      "stateMutability": "nonpayable",
      "type": "function"
    },
    {
      "inputs": [
        {
          "internalType": "uint16",
          "name": "_fee",
          "type": "uint16"
        }
      ],
      "name": "setPlatformFee",
      "outputs": [],
      "stateMutability": "nonpayable",
      "type": "function"
    },
    {
      "inputs": [
        {
          "internalType": "address payable",
          "name": "_feeRecipient",
          "type": "address"
        }
      ],
      "name": "setPlatformFeeRecipient",
      "outputs": [],
      "stateMutability": "nonpayable",
      "type": "function"
    },
    {
      "inputs": [
        {
          "internalType": "uint256",
          "name": "_dropId",
          "type": "uint256"
        },
        {
          "internalType": "uint256",
          "name": "_tieredPricingId",
          "type": "uint256"
        }
      ],
      "name": "setTieredPricing",
      "outputs": [],
      "stateMutability": "nonpayable",
      "type": "function"
    },
    {
      "inputs": [
        {
          "internalType": "address",
          "name": "newOwner",
          "type": "address"
        }
      ],
      "name": "transferOwnership",
      "outputs": [],
      "stateMutability": "nonpayable",
      "type": "function"
    },
    {
      "inputs": [
        {
          "internalType": "address",
          "name": "newImplementation",
          "type": "address"
        },
        {
          "internalType": "bytes",
          "name": "data",
          "type": "bytes"
        }
      ],
      "name": "upgradeToAndCall",
      "outputs": [],
      "stateMutability": "payable",
      "type": "function"
    }
  ],
  "bytecode": "0x60a08060405234620000d157306080527ff0c57e16840df040f15088dc2f81fe391c3923bec73e23a9662efc9c229c6a009081549060ff8260401c16620000c257506001600160401b036002600160401b0319828216016200007c575b604051613c8c9081620000d7823960805181818161290c01526129c50152f35b6001600160401b031990911681179091556040519081527fc7f505b2f371ae2175ee4913f4499e1f2633a7b5936321eed1cdaeb6115181d290602090a13880806200005c565b63f92ee8a960e01b8152600490fd5b600080fdfe608080604052600436101561001357600080fd5b600090813560e01c90816306fdde0314612d5f575080630766c1a614612d2f5780631871e24314612d0a578063211d9a5314612b815780634f1ef2861461297657806352d1902d146128f95780635cbc742c146128cd5780636172c1da146125585780636887a0e5146124f557806369e6d78e1461240b578063715018a61461238a5780637661bd4e1461209c57806379ba5097146120495780637dc0bf3f1461200f57806383ab79f114611f9e5780638da5cb5b14611f6857806395e7168814611a795780639c52a7f1146119ee5780639e7b838814611652578063a25ffea814610a62578063ad3cb1cc14610a1c578063babcc539146109cf578063c3311f691461094f578063d4895df0146108a4578063e271068714610793578063e30c39781461075d578063e8a3d485146106ce578063eab5fdf61461039b578063efcf575414610257578063f2fde38b146101cf5763ff9913e81461017657600080fd5b346101cc5760203660031901126101cc5761018f612e84565b600080516020613b77833981519152546001600160a01b031633036101ba576101b790613474565b80f35b6040516308e4bb7960e31b8152600490fd5b80fd5b50346101cc5760203660031901126101cc576101e9612e84565b6101f1613453565b600080516020613c1783398151915280546001600160a01b0319166001600160a01b03928316908117909155600080516020613b77833981519152549091167f38d16b8cac22d99fc7c124b9cd0de2d3fa1faef420bfe791d8c362d765e227008380a380f35b50346101cc5760203660031901126101cc576004356001600160401b038111610397576102889036906004016130bf565b600080516020613b77833981519152546001600160a01b031633036103855760ff600080516020613b9783398151915254166103735760206102fa916040518093819263b480003360e01b8352600080516020613c378339815191526004840152604060248401526044830190612e5f565b038185650f043a0000075af1801561036857610339575b507fa5d4097edda6d87cb9329af83fb3712ef77eeb13738ffe43cc35a4ce305ad9628180a180f35b61035a9060203d602011610361575b610352818361304c565b8101906137cc565b5038610311565b503d610348565b6040513d84823e3d90fd5b6040516350a3adc960e01b8152600490fd5b604051639f7f092560e01b8152600490fd5b5080fd5b50346101cc57602060031981813601126106ca576004356001600160401b03918282116106c65760e09082360301126106c2576040519060e08201828110848211176106ac5760405280600401358381116106a85761040090600436918401016130bf565b825260248101358381116106a85761041e90600436918401016130bf565b9084830191825260448101358481116106a45761044190600436918401016130bf565b916040840192835260648201358581116106a05761046590600436918501016130bf565b9360608101948552608483013586811161069c5761048990600436918601016130bf565b936080820194855260a4840135878111610698576104ad90600436918701016130bf565b60a0830190815260c4850135978811610698576104d661050c9560046105bf9a369201016130f4565b928360c08201525193519151905191604051946104f286613003565b855289850152604084015260608301526080820152613575565b6105146134d1565b9160405161052181613031565b600c81526b62616e6e65725f696d61676560a01b8782015261054284613538565b5261054c83613538565b5060405161055981613031565b600e81526d66656174757265645f696d61676560901b8782015261057c84613545565b5261058683613545565b5061058f6134d1565b935161059a85613538565b526105a484613538565b50516105af84613545565b526105b983613545565b50613ab2565b600080516020613b77833981519152546001600160a01b031633036103855760ff600080516020613b9783398151915254166103735781610630916040518093819263b480003360e01b8352600080516020613c378339815191526004840152604060248401526044830190612e5f565b038186650f043a0000075af1801561068d5761066f575b827fa5d4097edda6d87cb9329af83fb3712ef77eeb13738ffe43cc35a4ce305ad9628180a180f35b8161068592903d1061036157610352818361304c565b503880610647565b6040513d85823e3d90fd5b8980fd5b8880fd5b8780fd5b8680fd5b8580fd5b634e487b7160e01b600052604160045260246000fd5b8380fd5b8480fd5b8280fd5b50346101cc57806003193601126101cc57604051639ed19ddb60e01b8152600080516020613c3783398151915260048201528181602481650f043a0000075afa9081156103685782610736939261073a575b5050604051918291602083526020830190612e5f565b0390f35b61075692503d8091833e61074e818361304c565b8101906133f5565b3880610720565b50346101cc57806003193601126101cc57600080516020613c17833981519152546040516001600160a01b039091168152602090f35b50346101cc5760203660031901126101cc57600435808252600080516020613b57833981519152602081905260408320600101546001600160a01b03161561088b57338352600080516020613bd783398151915260205260ff60408420541615610873578183526020526000600c6040842082815584600182015584600282015584600382015582600482015584600582015584600682015582600782015582600882015582600982015584600a82015582600b82015501557f7720203ab651e19ea5b0e9fbba706c7657b66e1ef80a994fa34884ded416ba758280a280f35b60405163e75e7a5f60e01b8152336004820152602490fd5b60405163831d32a560e01b815260048101839052602490fd5b50346101cc5760403660031901126101cc57600435808252600080516020613b5783398151915260205260408220600101546001600160a01b03161561093757338252600080516020613bd783398151915260205260ff604083205416156108735781527f220b301e849f0e7939d5b8f36c982013834343e674bcbcf2ce548a85ebe8f207602052602435604082205580f35b6024906040519063831d32a560e01b82526004820152fd5b50346101cc57602060031981813601126106ca57600435906001600160401b03908183116106c657839083360301126106c25760405190838201828110828211176106ac5760405282600401359081116106c6576105bf9260046109b692369201016130bf565b8091526109c16133d7565b6109c96131a3565b9061398f565b50346101cc5760203660031901126101cc576001600160a01b036109f1612e84565b16600052600080516020613bd7833981519152602052602060ff604060002054166040519015158152f35b50346101cc57806003193601126101cc57610736604051610a3c81613031565b60058152640352e302e360dc1b6020820152604051918291602083526020830190612e5f565b5060803660031901126101cc57610a77612e9f565b6064356001600160401b0381116106ca57610a96903690600401613173565b6004358452600080516020613b5783398151915260205260408420600101546001600160a01b03161561163957333b61160357610ad66024351515613362565b6004358452600080516020613b57833981519152602052610b5e60076040862001547f220b301e849f0e7939d5b8f36c982013834343e674bcbcf2ce548a85ebe8f207602052604086205486527f220b301e849f0e7939d5b8f36c982013834343e674bcbcf2ce548a85ebe8f2066020526040862060028101546115e3575b506024356132ca565b918261159e575b6004358552600080516020613b5783398151915260205265ffffffffffff600660408720015460401c16421061156b576004358552600080516020613b5783398151915260205265ffffffffffff600660408720015460701c1680611532575b506004358552600080516020613b57833981519152602052610bec600360408720016131cf565b6004358652600080516020613b5783398151915260205263ffffffff60066040882001541661145f575b6004358652600080516020613b5783398151915260205263ffffffff600660408820015460201c166113e0575b6004358652600080516020613b5783398151915260205263ffffffff600a60408820015416611323575b6004358652600080516020613b5783398151915260205263ffffffff600a60408820015460201c166112a8575b506004358552600080516020613b5783398151915260205260096040862001546111a6575b50506004358352600080516020613b578339815191526020526040832090600860048301549201610cf36024358254613355565b905560043584527f220b301e849f0e7939d5b8f36c982013834343e674bcbcf2ce548a85ebe8f2026020526040842060018060a01b03841690816000526020526040600020610d456024358254613355565b905560043585527f220b301e849f0e7939d5b8f36c982013834343e674bcbcf2ce548a85ebe8f2046020526040852081600052602052604060002043865260205260408520610d976024358254613355565b90556004358552600080516020613b578339815191526020526040852060030154610dca906001600160a01b031661320a565b83865260205260408520610de16024358254613355565b90556004358552600080516020613b578339815191526020526040852060030154610e14906001600160a01b0316613243565b83865260205260408520906000526020526040600020610e376024358254613355565b905560043584527f220b301e849f0e7939d5b8f36c982013834343e674bcbcf2ce548a85ebe8f207602052604084205484527f220b301e849f0e7939d5b8f36c982013834343e674bcbcf2ce548a85ebe8f20660205260408420600281015480611130575b505080806110c4575b508061108c575b506004358352600080516020613b5783398151915260205260ff600560408520015416600281101561107857839190600103610faa576004358252600080516020613b5783398151915260205260408220600301546001600160a01b0316803b156106ca57604051630ab714fb60e11b81526001600160a01b03851660048201526024808201939093529135604483015282908290606490829084905af1801561036857610f96575b50505b6040805160243581523360208201526001600160a01b039092169082015260043590600080516020613bf78339815191529080606081015b0390a280f35b610f9f9061301e565b610397578138610f55565b50506004358252600080516020613b5783398151915260205260ff600560408420015416600281101561106457610f58576004358252600080516020613b57833981519152602052604082206003015482906001600160a01b0316803b15610397576040516340c10f1960e01b81526001600160a01b038416600482015260248035908201529082908290604490829084905af1801561036857611050575b5050610f58565b6110599061301e565b610397578138611049565b634e487b7160e01b83526021600452602483fd5b634e487b7160e01b84526021600452602484fd5b6004358452600080516020613b5783398151915260205260408420600201546110be91906001600160a01b031661393a565b38610eac565b7f220b301e849f0e7939d5b8f36c982013834343e674bcbcf2ce548a85ebe8f20354906127106110f861ffff8416836132ca565b049182611107575b5050610ea5565b611128935061112390839060101c6001600160a01b031661393a565b6133ca565b388080611100565b61113d6024358354613355565b8083556001830154916001830183116111925760018301109081611171575b5015610e9c5760018091019101553880610e9c565b9050611183600183016002850161339c565b90549060031b1c11153861115c565b634e487b7160e01b88526011600452602488fd5b604080516001600160a01b038616602082019081526001828401529181529192916111d081612fe8565b51902060405160208101918252602081526111ea81613031565b519020916004358652600080516020613b578339815191526020526009604087200154929186915b81831061126d5750505003611228573880610cbf565b60405162461bcd60e51b815260206004820152601d60248201527f436f756c64206e6f7420766572696679206d65726b6c652070726f6f660000006044820152606490fd5b9091928360051b820135908181106000146112975788526020526001604088205b93019190611212565b90885260205260016040882061128e565b80516020906112bf906001600160a01b0316613243565b91015186526020526040852060018060a01b03851660005260205261131d6112ee602435604060002054613355565b6004358752600080516020613b5783398151915260205263ffffffff600a60408920015460201c1610156138c9565b38610c9a565b7f220b301e849f0e7939d5b8f36c982013834343e674bcbcf2ce548a85ebe8f2046020526040862060018060a01b03861660005260205260406000204387526020526113756024356040882054613355565b6004358752600080516020613b5783398151915260205263ffffffff600a604089200154161015610c6d5760405162461bcd60e51b8152602060048201526018602482015277189b1bd8dac81b585e081b5a5b9d1cc8195e18d95959195960421b6044820152606490fd5b7f220b301e849f0e7939d5b8f36c982013834343e674bcbcf2ce548a85ebe8f2026020526040862060018060a01b03861660005260205261145a61142b602435604060002054613355565b6004358852600080516020613b5783398151915260205263ffffffff600660408a20015460201c1610156138c9565b610c43565b8051611473906001600160a01b031661320a565b602082015187526020526114aa60408720546004358852600080516020613b57833981519152602052600c604089200154906133ca565b6004358752600080516020613b578339815191526020526114de60408820600b63ffffffff600683015416910154906133ca565b81811115611502576114fd916114f3916133ca565b6024351115613362565b610c16565b60405162461bcd60e51b81526020600482015260086024820152671cdbdb19081bdd5d60c21b6044820152606490fd5b421161153e5738610bc5565b60405162461bcd60e51b8152602060048201526005602482015264195b99195960da1b6044820152606490fd5b60405162461bcd60e51b815260206004820152600b60248201526a1b9bdd081cdd185c9d195960aa1b6044820152606490fd5b348314610b655760405162461bcd60e51b81526020600482015260166024820152751a5b9d985b1a59081d985b1d59481c9958d95a5d995960521b6044820152606490fd5b6115f6915060036001820154910161339c565b90549060031b1c38610b55565b60405162461bcd60e51b815260206004820152600e60248201526d34b73b30b634b21039b2b73232b960911b6044820152606490fd5b602460405163831d32a560e01b81526004356004820152fd5b50346101cc5760603660031901126101cc576024906004358235611674612e9f565b828452600080516020613b578339815191526020818152604086206001015490916001600160a01b03918216156119d657338752600080516020613bd7833981519152835260ff604088205416156119bf578587528083526116f56116e086600c60408b200154613355565b878952828552600b60408a2001541015613362565b858752808352604087209260048401549363ffffffff908160068201541661193c575b505086885281815260086040892001611732878254613355565b9055868852818152600c604089200161174c878254613355565b905586885281815261176683600360408b2001541661320a565b84895281526040882061177a878254613355565b905586885281815260ff600560408a20015416600281101561192957908960018a969594931460001461184f575087855252600360408420015416803b156106ca57604051630ab714fb60e11b81526001600160a01b038516600482015260248101929092526044820185905282908290606490829084905af180156103685761183b575b5050600080516020613bf7833981519152915b604080519182523360208301526001600160a01b03909216918101919091528060608101610f90565b6118449061301e565b6106c25783856117ff565b919350919387909695965282825260ff600560408a20015416906002821015611917575015611892575b50505090600080516020613bf783398151915291611812565b85875252600360408620015416803b156106c6576040516340c10f1960e01b81526001600160a01b0384166004820152602481018390529085908290604490829084905af1801561190c576118e9575b8080611879565b93611904600080516020613bf783398151915293929561301e565b9390916118e2565b6040513d87823e3d90fd5b634e487b7160e01b8952602160045288fd5b634e487b7160e01b895260216004528989fd5b600361194891016131cf565b826119558683511661320a565b9101518a52825261196a8760408b2054613355565b90888a52838352600660408b2001541610611986573880611718565b60649060138a6040519262461bcd60e51b8452600484015282015272195e18d959591cc81b585e08185b1b1bddd959606a1b6044820152fd5b60405163e75e7a5f60e01b81523360048201528890fd5b60405163831d32a560e01b8152600481018790528890fd5b50346101cc5760203660031901126101cc57611a08612e84565b600080516020613b77833981519152546001600160a01b039190821633036101ba5716808252600080516020613bd783398151915260209081526040808420805460ff19169055519182527fe7d05e27c4cddc4a17e346cc1468f78eb961172691d9eda368c4b9b1c0d8e02f91a180f35b50346101cc576101803660031901126101cc57338152600080516020613bd783398151915260205260ff604082205416156108735765ffffffffffff611abd613302565b1665ffffffffffff611acd613317565b169081611ec6575b505063ffffffff611ae461332c565b16611e56575b611af261333f565b611b2e611b05611b0061333f565b6137e4565b60405192611b1284612fe8565b6001600160a01b031683526044356020840152604083016131c3565b600080516020613bb783398151915254600435916001600160a01b03831683036106c257611b5a61332c565b60843563ffffffff811681036106a857611b72613302565b611b7a613317565b91610124359363ffffffff8516850361069c57610144359563ffffffff871687036106985760405198611bac8a612fcc565b888a523360208b0152600160a01b600190031660408a0152606089015263ffffffff16608088015263ffffffff1660a087015265ffffffffffff1660c086015265ffffffffffff1660e085015260e435610100850152846101208501526101043561014085015263ffffffff1661016084015263ffffffff16610180830152610164356101a0830152826101c08301528252600080516020613b57833981519152602052604082208151815560018101600160a01b6001900360208401511690600160a01b6001900319918282541617905560028201600160a01b600190036040850151168282541617905560038201606084015191600160a01b600190038351169082541617905560208101516004830155604001516002811015611078576020935060ff80196005840154169116176005820155611ddb6006820163ffffffff6080850151169063ffffffff199182825416178155611d3463ffffffff60a087015116829067ffffffff0000000082549160201b169067ffffffff000000001916179055565b60c0850151815465ffffffffffff60701b60e088015160701b169165ffffffffffff60401b9060401b16906bffffffffffffffffffffffff60401b191617179055610100840151600784015561012084015160088401556101408401516009840155600a83019063ffffffff610160860151169082541617815563ffffffff6101808501511667ffffffff0000000082549160201b169067ffffffff000000001916179055565b6101a0820151600b820155600c6101c0830151910155611e09600080516020613bb7833981519152546132f3565b600080516020613bb78339815191525580517f85e08c49f4a90f08efd30a5c4c7456cd10cf7f8deb278912e44b17ff9f6ebef960405180611e4a8582612eb5565b0390a251604051908152f35b63ffffffff611e6361332c565b166101643510611aea5760405162461bcd60e51b815260206004820152602b60248201527f72657365727665732063616e6e6f742062652067726561746572207468616e2060448201526a1b585e08185b1b1bddd95960aa1b6064820152608490fd5b811115611f1257421015611edb573880611ad5565b60405162461bcd60e51b815260206004820152600f60248201526e195b9911185d1948195e1c1a5c9959608a1b6044820152606490fd5b60405162461bcd60e51b815260206004820152602860248201527f7374617274446174652063616e6e6f742062652067726561746572207468616e60448201526720656e644461746560c01b6064820152608490fd5b50346101cc57806003193601126101cc57600080516020613b77833981519152546040516001600160a01b039091168152602090f35b50346101cc57806003193601126101cc57600080516020613b77833981519152546001600160a01b0316330361038557600080516020613b97833981519152805460ff191660011790557f975c2fc9ddf45852b3fc20d6e75b3b08b461c20ce297d2fd4313300c92f27bb78180a180f35b50346101cc5760203660031901126101cc57600860406020926004358152600080516020613b578339815191528452200154604051908152f35b50346101cc57806003193601126101cc57600080516020613c1783398151915254336001600160a01b0390911603612084576101b73361375e565b60405163118cdaa760e01b8152336004820152602490fd5b50346101cc5760403660031901126101cc576001600160401b036004358181116106ca576120ce903690600401613173565b909160249283358281116106a8576120ea903690600401613173565b949094338752602091600080516020613bd7833981519152835260ff60408920541615612375578515158061236c575b1561232a577f220b301e849f0e7939d5b8f36c982013834343e674bcbcf2ce548a85ebe8f20596875415612321575b60405194608086018681108882111761230e576121889291612179916040528b8852868801998c8b52369161327c565b9360408701948552369161327c565b9360608101948552875489527f220b301e849f0e7939d5b8f36c982013834343e674bcbcf2ce548a85ebe8f206845260408920905181556001965160018201556002810192519283519087821161230e57600160401b948583116122fb5786908c848454918186558282106122cb575b50505001908b52858b20898c5b8481106122b957505050505060030193519182519586116122a657851161229457508190835485855580861061226a575b500191865280862090865b84811061225957878761225481546132f3565b905580f35b835183820155928101928501612241565b8489528686848b2092830192015b828110612286575050612236565b8a8155859450889101612278565b634e487b7160e01b8852604160045287fd5b50634e487b7160e01b8852604160045287fd5b88845194019381840155018a90612205565b8d9150858152868582209384019301905b8382106122ed5790508691506121f8565b81558a94508d91018f6122dc565b634e487b7160e01b8c526041600452848cfd5b634e487b7160e01b8b526041600452838bfd5b60018855612149565b606490836040519162461bcd60e51b83528160048401528201527f746965727320616e6420707269636573206c656e677468206d69736d617463686044820152fd5b5081861461211a565b60405163e75e7a5f60e01b8152336004820152fd5b50346101cc57806003193601126101cc576123a3613453565b600080516020613c1783398151915280546001600160a01b0319908116909155600080516020613b778339815191528054918216905581906001600160a01b03167f8be0079c531659141344cd1fd0a4f28419497f9722a3daafe3b4186f6b6457e08280a380f35b50346101cc5760031960203682011261039757600435906001600160401b03908183116106c25760a09083360301126106ca576040519061244b82613003565b82600401358181116106c65761246790600436918601016130bf565b825260248301358181116106c65761248590600436918601016130bf565b602083015260448301358181116106c6576124a690600436918601016130bf565b604083015260648301358181116106c6576124c790600436918601016130bf565b606083015260848301359081116106c2576102889260046124eb92369201016130f4565b6080820152613575565b50346101cc5760403660031901126101cc576040602091612514612fb6565b60043582527f220b301e849f0e7939d5b8f36c982013834343e674bcbcf2ce548a85ebe8f20284528282206001600160a01b03909116825283522054604051908152f35b50346101cc5760803660031901126101cc576004356001600160401b038082116106ca57366023830112156106ca5781600401358181116106c25736602482850101116106c2576125a7612fb6565b906125b0612e9f565b906064359161ffff831683036106a4577ff0c57e16840df040f15088dc2f81fe391c3923bec73e23a9662efc9c229c6a0095865460ff8160401c1615968116801590816128c5575b60011490816128bb575b1590816128b2575b506128a05767ffffffffffffffff198116600117885586612881575b5061262f613a14565b612637613a14565b6001600160a01b0392858416156128685761268b91612673916126598861375e565b612661613a14565b612669613a14565b6024369201613088565b61267b613a14565b612683613a14565b6109c16133d7565b91600080516020613b77833981519152541633036103855760ff600080516020613b9783398151915254166103735760206126f6926040518094819263b480003360e01b8352600080516020613c378339815191526004840152604060248401526044830190612e5f565b03818a650f043a0000075af1801561285d576127c5946127939361274b9261283e575b507fa5d4097edda6d87cb9329af83fb3712ef77eeb13738ffe43cc35a4ce305ad9628980a1612746613a14565b613474565b7f220b301e849f0e7939d5b8f36c982013834343e674bcbcf2ce548a85ebe8f203805462010000600160b01b03191660109290921b62010000600160b01b0316919091179055565b61ffff7f220b301e849f0e7939d5b8f36c982013834343e674bcbcf2ce548a85ebe8f203911661ffff19825416179055565b6001600080516020613bb78339815191525560017f220b301e849f0e7939d5b8f36c982013834343e674bcbcf2ce548a85ebe8f20555612803575080f35b805460ff60401b19169055604051600181527fc7f505b2f371ae2175ee4913f4499e1f2633a7b5936321eed1cdaeb6115181d290602090a180f35b6128569060203d60201161036157610352818361304c565b5038612719565b6040513d89823e3d90fd5b604051631e4fbdf760e01b8152600481018a9052602490fd5b68ffffffffffffffffff19166801000000000000000117875538612626565b60405163f92ee8a960e01b8152600490fd5b9050153861260a565b303b159150612602565b8891506125f8565b50346101cc5760203660031901126101cc5760043561ffff81168103610397576101b790612793613453565b50346101cc57806003193601126101cc577f00000000000000000000000000000000000000000000000000000000000000006001600160a01b031630036129645760206040517f360894a13ba1a3210667c828492db98dca3e2076cc3735a920a3ca505d382bbc8152f35b60405163703e46dd60e11b8152600490fd5b5060403660031901126101cc5761298b612e84565b6024356001600160401b0381116106ca57366023820112156106ca576129bb903690602481600401359101613088565b6001600160a01b037f00000000000000000000000000000000000000000000000000000000000000008116308114908115612b53575b50612964576129fe613453565b8216916040516352d1902d60e01b8152602081600481875afa859181612b1f575b50612a3d57604051634c9c8ce360e01b815260048101859052602490fd5b9284937f360894a13ba1a3210667c828492db98dca3e2076cc3735a920a3ca505d382bbc90818103612b075750823b15612aee5780546001600160a01b0319168217905560405184917fbc7cd75a20ee27fd9adebab32041f755214dbc6bffa90cc0225b39da2e5c2d3b8380a2835115612ad2575080836020612ace95519101845af4612ac861390a565b91613b05565b5080f35b9250505034612adf575080f35b63b398979f60e01b8152600490fd5b604051634c9c8ce360e01b815260048101839052602490fd5b60249060405190632a87526960e21b82526004820152fd5b9091506020813d602011612b4b575b81612b3b6020938361304c565b810103126106a857519038612a1f565b3d9150612b2e565b9050817f360894a13ba1a3210667c828492db98dca3e2076cc3735a920a3ca505d382bbc54161415386129f1565b50346101cc576020806003193601126103975761073691600c60405191612ba783612fcc565b8083528084840152806040840152604051612bc181612fe8565b818152818582015281604082015260608401528060808401528060a08401528060c08401528060e0840152610100908082850152610120948186860152610140928284870152610160838188015261018092848489015260406101a09580878b0152806101c0809b01526004358152600080516020613b578339815191528352209560405199612c508b612fcc565b87548b5260018801546001600160a01b03908116848d015260028901541660408c0152612c7f600389016131cf565b60608c015260068801549463ffffffff958c60808883169101528c60a08883881c1691015265ffffffffffff908d60c0838360401c1691015260701c1660e08d01526007890154908c01526008880154908b01526009870154908a0152600a86015491838316908a01521c1690860152600b8201549085015201549082015260405191829182612eb5565b50346101cc5760203660031901126101cc576101b7612d27612e84565b61274b613453565b50346101cc57806003193601126101cc57602060ff600080516020613b9783398151915254166040519015158152f35b90503461039757816003199181833601126103975763023aa9ab60e61b8152600080516020613c3783398151915260048201528181602481650f043a0000075afa801561036857612de1918391612e22575b50612df0612dbd6131a3565b946040519586948594633e10510b60e01b8652604060048701526044860190612e5f565b91848303016024850152612e5f565b0381650f043a0000035afa9081156103685782610736939261073a575050604051918291602083526020830190612e5f565b612e3691503d8085833e61074e818361304c565b38612db1565b60005b838110612e4f5750506000910152565b8181015183820152602001612e3f565b90602091612e7881518092818552858086019101612e3c565b601f01601f1916010190565b600435906001600160a01b0382168203612e9a57565b600080fd5b604435906001600160a01b0382168203612e9a57565b815181526020808301516001600160a01b03908116828401526040808501518216818501526060808601518051909316908501529181015160808401520151610220820193926002821015612fa0576102009160a084015260808101519063ffffffff80921660c08501528160a08201511660e085015260c081015161010065ffffffffffff8092168187015260e08301519161012092168287015282015190610140918287015282015190610160918287015282015190610180918287015282015190836101a0921682870152820151926101c09316838601528101516101e08501520151910152565b634e487b7160e01b600052602160045260246000fd5b602435906001600160a01b0382168203612e9a57565b6101e081019081106001600160401b038211176106ac57604052565b606081019081106001600160401b038211176106ac57604052565b60a081019081106001600160401b038211176106ac57604052565b6001600160401b0381116106ac57604052565b604081019081106001600160401b038211176106ac57604052565b90601f801991011681019081106001600160401b038211176106ac57604052565b6001600160401b0381116106ac57601f01601f191660200190565b9291926130948261306d565b916130a2604051938461304c565b829481845281830111612e9a578281602093846000960137010152565b9080601f83011215612e9a578160206130da93359101613088565b90565b6001600160401b0381116106ac5760051b60200190565b81601f82011215612e9a5780359160209161310e846130dd565b9361311c604051958661304c565b808552838086019160051b83010192808411612e9a57848301915b8483106131475750505050505090565b82356001600160401b038111612e9a578691613168848480948901016130bf565b815201920191613137565b9181601f84011215612e9a578235916001600160401b038311612e9a576020808501948460051b010111612e9a57565b604051906131b082613031565b60048252636e616d6560e01b6020830152565b6002821015612fa05752565b906132086040516131df81612fe8565b83546001600160a01b031681526001840154602082015260029093015460ff16604084016131c3565b565b6001600160a01b031660009081527f220b301e849f0e7939d5b8f36c982013834343e674bcbcf2ce548a85ebe8f2086020526040902090565b6001600160a01b031660009081527f220b301e849f0e7939d5b8f36c982013834343e674bcbcf2ce548a85ebe8f2096020526040902090565b9291613287826130dd565b91613295604051938461304c565b829481845260208094019160051b8101928311612e9a57905b8282106132bb5750505050565b813581529083019083016132ae565b818102929181159184041417156132dd57565b634e487b7160e01b600052601160045260246000fd5b60001981146132dd5760010190565b60a43565ffffffffffff81168103612e9a5790565b60c43565ffffffffffff81168103612e9a5790565b60643563ffffffff81168103612e9a5790565b6024356001600160a01b0381168103612e9a5790565b919082018092116132dd57565b1561336957565b60405162461bcd60e51b815260206004820152600b60248201526a696e76616c69642071747960a81b6044820152606490fd5b80548210156133b45760005260206000200190600090565b634e487b7160e01b600052603260045260246000fd5b919082039182116132dd57565b604051906133e482613031565b60028252617b7d60f01b6020830152565b602081830312612e9a578051906001600160401b038211612e9a570181601f82011215612e9a5780516134278161306d565b92613435604051948561304c565b81845260208284010111612e9a576130da9160208085019101612e3c565b600080516020613b77833981519152546001600160a01b0316330361208457565b6001600160a01b03166000818152600080516020613bd78339815191526020908152604091829020805460ff1916600117905590519182527f77a7dbc6ad97703ad411a8d5edfcd1df382fb34b076a90898b11884f7ebdcc0591a1565b604090604051916134e183612fe8565b600283528260005b8281106134f557505050565b8060606020809385010152016134e9565b6040519061351382613003565b600482528160005b60808110613527575050565b80606060208093850101520161351b565b8051156133b45760200190565b8051600110156133b45760400190565b8051600210156133b45760600190565b8051600310156133b45760800190565b604080519061358382613031565b601482526020737b22636f6c6c61626f7261746f7273223a5b5d7d60601b818401526136d66135b0613506565b936135b96131a3565b6135c286613538565b526135cc85613538565b5083516135d881613031565b600b81526a3232b9b1b934b83a34b7b760a91b848201526135f886613545565b5261360285613545565b5083519461360f86613031565b6005956005815264696d61676560d81b8582015261362c82613555565b5261363681613555565b50845161364281613031565b600d81526c65787465726e616c5f6c696e6b60981b8582015261366482613565565b5261366e81613565565b50613677613506565b91875161368384613538565b5261368d83613538565b508488015161369b84613545565b526136a583613545565b50858801516136b384613555565b526136bd83613555565b5060608801516136cc84613565565b526105b983613565565b6000936000915b6080870151805160ff851610156137535783831b611fe0160184015185516137299261370882613031565b601082526f636f6c6c61626f7261746f72732e2d3160801b8783015261398f565b9160ff80911690811461373f57600101916136dd565b634e487b7160e01b86526011600452602486fd5b509550505050505090565b600080516020613c1783398151915280546001600160a01b0319908116909155600080516020613b7783398151915280549182166001600160a01b0393841690811790915591167f8be0079c531659141344cd1fd0a4f28419497f9722a3daafe3b4186f6b6457e0600080a3565b90816020910312612e9a57518015158103612e9a5790565b6040516301ffc9a760e01b808252636cdb3d1360e11b60048301526001600160a01b0392909216916020918281602481875afa9081156138a0576000916138ac575b501561383457505050600190565b6040519081526380ac58cd60e01b60048201528181602481865afa9182156138a057600092613883575b50501561386b5750600090565b6024906040519063106bc3ad60e01b82526004820152fd5b6138999250803d1061036157610352818361304c565b388061385e565b6040513d6000823e3d90fd5b6138c39150833d851161036157610352818361304c565b38613826565b156138d057565b60405162461bcd60e51b81526020600482015260126024820152711b585e081b5a5b9d1cc8195e18d95959195960721b6044820152606490fd5b3d15613935573d9061391b8261306d565b91613929604051938461304c565b82523d6000602084013e565b606090565b814710613977576000918291829182916001600160a01b03165af161395d61390a565b501561396557565b604051630a12f52160e11b8152600490fd5b60405163cd78605960e01b8152306004820152602490fd5b6139c0906139e26000936139d3956040519687958695633691975d60e21b8752606060048801526064870190612e5f565b6003199384878303016024880152612e5f565b91848303016044850152612e5f565b0381650f043a0000035afa9081156138a0576000916139ff575090565b6130da91503d806000833e61074e818361304c565b60ff7ff0c57e16840df040f15088dc2f81fe391c3923bec73e23a9662efc9c229c6a005460401c1615613a4357565b604051631afcd79f60e31b8152600490fd5b90808251908181526020809101926020808460051b8301019501936000915b848310613a845750505050505090565b9091929394958480613aa2600193601f198682030187528a51612e5f565b9801930193019194939290613a74565b613ae3906139e2600093613af69560405196879586956328d694bb60e21b8752606060048801526064870190612e5f565b6003199384878303016024880152613a55565b91848303016044850152613a55565b90613b1a575080511561396557805190602001fd5b81511580613b4d575b613b2b575090565b604051639996b31560e01b81526001600160a01b039091166004820152602490fd5b50803b15613b2356fe220b301e849f0e7939d5b8f36c982013834343e674bcbcf2ce548a85ebe8f2019016d09d72d40fdae2fd8ceac6b6234c7706214fd39c1cd1e609a0528c199300985371f50cecfcb1a6dfdccb4c871d7a5d94b17a9d368860b42eaca20a68bf00220b301e849f0e7939d5b8f36c982013834343e674bcbcf2ce548a85ebe8f2007b525f1ceaccf3b696f6ae41e77fd6ec1db7d6f30a7291dc90c708e9f30c7d00690d9d2427e2b133f22707bb746c8269a2aa0f316b646ee0ec35e0f413623793237e158222e3e6968b72b9db0d8043aacf074ad9f650f0d1606b4d82ee432c00841f636c3ae717f882adaf710a5db29ca95821d91f8d637d2b614cbcb320c700a2646970667358221220fa4fdaed291067b232addd89820110f44aa8b119dbe07e1f65bf7f6e354ed51664736f6c63430008180033",
  "linkReferences": {},
  "deployedLinkReferences": {}
}